{
  "contractName": "FlightSuretyApp",
  "abi": [
    {
      "inputs": [
        {
          "internalType": "address payable",
          "name": "dataAddress",
          "type": "address"
        }
      ],
      "stateMutability": "nonpayable",
      "type": "constructor"
    },
    {
      "anonymous": false,
      "inputs": [
        {
          "indexed": false,
          "internalType": "address",
          "name": "airline",
          "type": "address"
        },
        {
          "indexed": false,
          "internalType": "string",
          "name": "flight",
          "type": "string"
        },
        {
          "indexed": false,
          "internalType": "uint256",
          "name": "timestamp",
          "type": "uint256"
        },
        {
          "indexed": false,
          "internalType": "uint8",
          "name": "status",
          "type": "uint8"
        }
      ],
      "name": "FlightStatusInfo",
      "type": "event"
    },
    {
      "anonymous": false,
      "inputs": [
        {
          "indexed": false,
          "internalType": "address",
          "name": "airline",
          "type": "address"
        },
        {
          "indexed": false,
          "internalType": "string",
          "name": "flight",
          "type": "string"
        },
        {
          "indexed": false,
          "internalType": "uint256",
          "name": "timestamp",
          "type": "uint256"
        },
        {
          "indexed": false,
          "internalType": "uint8",
          "name": "status",
          "type": "uint8"
        }
      ],
      "name": "OracleReport",
      "type": "event"
    },
    {
      "anonymous": false,
      "inputs": [
        {
          "indexed": false,
          "internalType": "uint8",
          "name": "index",
          "type": "uint8"
        },
        {
          "indexed": false,
          "internalType": "address",
          "name": "airline",
          "type": "address"
        },
        {
          "indexed": false,
          "internalType": "string",
          "name": "flight",
          "type": "string"
        },
        {
          "indexed": false,
          "internalType": "uint256",
          "name": "timestamp",
          "type": "uint256"
        }
      ],
      "name": "OracleRequest",
      "type": "event"
    },
    {
      "inputs": [],
      "name": "REGISTRATION_FEE",
      "outputs": [
        {
          "internalType": "uint256",
          "name": "",
          "type": "uint256"
        }
      ],
      "stateMutability": "view",
      "type": "function"
    },
    {
      "inputs": [
        {
          "internalType": "address",
          "name": "airline",
          "type": "address"
        },
        {
          "internalType": "string",
          "name": "flight",
          "type": "string"
        },
        {
          "internalType": "uint256",
          "name": "timestamp",
          "type": "uint256"
        }
      ],
      "name": "registerFlight",
      "outputs": [],
      "stateMutability": "nonpayable",
      "type": "function"
    },
    {
      "inputs": [
        {
          "internalType": "address",
          "name": "airline",
          "type": "address"
        },
        {
          "internalType": "string",
          "name": "flight",
          "type": "string"
        },
        {
          "internalType": "uint256",
          "name": "timestamp",
          "type": "uint256"
        }
      ],
      "name": "fetchFlightStatus",
      "outputs": [],
      "stateMutability": "nonpayable",
      "type": "function"
    },
    {
      "inputs": [],
      "name": "registerOracle",
      "outputs": [],
      "stateMutability": "payable",
      "type": "function"
    },
    {
      "inputs": [],
      "name": "getMyIndexes",
      "outputs": [
        {
          "internalType": "uint8[3]",
          "name": "",
          "type": "uint8[3]"
        }
      ],
      "stateMutability": "view",
      "type": "function"
    },
    {
      "inputs": [
        {
          "internalType": "uint8",
          "name": "index",
          "type": "uint8"
        },
        {
          "internalType": "address",
          "name": "airline",
          "type": "address"
        },
        {
          "internalType": "string",
          "name": "flight",
          "type": "string"
        },
        {
          "internalType": "uint256",
          "name": "timestamp",
          "type": "uint256"
        },
        {
          "internalType": "uint8",
          "name": "statusCode",
          "type": "uint8"
        }
      ],
      "name": "submitOracleResponse",
      "outputs": [],
      "stateMutability": "nonpayable",
      "type": "function"
    },
    {
      "inputs": [
        {
          "internalType": "address",
          "name": "newAirline",
          "type": "address"
        },
        {
          "internalType": "string",
          "name": "name",
          "type": "string"
        }
      ],
      "name": "registerAirline",
      "outputs": [],
      "stateMutability": "nonpayable",
      "type": "function"
    },
    {
      "inputs": [
        {
          "internalType": "address",
          "name": "owner",
          "type": "address"
        }
      ],
      "name": "fund",
      "outputs": [],
      "stateMutability": "payable",
      "type": "function"
    },
    {
      "inputs": [
        {
          "internalType": "address",
          "name": "_passengerAddress",
          "type": "address"
        },
        {
          "internalType": "address",
          "name": "airline",
          "type": "address"
        },
        {
          "internalType": "string",
          "name": "flight",
          "type": "string"
        },
        {
          "internalType": "uint256",
          "name": "timestamp",
          "type": "uint256"
        }
      ],
      "name": "buy",
      "outputs": [],
      "stateMutability": "payable",
      "type": "function"
    },
    {
      "inputs": [],
      "name": "isOperational",
      "outputs": [
        {
          "internalType": "bool",
          "name": "",
          "type": "bool"
        }
      ],
      "stateMutability": "view",
      "type": "function"
    },
    {
      "inputs": [],
      "name": "pay",
      "outputs": [],
      "stateMutability": "nonpayable",
      "type": "function"
    }
  ],
  "bytecode": "0x60806040526000600260146101000a81548160ff021916908360ff1602179055503480156200002d57600080fd5b5060405162001fc438038062001fc4833981810160405281019062000053919062000145565b336000806101000a81548173ffffffffffffffffffffffffffffffffffffffff021916908373ffffffffffffffffffffffffffffffffffffffff16021790555080600260006101000a81548173ffffffffffffffffffffffffffffffffffffffff021916908373ffffffffffffffffffffffffffffffffffffffff1602179055505062000177565b600080fd5b600073ffffffffffffffffffffffffffffffffffffffff82169050919050565b60006200010d82620000e0565b9050919050565b6200011f8162000100565b81146200012b57600080fd5b50565b6000815190506200013f8162000114565b92915050565b6000602082840312156200015e576200015d620000db565b5b60006200016e848285016200012e565b91505092915050565b611e3d80620001876000396000f3fe60806040526004361061009c5760003560e01c80635f1cc0e6116100645780635f1cc0e61461012357806364b4f7511461014e578063c10f270014610179578063cd905dff146101a2578063ee38a749146101cd578063f83f11c0146101f65761009c565b80631b9265b8146100a157806323024408146100b8578063339d2590146100d457806335183170146100de5780633cc0be9c146100fa575b600080fd5b3480156100ad57600080fd5b506100b661021f565b005b6100d260048036038101906100cd91906111e1565b6102ae565b005b6100dc61033f565b005b6100f860048036038101906100f391906112a9565b61042c565b005b34801561010657600080fd5b50610121600480360381019061011c9190611331565b6104c9565b005b34801561012f57600080fd5b50610138610562565b604051610145919061145d565b60405180910390f35b34801561015a57600080fd5b506101636106a2565b6040516101709190611487565b60405180910390f35b34801561018557600080fd5b506101a0600480360381019061019b91906114ce565b6106ae565b005b3480156101ae57600080fd5b506101b7610a88565b6040516101c49190611583565b60405180910390f35b3480156101d957600080fd5b506101f460048036038101906101ef919061159e565b610b20565b005b34801561020257600080fd5b5061021d60048036038101906102189190611331565b610bb6565b005b600260009054906101000a900473ffffffffffffffffffffffffffffffffffffffff1673ffffffffffffffffffffffffffffffffffffffff16630c11dedd336040518263ffffffff1660e01b815260040161027a919061161f565b600060405180830381600087803b15801561029457600080fd5b505af11580156102a8573d6000803e3d6000fd5b50505050565b600260009054906101000a900473ffffffffffffffffffffffffffffffffffffffff1673ffffffffffffffffffffffffffffffffffffffff16632302440834836040518363ffffffff1660e01b815260040161030a9190611649565b6000604051808303818588803b15801561032357600080fd5b505af1158015610337573d6000803e3d6000fd5b505050505050565b670de0b6b3a764000034101561038a576040517f08c379a0000000000000000000000000000000000000000000000000000000008152600401610381906116c1565b60405180910390fd5b600061039533610cb5565b9050604051806040016040528060011515815260200182815250600360003373ffffffffffffffffffffffffffffffffffffffff1673ffffffffffffffffffffffffffffffffffffffff16815260200190815260200160002060008201518160000160006101000a81548160ff0219169083151502179055506020820151816001019060036104259291906110a0565b5090505050565b600260009054906101000a900473ffffffffffffffffffffffffffffffffffffffff1673ffffffffffffffffffffffffffffffffffffffff1663351831703487878787876040518763ffffffff1660e01b815260040161049095949392919061172e565b6000604051808303818588803b1580156104a957600080fd5b505af11580156104bd573d6000803e3d6000fd5b50505050505050505050565b600260009054906101000a900473ffffffffffffffffffffffffffffffffffffffff1673ffffffffffffffffffffffffffffffffffffffff16633cc0be9c858585856040518563ffffffff1660e01b815260040161052a949392919061177c565b600060405180830381600087803b15801561054457600080fd5b505af1158015610558573d6000803e3d6000fd5b5050505050505050565b61056a61113a565b600360003373ffffffffffffffffffffffffffffffffffffffff1673ffffffffffffffffffffffffffffffffffffffff16815260200190815260200160002060000160009054906101000a900460ff166105f9576040517f08c379a00000000000000000000000000000000000000000000000000000000081526004016105f090611808565b60405180910390fd5b600360003373ffffffffffffffffffffffffffffffffffffffff1673ffffffffffffffffffffffffffffffffffffffff168152602001908152602001600020600101600380602002604051908101604052809291908260038015610698576020028201916000905b82829054906101000a900460ff1660ff16815260200190600101906020826000010492830192600103820291508084116106615790505b5050505050905090565b670de0b6b3a764000081565b8560ff16600360003373ffffffffffffffffffffffffffffffffffffffff1673ffffffffffffffffffffffffffffffffffffffff16815260200190815260200160002060010160006003811061070757610706611828565b5b602091828204019190069054906101000a900460ff1660ff16148061079b57508560ff16600360003373ffffffffffffffffffffffffffffffffffffffff1673ffffffffffffffffffffffffffffffffffffffff1681526020019081526020016000206001016001600381106107805761077f611828565b5b602091828204019190069054906101000a900460ff1660ff16145b8061081557508560ff16600360003373ffffffffffffffffffffffffffffffffffffffff1673ffffffffffffffffffffffffffffffffffffffff1681526020019081526020016000206001016002600381106107fa576107f9611828565b5b602091828204019190069054906101000a900460ff1660ff16145b610854576040517f08c379a000000000000000000000000000000000000000000000000000000000815260040161084b906118c9565b60405180910390fd5b6000868686868660405160200161086f9594939291906119b8565b6040516020818303038152906040528051906020012090506004600082815260200190815260200160002060000160149054906101000a900460ff166108ea576040517f08c379a00000000000000000000000000000000000000000000000000000000081526004016108e190611a76565b60405180910390fd5b6004600082815260200190815260200160002060010160008360ff1660ff168152602001908152602001600020339080600181540180825580915050600190039060005260206000200160009091909190916101000a81548173ffffffffffffffffffffffffffffffffffffffff021916908373ffffffffffffffffffffffffffffffffffffffff1602179055507f43c853095c2752648493c88b4baac4d580d2594ffb00c6f1d4242d844514f78386868686866040516109af959493929190611aa5565b60405180910390a160036004600083815260200190815260200160002060010160008460ff1660ff1681526020019081526020016000208054905010610a7f577fe23f5229de535c091e3b7bec2665f5d698192d3b31393066e8987b7a05076b6c8686868686604051610a26959493929190611aa5565b60405180910390a1610a7e8686868080601f016020809104026020016040519081016040528093929190818152602001838380828437600081840152601f19601f820116905080830192505050505050508585610e9b565b5b50505050505050565b6000600260009054906101000a900473ffffffffffffffffffffffffffffffffffffffff1673ffffffffffffffffffffffffffffffffffffffff1663cd905dff6040518163ffffffff1660e01b8152600401602060405180830381865afa158015610af7573d6000803e3d6000fd5b505050506040513d601f19601f82011682018060405250810190610b1b9190611b1f565b905090565b600260009054906101000a900473ffffffffffffffffffffffffffffffffffffffff1673ffffffffffffffffffffffffffffffffffffffff1663ee38a7498484846040518463ffffffff1660e01b8152600401610b7f93929190611b4c565b600060405180830381600087803b158015610b9957600080fd5b505af1158015610bad573d6000803e3d6000fd5b50505050505050565b6000610bc133610fd4565b905060008186868686604051602001610bde9594939291906119b8565b6040516020818303038152906040528051906020012090506000600460008381526020019081526020016000209050338160000160006101000a81548173ffffffffffffffffffffffffffffffffffffffff021916908373ffffffffffffffffffffffffffffffffffffffff16021790555060018160000160146101000a81548160ff0219169083151502179055507f3ed01f2c3fc24c6b329d931e35b03e390d23497d22b3f90e15b600343e93df118388888888604051610ca4959493929190611b7e565b60405180910390a150505050505050565b610cbd61113a565b610cc561113a565b610cce83610fd4565b81600060038110610ce257610ce1611828565b5b602002019060ff16908160ff168152505080600060038110610d0757610d06611828565b5b602002015181600160038110610d2057610d1f611828565b5b602002019060ff16908160ff16815250505b80600060038110610d4657610d45611828565b5b602002015160ff1681600160038110610d6257610d61611828565b5b602002015160ff1603610da257610d7883610fd4565b81600160038110610d8c57610d8b611828565b5b602002019060ff16908160ff1681525050610d32565b80600160038110610db657610db5611828565b5b602002015181600260038110610dcf57610dce611828565b5b602002019060ff16908160ff16815250505b80600060038110610df557610df4611828565b5b602002015160ff1681600260038110610e1157610e10611828565b5b602002015160ff161480610e5a575080600160038110610e3457610e33611828565b5b602002015160ff1681600260038110610e5057610e4f611828565b5b602002015160ff16145b15610e9257610e6883610fd4565b81600260038110610e7c57610e7b611828565b5b602002019060ff16908160ff1681525050610de1565b80915050919050565b600260009054906101000a900473ffffffffffffffffffffffffffffffffffffffff1673ffffffffffffffffffffffffffffffffffffffff16634337bdd4858585856040518563ffffffff1660e01b8152600401610efc9493929190611c3a565b600060405180830381600087803b158015610f1657600080fd5b505af1158015610f2a573d6000803e3d6000fd5b50505050600a60ff168160ff1614610fce57600260009054906101000a900473ffffffffffffffffffffffffffffffffffffffff1673ffffffffffffffffffffffffffffffffffffffff1663c8820a708585856040518463ffffffff1660e01b8152600401610f9b93929190611c86565b600060405180830381600087803b158015610fb557600080fd5b505af1158015610fc9573d6000803e3d6000fd5b505050505b50505050565b600080600a905060008160ff166002601481819054906101000a900460ff168092919061100090611cf3565b91906101000a81548160ff021916908360ff16021790555060ff16436110269190611d1c565b4085604051602001611039929190611d7b565b6040516020818303038152906040528051906020012060001c61105c9190611dd6565b905060fa600260149054906101000a900460ff1660ff161115611096576000600260146101000a81548160ff021916908360ff1602179055505b8092505050919050565b826003601f016020900481019282156111295791602002820160005b838211156110fa57835183826101000a81548160ff021916908360ff16021790555092602001926001016020816000010492830192600103026110bc565b80156111275782816101000a81549060ff02191690556001016020816000010492830192600103026110fa565b505b509050611136919061115c565b5090565b6040518060600160405280600390602082028036833780820191505090505090565b5b8082111561117557600081600090555060010161115d565b5090565b600080fd5b600080fd5b600073ffffffffffffffffffffffffffffffffffffffff82169050919050565b60006111ae82611183565b9050919050565b6111be816111a3565b81146111c957600080fd5b50565b6000813590506111db816111b5565b92915050565b6000602082840312156111f7576111f6611179565b5b6000611205848285016111cc565b91505092915050565b600080fd5b600080fd5b600080fd5b60008083601f8401126112335761123261120e565b5b8235905067ffffffffffffffff8111156112505761124f611213565b5b60208301915083600182028301111561126c5761126b611218565b5b9250929050565b6000819050919050565b61128681611273565b811461129157600080fd5b50565b6000813590506112a38161127d565b92915050565b6000806000806000608086880312156112c5576112c4611179565b5b60006112d3888289016111cc565b95505060206112e4888289016111cc565b945050604086013567ffffffffffffffff8111156113055761130461117e565b5b6113118882890161121d565b9350935050606061132488828901611294565b9150509295509295909350565b6000806000806060858703121561134b5761134a611179565b5b6000611359878288016111cc565b945050602085013567ffffffffffffffff81111561137a5761137961117e565b5b6113868782880161121d565b9350935050604061139987828801611294565b91505092959194509250565b600060039050919050565b600081905092915050565b6000819050919050565b600060ff82169050919050565b6113db816113c5565b82525050565b60006113ed83836113d2565b60208301905092915050565b6000602082019050919050565b61140f816113a5565b61141981846113b0565b9250611424826113bb565b8060005b8381101561145557815161143c87826113e1565b9650611447836113f9565b925050600181019050611428565b505050505050565b60006060820190506114726000830184611406565b92915050565b61148181611273565b82525050565b600060208201905061149c6000830184611478565b92915050565b6114ab816113c5565b81146114b657600080fd5b50565b6000813590506114c8816114a2565b92915050565b60008060008060008060a087890312156114eb576114ea611179565b5b60006114f989828a016114b9565b965050602061150a89828a016111cc565b955050604087013567ffffffffffffffff81111561152b5761152a61117e565b5b61153789828a0161121d565b9450945050606061154a89828a01611294565b925050608061155b89828a016114b9565b9150509295509295509295565b60008115159050919050565b61157d81611568565b82525050565b60006020820190506115986000830184611574565b92915050565b6000806000604084860312156115b7576115b6611179565b5b60006115c5868287016111cc565b935050602084013567ffffffffffffffff8111156115e6576115e561117e565b5b6115f28682870161121d565b92509250509250925092565b600061160982611183565b9050919050565b611619816115fe565b82525050565b60006020820190506116346000830184611610565b92915050565b611643816111a3565b82525050565b600060208201905061165e600083018461163a565b92915050565b600082825260208201905092915050565b7f526567697374726174696f6e2066656520697320726571756972656400000000600082015250565b60006116ab601c83611664565b91506116b682611675565b602082019050919050565b600060208201905081810360008301526116da8161169e565b9050919050565b82818337600083830152505050565b6000601f19601f8301169050919050565b600061170d8385611664565b935061171a8385846116e1565b611723836116f0565b840190509392505050565b6000608082019050611743600083018861163a565b611750602083018761163a565b8181036040830152611763818587611701565b90506117726060830184611478565b9695505050505050565b6000606082019050611791600083018761163a565b81810360208301526117a4818587611701565b90506117b36040830184611478565b95945050505050565b7f4e6f74207265676973746572656420617320616e206f7261636c650000000000600082015250565b60006117f2601b83611664565b91506117fd826117bc565b602082019050919050565b60006020820190508181036000830152611821816117e5565b9050919050565b7f4e487b7100000000000000000000000000000000000000000000000000000000600052603260045260246000fd5b7f496e64657820646f6573206e6f74206d61746368206f7261636c65207265717560008201527f6573740000000000000000000000000000000000000000000000000000000000602082015250565b60006118b3602383611664565b91506118be82611857565b604082019050919050565b600060208201905081810360008301526118e2816118a6565b9050919050565b60008160f81b9050919050565b6000611901826118e9565b9050919050565b611919611914826113c5565b6118f6565b82525050565b60008160601b9050919050565b60006119378261191f565b9050919050565b60006119498261192c565b9050919050565b61196161195c826111a3565b61193e565b82525050565b600081905092915050565b600061197e8385611967565b935061198b8385846116e1565b82840190509392505050565b6000819050919050565b6119b26119ad82611273565b611997565b82525050565b60006119c48288611908565b6001820191506119d48287611950565b6014820191506119e5828587611972565b91506119f182846119a1565b6020820191508190509695505050505050565b7f466c69676874206f722074696d657374616d7020646f206e6f74206d6174636860008201527f206f7261636c6520726571756573740000000000000000000000000000000000602082015250565b6000611a60602f83611664565b9150611a6b82611a04565b604082019050919050565b60006020820190508181036000830152611a8f81611a53565b9050919050565b611a9f816113c5565b82525050565b6000608082019050611aba600083018861163a565b8181036020830152611acd818688611701565b9050611adc6040830185611478565b611ae96060830184611a96565b9695505050505050565b611afc81611568565b8114611b0757600080fd5b50565b600081519050611b1981611af3565b92915050565b600060208284031215611b3557611b34611179565b5b6000611b4384828501611b0a565b91505092915050565b6000604082019050611b61600083018661163a565b8181036020830152611b74818486611701565b9050949350505050565b6000608082019050611b936000830188611a96565b611ba0602083018761163a565b8181036040830152611bb3818587611701565b9050611bc26060830184611478565b9695505050505050565b600081519050919050565b60005b83811015611bf5578082015181840152602081019050611bda565b60008484015250505050565b6000611c0c82611bcc565b611c168185611664565b9350611c26818560208601611bd7565b611c2f816116f0565b840191505092915050565b6000608082019050611c4f600083018761163a565b8181036020830152611c618186611c01565b9050611c706040830185611478565b611c7d6060830184611a96565b95945050505050565b6000606082019050611c9b600083018661163a565b8181036020830152611cad8185611c01565b9050611cbc6040830184611478565b949350505050565b7f4e487b7100000000000000000000000000000000000000000000000000000000600052601160045260246000fd5b6000611cfe826113c5565b915060ff8203611d1157611d10611cc4565b5b600182019050919050565b6000611d2782611273565b9150611d3283611273565b9250828203905081811115611d4a57611d49611cc4565b5b92915050565b6000819050919050565b6000819050919050565b611d75611d7082611d50565b611d5a565b82525050565b6000611d878285611d64565b602082019150611d978284611950565b6014820191508190509392505050565b7f4e487b7100000000000000000000000000000000000000000000000000000000600052601260045260246000fd5b6000611de182611273565b9150611dec83611273565b925082611dfc57611dfb611da7565b5b82820690509291505056fea26469706673582212202675718a231c8d5d5e679681ff6e5621fefca7140794c72646bb8dc5ee90a30364736f6c63430008110033",
  "immutableReferences": {},
  "source": "// SPDX-License-Identifier: MIT\npragma solidity ^0.8.17;\n\n// SafeMath built-in in later Sol\nimport \"./FlightSuretyData.sol\";\n\n\n/************************************************** */\n/* FlightSurety Smart Contract                      */\n/************************************************** */\ncontract FlightSuretyApp {\n\n    /********************************************************************************************/\n    /*                                       DATA VARIABLES                                     */\n    /********************************************************************************************/\n\n    // Flight status codees\n    uint8 private constant STATUS_CODE_UNKNOWN = 0;\n    uint8 private constant STATUS_CODE_ON_TIME = 10;\n    uint8 private constant STATUS_CODE_LATE_AIRLINE = 20;\n    uint8 private constant STATUS_CODE_LATE_WEATHER = 30;\n    uint8 private constant STATUS_CODE_LATE_TECHNICAL = 40;\n    uint8 private constant STATUS_CODE_LATE_OTHER = 50;\n\n    address private contractOwner;          // Account used to deploy contract\n\n    struct Flight {\n        bool isRegistered;\n        uint8 statusCode;\n        uint256 updatedTimestamp;        \n        address airline;\n    }\n    mapping(bytes32 => Flight) private flights;\n\n    FlightSuretyData flightSuretyData;\n\n \n    /********************************************************************************************/\n    /*                                       FUNCTION MODIFIERS                                 */\n    /********************************************************************************************/\n\n    // Modifiers help avoid duplication of code. They are typically used to validate something\n    // before a function is allowed to be executed.\n\n    /**\n    * @dev Modifier that requires the \"operational\" boolean variable to be \"true\"\n    *      This is used on all state changing functions to pause the contract in \n    *      the event there is an issue that needs to be fixed\n    */\n    modifier requireIsOperational() \n    {\n         // Modify to call data contract's status\n        require(true, \"Contract is currently not operational\");  \n        _;  // All modifiers require an \"_\" which indicates where the function body will be added\n    }\n\n    /**\n    * @dev Modifier that requires the \"ContractOwner\" account to be the function caller\n    */\n    modifier requireContractOwner()\n    {\n        require(msg.sender == contractOwner, \"Caller is not contract owner\");\n        _;\n    }\n\n    /********************************************************************************************/\n    /*                                       CONSTRUCTOR                                        */\n    /********************************************************************************************/\n\n    /**\n    * @dev Contract constructor\n    *\n    */\n    constructor\n                                (\n                                  address payable dataAddress\n                                )\n    {\n        contractOwner = msg.sender;\n        flightSuretyData = FlightSuretyData(dataAddress);\n    }\n\n    /********************************************************************************************/\n    /*                                       UTILITY FUNCTIONS                                  */\n    /********************************************************************************************/\n\n    // function isOperational() \n    //                         public \n    //                         pure \n    //                         returns(bool) \n    // {\n    //     return true;  // Modify to call data contract's status\n    // }\n\n    /********************************************************************************************/\n    /*                                     SMART CONTRACT FUNCTIONS                             */\n    /********************************************************************************************/\n\n   /**\n    * @dev Register a future flight for insuring.\n    *\n    */  \n    function registerFlight (\n                                address airline,\n                                string calldata flight,\n                                uint256 timestamp\n                            )\n    external {\n        flightSuretyData.registerFlight(airline, flight, timestamp);\n    }\n\n    // Generate a request for oracles to fetch flight information\n    function fetchFlightStatus\n                        (\n                            address airline,\n                            string calldata flight,\n                            uint256 timestamp                            \n                        )\n                        external\n    {\n        uint8 index = getRandomIndex(msg.sender);\n\n        // Generate a unique key for storing the request\n        bytes32 key = keccak256(abi.encodePacked(index, airline, flight, timestamp));\n        ResponseInfo storage newResponseInfo = oracleResponses[key];\n        newResponseInfo.requester = msg.sender;\n        newResponseInfo.isOpen = true;\n\n        emit OracleRequest(index, airline, flight, timestamp);\n    } \n\n\n    // region ORACLE MANAGEMENT\n\n    // Incremented to add pseudo-randomness at various points\n    uint8 private nonce = 0;    \n\n    // Fee to be paid when registering oracle\n    uint256 public constant REGISTRATION_FEE = 1 ether;\n\n    // Number of oracles that must respond for valid status\n    uint256 private constant MIN_RESPONSES = 3;\n\n\n    struct Oracle {\n        bool isRegistered;\n        uint8[3] indexes;        \n    }\n\n    // Track all registered oracles\n    mapping(address => Oracle) private oracles;\n\n    // Model for responses from oracles\n    struct ResponseInfo {\n        address requester;                              // Account that requested status\n        bool isOpen;                                    // If open, oracle responses are accepted\n        mapping(uint8 => address[]) responses;          // Mapping key is the status code reported\n                                                        // This lets us group responses and identify\n                                                        // the response that majority of the oracles\n    }\n\n    // Track all oracle responses\n    // Key = hash(index, flight, timestamp)\n    mapping(bytes32 => ResponseInfo) private oracleResponses;\n\n    // Event fired each time an oracle submits a response\n    event FlightStatusInfo(address airline, string flight, uint256 timestamp, uint8 status);\n\n    event OracleReport(address airline, string flight, uint256 timestamp, uint8 status);\n\n    // Event fired when flight status request is submitted\n    // Oracles track this and if they have a matching index\n    // they fetch data and submit a response\n    event OracleRequest(uint8 index, address airline, string flight, uint256 timestamp);\n\n\n    // Register an oracle with the contract\n    function registerOracle\n                            (\n                            )\n                            external\n                            payable\n    {\n        // Require registration fee\n        require(msg.value >= REGISTRATION_FEE, \"Registration fee is required\");\n\n        uint8[3] memory indexes = generateIndexes(msg.sender);\n\n        oracles[msg.sender] = Oracle({\n                                        isRegistered: true,\n                                        indexes: indexes\n                                    });\n    }\n\n    function getMyIndexes\n                            (\n                            )\n                            view\n                            external\n                            returns(uint8[3] memory)\n    {\n        require(oracles[msg.sender].isRegistered, \"Not registered as an oracle\");\n\n        return oracles[msg.sender].indexes;\n    }\n\n\n\n\n    // Called by oracle when a response is available to an outstanding request\n    // For the response to be accepted, there must be a pending request that is open\n    // and matches one of the three Indexes randomly assigned to the oracle at the\n    // time of registration (i.e. uninvited oracles are not welcome)\n    function submitOracleResponse\n                        (\n                            uint8 index,\n                            address airline,\n                            string calldata flight,\n                            uint256 timestamp,\n                            uint8 statusCode\n                        )\n                        external\n    {\n        require((oracles[msg.sender].indexes[0] == index) || (oracles[msg.sender].indexes[1] == index) || (oracles[msg.sender].indexes[2] == index), \"Index does not match oracle request\");\n\n\n        bytes32 key = keccak256(abi.encodePacked(index, airline, flight, timestamp)); \n        require(oracleResponses[key].isOpen, \"Flight or timestamp do not match oracle request\");\n\n        oracleResponses[key].responses[statusCode].push(msg.sender);\n\n        // Information isn't considered verified until at least MIN_RESPONSES\n        // oracles respond with the *** same *** information\n        emit OracleReport(airline, flight, timestamp, statusCode);\n        if (oracleResponses[key].responses[statusCode].length >= MIN_RESPONSES) {\n\n            emit FlightStatusInfo(airline, flight, timestamp, statusCode);\n\n            // Handle flight status as appropriate\n            processFlightStatus(airline, flight, timestamp, statusCode);\n        }\n    }\n\n\n    function getFlightKey\n                        (\n                            address airline,\n                            string calldata flight,\n                            uint256 timestamp\n                        )\n                        pure\n                        internal\n                        returns(bytes32) \n    {\n        return keccak256(abi.encodePacked(airline, flight, timestamp));\n    }\n\n    // Returns array of three non-duplicating integers from 0-9\n    function generateIndexes\n                            (                       \n                                address account         \n                            )\n                            internal\n                            returns(uint8[3] memory)\n    {\n        uint8[3] memory indexes;\n        indexes[0] = getRandomIndex(account);\n        \n        indexes[1] = indexes[0];\n        while(indexes[1] == indexes[0]) {\n            indexes[1] = getRandomIndex(account);\n        }\n\n        indexes[2] = indexes[1];\n        while((indexes[2] == indexes[0]) || (indexes[2] == indexes[1])) {\n            indexes[2] = getRandomIndex(account);\n        }\n\n        return indexes;\n    }\n\n    // Returns array of three non-duplicating integers from 0-9\n    function getRandomIndex\n                            (\n                                address account\n                            )\n                            internal\n                            returns (uint8)\n    {\n        uint8 maxValue = 10;\n\n        // Pseudo random number...the incrementing nonce adds variation\n        uint8 random = uint8(uint256(keccak256(abi.encodePacked(blockhash(block.number - nonce++), account))) % maxValue);\n\n        if (nonce > 250) {\n            nonce = 0;  // Can only fetch blockhashes for last 256 blocks so we adapt\n        }\n\n        return random;\n    }\n\n// endregion\n\n/********************************************************************************************/\n/*                                DATA CONTRACT ENCAPSULATIONS                              */\n/********************************************************************************************/\n\n  // region FlightSuretyData encapsulations\n//   function getAirlineName(address account) external view returns(string memory) {\n//       return flightSuretyData.getAirlineName(account);\n//   }\n//   function getAirlineAccount(address account) external view returns(address) {\n//       return flightSuretyData.getAirlineAccount(account);\n//   }\n//   function getRegistrationStatus(address account) external view returns(bool) {\n//       return flightSuretyData.getRegistrationStatus(account);\n//   }\n//   function getAuthorizationStatus(address account) external view returns(bool) {\n//       return flightSuretyData.getAuthorizationStatus(account);\n//   }\n//   function getOperationalVote(address account) external view returns(bool) {\n//       return flightSuretyData.getOperationalVote(account);\n//   }\n  function registerAirline(address newAirline, string calldata name) external{\n      return flightSuretyData.registerAirline(newAirline, name);\n  }\n//   function getAuthorizedAirlineCount() external view returns(uint256) {\n//       return flightSuretyData.getAuthorizedAirlineCount();\n//   }\n  function fund(address owner) public payable {\n      flightSuretyData.fund{value: msg.value}(owner);\n  }\n\n  function buy(address _passengerAddress, address airline,\n               string calldata flight,\n               uint256 timestamp) public payable {\n      flightSuretyData.buy{value: msg.value}({_passengerAddress: _passengerAddress, \n        airline: airline, flight: flight, timestamp: timestamp});\n  }\n\n    function processFlightStatus(\n                                    address airline,\n                                    string memory flight,\n                                    uint256 timestamp,\n                                    uint8 statusCode\n                                )\n    internal {\n        flightSuretyData.updateFlightStatus(airline, flight, timestamp, statusCode);\n        if(statusCode != STATUS_CODE_ON_TIME){\n             flightSuretyData.creditInsurees(airline, flight, timestamp);\n        }\n    }\n\n  //utility function\n  function isOperational() external view returns(bool) {\n        return flightSuretyData.isOperational();\n  }\n\n  function pay() external {\n        flightSuretyData.pay(payable(msg.sender));\n  }\n\n\n}   \n\n\n\n\n\n\n/********************************************************************************************/\n/*                                    DATA CONTRACT INTERFACE                               */\n/********************************************************************************************/\n\n// contract FlightSuretyDataProxy {\n\n//     // function getAirlineName(address airline) external view returns(string memory){}\n//     // function getAirlineAccount(address airline) external view returns(address){}\n//     // function getRegistrationStatus(address airline) external view returns(bool){}\n//     // function getAuthorizationStatus(address airline) external view returns(bool){}\n//     // function getOperationalVote(address airline) external view returns(bool){}\n//     function isOperational() external view returns(bool){}\n//     function registerAirline(address newAirline, string calldata name) external{}\n//     // function getAuthorizedAirlineCount() external view returns(uint256){}\n//     function fund(address owner) public payable {}\n//     function buy(address passengerAddress, address airline, string calldata flight, uint256 timestamp) public payable {}\n// }",
  "sourcePath": "/Users/leehodgkinson/IdeaProjects/MyFlightSurety/contracts/FlightSuretyApp.sol",
  "compiler": {
    "name": "solc",
    "version": "0.8.17+commit.8df45f5f.Emscripten.clang"
  },
  "schemaVersion": "3.4.9",
  "updatedAt": "2022-10-22T01:22:38.170Z",
  "devdoc": {
    "kind": "dev",
    "methods": {
      "constructor": {
        "details": "Contract constructor"
      },
      "registerFlight(address,string,uint256)": {
        "details": "Register a future flight for insuring."
      }
    },
    "version": 1
  },
  "userdoc": {
    "kind": "user",
    "methods": {},
    "version": 1
  }
}