{
  "contractName": "FlightSuretyApp",
  "abi": [
    {
      "inputs": [
        {
          "internalType": "address",
          "name": "dataAddress",
          "type": "address"
        }
      ],
      "stateMutability": "nonpayable",
      "type": "constructor"
    },
    {
      "anonymous": false,
      "inputs": [
        {
          "indexed": false,
          "internalType": "address",
          "name": "airline",
          "type": "address"
        },
        {
          "indexed": false,
          "internalType": "string",
          "name": "flight",
          "type": "string"
        },
        {
          "indexed": false,
          "internalType": "uint256",
          "name": "timestamp",
          "type": "uint256"
        },
        {
          "indexed": false,
          "internalType": "uint8",
          "name": "status",
          "type": "uint8"
        }
      ],
      "name": "FlightStatusInfo",
      "type": "event"
    },
    {
      "anonymous": false,
      "inputs": [
        {
          "indexed": false,
          "internalType": "address",
          "name": "airline",
          "type": "address"
        },
        {
          "indexed": false,
          "internalType": "string",
          "name": "flight",
          "type": "string"
        },
        {
          "indexed": false,
          "internalType": "uint256",
          "name": "timestamp",
          "type": "uint256"
        },
        {
          "indexed": false,
          "internalType": "uint8",
          "name": "status",
          "type": "uint8"
        }
      ],
      "name": "OracleReport",
      "type": "event"
    },
    {
      "anonymous": false,
      "inputs": [
        {
          "indexed": false,
          "internalType": "uint8",
          "name": "index",
          "type": "uint8"
        },
        {
          "indexed": false,
          "internalType": "address",
          "name": "airline",
          "type": "address"
        },
        {
          "indexed": false,
          "internalType": "string",
          "name": "flight",
          "type": "string"
        },
        {
          "indexed": false,
          "internalType": "uint256",
          "name": "timestamp",
          "type": "uint256"
        }
      ],
      "name": "OracleRequest",
      "type": "event"
    },
    {
      "inputs": [],
      "name": "REGISTRATION_FEE",
      "outputs": [
        {
          "internalType": "uint256",
          "name": "",
          "type": "uint256"
        }
      ],
      "stateMutability": "view",
      "type": "function"
    },
    {
      "inputs": [],
      "name": "registerFlight",
      "outputs": [],
      "stateMutability": "pure",
      "type": "function"
    },
    {
      "inputs": [
        {
          "internalType": "address",
          "name": "airline",
          "type": "address"
        },
        {
          "internalType": "string",
          "name": "flight",
          "type": "string"
        },
        {
          "internalType": "uint256",
          "name": "timestamp",
          "type": "uint256"
        }
      ],
      "name": "fetchFlightStatus",
      "outputs": [],
      "stateMutability": "nonpayable",
      "type": "function"
    },
    {
      "inputs": [],
      "name": "registerOracle",
      "outputs": [],
      "stateMutability": "payable",
      "type": "function"
    },
    {
      "inputs": [],
      "name": "getMyIndexes",
      "outputs": [
        {
          "internalType": "uint8[3]",
          "name": "",
          "type": "uint8[3]"
        }
      ],
      "stateMutability": "view",
      "type": "function"
    },
    {
      "inputs": [
        {
          "internalType": "uint8",
          "name": "index",
          "type": "uint8"
        },
        {
          "internalType": "address",
          "name": "airline",
          "type": "address"
        },
        {
          "internalType": "string",
          "name": "flight",
          "type": "string"
        },
        {
          "internalType": "uint256",
          "name": "timestamp",
          "type": "uint256"
        },
        {
          "internalType": "uint8",
          "name": "statusCode",
          "type": "uint8"
        }
      ],
      "name": "submitOracleResponse",
      "outputs": [],
      "stateMutability": "nonpayable",
      "type": "function"
    },
    {
      "inputs": [],
      "name": "registerAirline",
      "outputs": [
        {
          "internalType": "bool",
          "name": "success",
          "type": "bool"
        },
        {
          "internalType": "uint256",
          "name": "votes",
          "type": "uint256"
        }
      ],
      "stateMutability": "pure",
      "type": "function"
    },
    {
      "inputs": [
        {
          "internalType": "address",
          "name": "newAirline",
          "type": "address"
        },
        {
          "internalType": "string",
          "name": "name",
          "type": "string"
        }
      ],
      "name": "registerAirline",
      "outputs": [],
      "stateMutability": "nonpayable",
      "type": "function"
    },
    {
      "inputs": [
        {
          "internalType": "address",
          "name": "owner",
          "type": "address"
        }
      ],
      "name": "fund",
      "outputs": [],
      "stateMutability": "payable",
      "type": "function"
    },
    {
      "inputs": [],
      "name": "isOperational",
      "outputs": [
        {
          "internalType": "bool",
          "name": "",
          "type": "bool"
        }
      ],
      "stateMutability": "view",
      "type": "function"
    }
  ],
  "bytecode": "0x60806040526000600260146101000a81548160ff021916908360ff1602179055503480156200002d57600080fd5b5060405162001a9738038062001a97833981810160405281019062000053919062000145565b336000806101000a81548173ffffffffffffffffffffffffffffffffffffffff021916908373ffffffffffffffffffffffffffffffffffffffff16021790555080600260006101000a81548173ffffffffffffffffffffffffffffffffffffffff021916908373ffffffffffffffffffffffffffffffffffffffff1602179055505062000177565b600080fd5b600073ffffffffffffffffffffffffffffffffffffffff82169050919050565b60006200010d82620000e0565b9050919050565b6200011f8162000100565b81146200012b57600080fd5b50565b6000815190506200013f8162000114565b92915050565b6000602082840312156200015e576200015d620000db565b5b60006200016e848285016200012e565b91505092915050565b61191080620001876000396000f3fe6080604052600436106100915760003560e01c8063ae6f17e011610059578063ae6f17e01461013e578063c10f270014610155578063cd905dff1461017e578063ee38a749146101a9578063f83f11c0146101d257610091565b80632302440814610096578063339d2590146100b25780635f1cc0e6146100bc57806363e29a3f146100e757806364b4f75114610113575b600080fd5b6100b060048036038101906100ab9190610ed5565b6101fb565b005b6100ba61028c565b005b3480156100c857600080fd5b506100d1610379565b6040516100de9190610fba565b60405180910390f35b3480156100f357600080fd5b506100fc6104b9565b60405161010a929190611009565b60405180910390f35b34801561011f57600080fd5b506101286104c7565b6040516101359190611032565b60405180910390f35b34801561014a57600080fd5b506101536104d3565b005b34801561016157600080fd5b5061017c6004803603810190610177919061110a565b6104d5565b005b34801561018a57600080fd5b506101936108af565b6040516101a091906111a4565b60405180910390f35b3480156101b557600080fd5b506101d060048036038101906101cb91906111bf565b610947565b005b3480156101de57600080fd5b506101f960048036038101906101f4919061121f565b6109dd565b005b600260009054906101000a900473ffffffffffffffffffffffffffffffffffffffff1673ffffffffffffffffffffffffffffffffffffffff16632302440834836040518363ffffffff1660e01b815260040161025791906112a2565b6000604051808303818588803b15801561027057600080fd5b505af1158015610284573d6000803e3d6000fd5b505050505050565b670de0b6b3a76400003410156102d7576040517f08c379a00000000000000000000000000000000000000000000000000000000081526004016102ce9061131a565b60405180910390fd5b60006102e233610adc565b9050604051806040016040528060011515815260200182815250600360003373ffffffffffffffffffffffffffffffffffffffff1673ffffffffffffffffffffffffffffffffffffffff16815260200190815260200160002060008201518160000160006101000a81548160ff021916908315150217905550602082015181600101906003610372929190610d94565b5090505050565b610381610e2e565b600360003373ffffffffffffffffffffffffffffffffffffffff1673ffffffffffffffffffffffffffffffffffffffff16815260200190815260200160002060000160009054906101000a900460ff16610410576040517f08c379a000000000000000000000000000000000000000000000000000000000815260040161040790611386565b60405180910390fd5b600360003373ffffffffffffffffffffffffffffffffffffffff1673ffffffffffffffffffffffffffffffffffffffff1681526020019081526020016000206001016003806020026040519081016040528092919082600380156104af576020028201916000905b82829054906101000a900460ff1660ff16815260200190600101906020826000010492830192600103820291508084116104785790505b5050505050905090565b600080816000915091509091565b670de0b6b3a764000081565b565b8560ff16600360003373ffffffffffffffffffffffffffffffffffffffff1673ffffffffffffffffffffffffffffffffffffffff16815260200190815260200160002060010160006003811061052e5761052d6113a6565b5b602091828204019190069054906101000a900460ff1660ff1614806105c257508560ff16600360003373ffffffffffffffffffffffffffffffffffffffff1673ffffffffffffffffffffffffffffffffffffffff1681526020019081526020016000206001016001600381106105a7576105a66113a6565b5b602091828204019190069054906101000a900460ff1660ff16145b8061063c57508560ff16600360003373ffffffffffffffffffffffffffffffffffffffff1673ffffffffffffffffffffffffffffffffffffffff168152602001908152602001600020600101600260038110610621576106206113a6565b5b602091828204019190069054906101000a900460ff1660ff16145b61067b576040517f08c379a000000000000000000000000000000000000000000000000000000000815260040161067290611447565b60405180910390fd5b60008686868686604051602001610696959493929190611545565b6040516020818303038152906040528051906020012090506004600082815260200190815260200160002060000160149054906101000a900460ff16610711576040517f08c379a000000000000000000000000000000000000000000000000000000000815260040161070890611603565b60405180910390fd5b6004600082815260200190815260200160002060010160008360ff1660ff168152602001908152602001600020339080600181540180825580915050600190039060005260206000200160009091909190916101000a81548173ffffffffffffffffffffffffffffffffffffffff021916908373ffffffffffffffffffffffffffffffffffffffff1602179055507f43c853095c2752648493c88b4baac4d580d2594ffb00c6f1d4242d844514f78386868686866040516107d6959493929190611670565b60405180910390a160036004600083815260200190815260200160002060010160008460ff1660ff16815260200190815260200160002080549050106108a6577fe23f5229de535c091e3b7bec2665f5d698192d3b31393066e8987b7a05076b6c868686868660405161084d959493929190611670565b60405180910390a16108a58686868080601f016020809104026020016040519081016040528093929190818152602001838380828437600081840152601f19601f820116905080830192505050505050508585610cc2565b5b50505050505050565b6000600260009054906101000a900473ffffffffffffffffffffffffffffffffffffffff1673ffffffffffffffffffffffffffffffffffffffff1663cd905dff6040518163ffffffff1660e01b8152600401602060405180830381865afa15801561091e573d6000803e3d6000fd5b505050506040513d601f19601f8201168201806040525081019061094291906116ea565b905090565b600260009054906101000a900473ffffffffffffffffffffffffffffffffffffffff1673ffffffffffffffffffffffffffffffffffffffff1663ee38a7498484846040518463ffffffff1660e01b81526004016109a693929190611717565b600060405180830381600087803b1580156109c057600080fd5b505af11580156109d4573d6000803e3d6000fd5b50505050505050565b60006109e833610cc8565b905060008186868686604051602001610a05959493929190611545565b6040516020818303038152906040528051906020012090506000600460008381526020019081526020016000209050338160000160006101000a81548173ffffffffffffffffffffffffffffffffffffffff021916908373ffffffffffffffffffffffffffffffffffffffff16021790555060018160000160146101000a81548160ff0219169083151502179055507f3ed01f2c3fc24c6b329d931e35b03e390d23497d22b3f90e15b600343e93df118388888888604051610acb959493929190611749565b60405180910390a150505050505050565b610ae4610e2e565b610aec610e2e565b610af583610cc8565b81600060038110610b0957610b086113a6565b5b602002019060ff16908160ff168152505080600060038110610b2e57610b2d6113a6565b5b602002015181600160038110610b4757610b466113a6565b5b602002019060ff16908160ff16815250505b80600060038110610b6d57610b6c6113a6565b5b602002015160ff1681600160038110610b8957610b886113a6565b5b602002015160ff1603610bc957610b9f83610cc8565b81600160038110610bb357610bb26113a6565b5b602002019060ff16908160ff1681525050610b59565b80600160038110610bdd57610bdc6113a6565b5b602002015181600260038110610bf657610bf56113a6565b5b602002019060ff16908160ff16815250505b80600060038110610c1c57610c1b6113a6565b5b602002015160ff1681600260038110610c3857610c376113a6565b5b602002015160ff161480610c81575080600160038110610c5b57610c5a6113a6565b5b602002015160ff1681600260038110610c7757610c766113a6565b5b602002015160ff16145b15610cb957610c8f83610cc8565b81600260038110610ca357610ca26113a6565b5b602002019060ff16908160ff1681525050610c08565b80915050919050565b50505050565b600080600a905060008160ff166002601481819054906101000a900460ff1680929190610cf4906117c6565b91906101000a81548160ff021916908360ff16021790555060ff1643610d1a91906117ef565b4085604051602001610d2d92919061184e565b6040516020818303038152906040528051906020012060001c610d5091906118a9565b905060fa600260149054906101000a900460ff1660ff161115610d8a576000600260146101000a81548160ff021916908360ff1602179055505b8092505050919050565b826003601f01602090048101928215610e1d5791602002820160005b83821115610dee57835183826101000a81548160ff021916908360ff1602179055509260200192600101602081600001049283019260010302610db0565b8015610e1b5782816101000a81549060ff0219169055600101602081600001049283019260010302610dee565b505b509050610e2a9190610e50565b5090565b6040518060600160405280600390602082028036833780820191505090505090565b5b80821115610e69576000816000905550600101610e51565b5090565b600080fd5b600080fd5b600073ffffffffffffffffffffffffffffffffffffffff82169050919050565b6000610ea282610e77565b9050919050565b610eb281610e97565b8114610ebd57600080fd5b50565b600081359050610ecf81610ea9565b92915050565b600060208284031215610eeb57610eea610e6d565b5b6000610ef984828501610ec0565b91505092915050565b600060039050919050565b600081905092915050565b6000819050919050565b600060ff82169050919050565b610f3881610f22565b82525050565b6000610f4a8383610f2f565b60208301905092915050565b6000602082019050919050565b610f6c81610f02565b610f768184610f0d565b9250610f8182610f18565b8060005b83811015610fb2578151610f998782610f3e565b9650610fa483610f56565b925050600181019050610f85565b505050505050565b6000606082019050610fcf6000830184610f63565b92915050565b60008115159050919050565b610fea81610fd5565b82525050565b6000819050919050565b61100381610ff0565b82525050565b600060408201905061101e6000830185610fe1565b61102b6020830184610ffa565b9392505050565b60006020820190506110476000830184610ffa565b92915050565b61105681610f22565b811461106157600080fd5b50565b6000813590506110738161104d565b92915050565b600080fd5b600080fd5b600080fd5b60008083601f84011261109e5761109d611079565b5b8235905067ffffffffffffffff8111156110bb576110ba61107e565b5b6020830191508360018202830111156110d7576110d6611083565b5b9250929050565b6110e781610ff0565b81146110f257600080fd5b50565b600081359050611104816110de565b92915050565b60008060008060008060a0878903121561112757611126610e6d565b5b600061113589828a01611064565b965050602061114689828a01610ec0565b955050604087013567ffffffffffffffff81111561116757611166610e72565b5b61117389828a01611088565b9450945050606061118689828a016110f5565b925050608061119789828a01611064565b9150509295509295509295565b60006020820190506111b96000830184610fe1565b92915050565b6000806000604084860312156111d8576111d7610e6d565b5b60006111e686828701610ec0565b935050602084013567ffffffffffffffff81111561120757611206610e72565b5b61121386828701611088565b92509250509250925092565b6000806000806060858703121561123957611238610e6d565b5b600061124787828801610ec0565b945050602085013567ffffffffffffffff81111561126857611267610e72565b5b61127487828801611088565b93509350506040611287878288016110f5565b91505092959194509250565b61129c81610e97565b82525050565b60006020820190506112b76000830184611293565b92915050565b600082825260208201905092915050565b7f526567697374726174696f6e2066656520697320726571756972656400000000600082015250565b6000611304601c836112bd565b915061130f826112ce565b602082019050919050565b60006020820190508181036000830152611333816112f7565b9050919050565b7f4e6f74207265676973746572656420617320616e206f7261636c650000000000600082015250565b6000611370601b836112bd565b915061137b8261133a565b602082019050919050565b6000602082019050818103600083015261139f81611363565b9050919050565b7f4e487b7100000000000000000000000000000000000000000000000000000000600052603260045260246000fd5b7f496e64657820646f6573206e6f74206d61746368206f7261636c65207265717560008201527f6573740000000000000000000000000000000000000000000000000000000000602082015250565b60006114316023836112bd565b915061143c826113d5565b604082019050919050565b6000602082019050818103600083015261146081611424565b9050919050565b60008160f81b9050919050565b600061147f82611467565b9050919050565b61149761149282610f22565b611474565b82525050565b60008160601b9050919050565b60006114b58261149d565b9050919050565b60006114c7826114aa565b9050919050565b6114df6114da82610e97565b6114bc565b82525050565b600081905092915050565b82818337600083830152505050565b600061150b83856114e5565b93506115188385846114f0565b82840190509392505050565b6000819050919050565b61153f61153a82610ff0565b611524565b82525050565b60006115518288611486565b60018201915061156182876114ce565b6014820191506115728285876114ff565b915061157e828461152e565b6020820191508190509695505050505050565b7f466c69676874206f722074696d657374616d7020646f206e6f74206d6174636860008201527f206f7261636c6520726571756573740000000000000000000000000000000000602082015250565b60006115ed602f836112bd565b91506115f882611591565b604082019050919050565b6000602082019050818103600083015261161c816115e0565b9050919050565b6000601f19601f8301169050919050565b600061164083856112bd565b935061164d8385846114f0565b61165683611623565b840190509392505050565b61166a81610f22565b82525050565b60006080820190506116856000830188611293565b8181036020830152611698818688611634565b90506116a76040830185610ffa565b6116b46060830184611661565b9695505050505050565b6116c781610fd5565b81146116d257600080fd5b50565b6000815190506116e4816116be565b92915050565b600060208284031215611700576116ff610e6d565b5b600061170e848285016116d5565b91505092915050565b600060408201905061172c6000830186611293565b818103602083015261173f818486611634565b9050949350505050565b600060808201905061175e6000830188611661565b61176b6020830187611293565b818103604083015261177e818587611634565b905061178d6060830184610ffa565b9695505050505050565b7f4e487b7100000000000000000000000000000000000000000000000000000000600052601160045260246000fd5b60006117d182610f22565b915060ff82036117e4576117e3611797565b5b600182019050919050565b60006117fa82610ff0565b915061180583610ff0565b925082820390508181111561181d5761181c611797565b5b92915050565b6000819050919050565b6000819050919050565b61184861184382611823565b61182d565b82525050565b600061185a8285611837565b60208201915061186a82846114ce565b6014820191508190509392505050565b7f4e487b7100000000000000000000000000000000000000000000000000000000600052601260045260246000fd5b60006118b482610ff0565b91506118bf83610ff0565b9250826118cf576118ce61187a565b5b82820690509291505056fea2646970667358221220424226214f624e66a4c47ef88f4cd465f171f83ed1320a7a5d9a239e699209bc64736f6c63430008110033",
  "immutableReferences": {},
  "source": "// SPDX-License-Identifier: MIT\npragma solidity ^0.8.17;\n\n// SafeMath built-in in later Sol\n\n/************************************************** */\n/* FlightSurety Smart Contract                      */\n/************************************************** */\ncontract FlightSuretyApp {\n\n    /********************************************************************************************/\n    /*                                       DATA VARIABLES                                     */\n    /********************************************************************************************/\n\n    // Flight status codees\n    uint8 private constant STATUS_CODE_UNKNOWN = 0;\n    uint8 private constant STATUS_CODE_ON_TIME = 10;\n    uint8 private constant STATUS_CODE_LATE_AIRLINE = 20;\n    uint8 private constant STATUS_CODE_LATE_WEATHER = 30;\n    uint8 private constant STATUS_CODE_LATE_TECHNICAL = 40;\n    uint8 private constant STATUS_CODE_LATE_OTHER = 50;\n\n    address private contractOwner;          // Account used to deploy contract\n\n    struct Flight {\n        bool isRegistered;\n        uint8 statusCode;\n        uint256 updatedTimestamp;        \n        address airline;\n    }\n    mapping(bytes32 => Flight) private flights;\n\n    FlightSuretyData flightSuretyData;\n\n \n    /********************************************************************************************/\n    /*                                       FUNCTION MODIFIERS                                 */\n    /********************************************************************************************/\n\n    // Modifiers help avoid duplication of code. They are typically used to validate something\n    // before a function is allowed to be executed.\n\n    /**\n    * @dev Modifier that requires the \"operational\" boolean variable to be \"true\"\n    *      This is used on all state changing functions to pause the contract in \n    *      the event there is an issue that needs to be fixed\n    */\n    modifier requireIsOperational() \n    {\n         // Modify to call data contract's status\n        require(true, \"Contract is currently not operational\");  \n        _;  // All modifiers require an \"_\" which indicates where the function body will be added\n    }\n\n    /**\n    * @dev Modifier that requires the \"ContractOwner\" account to be the function caller\n    */\n    modifier requireContractOwner()\n    {\n        require(msg.sender == contractOwner, \"Caller is not contract owner\");\n        _;\n    }\n\n    /********************************************************************************************/\n    /*                                       CONSTRUCTOR                                        */\n    /********************************************************************************************/\n\n    /**\n    * @dev Contract constructor\n    *\n    */\n    constructor\n                                (\n                                  address dataAddress\n                                )\n    {\n        contractOwner = msg.sender;\n        flightSuretyData = FlightSuretyData(dataAddress);\n    }\n\n    /********************************************************************************************/\n    /*                                       UTILITY FUNCTIONS                                  */\n    /********************************************************************************************/\n\n    // function isOperational() \n    //                         public \n    //                         pure \n    //                         returns(bool) \n    // {\n    //     return true;  // Modify to call data contract's status\n    // }\n\n    /********************************************************************************************/\n    /*                                     SMART CONTRACT FUNCTIONS                             */\n    /********************************************************************************************/\n\n  \n   /**\n    * @dev Add an airline to the registration queue\n    *\n    */   \n    function registerAirline\n                            (   \n                            )\n                            external\n                            pure\n                            returns(bool success, uint256 votes)\n    {\n        return (success, 0);\n    }\n\n\n   /**\n    * @dev Register a future flight for insuring.\n    *\n    */  \n    function registerFlight\n                                (\n                                )\n                                external\n                                pure\n    {\n\n    }\n    \n   /**\n    * @dev Called after oracle has updated flight status\n    *\n    */  \n    function processFlightStatus\n                                (\n                                    address airline,\n                                    string memory flight,\n                                    uint256 timestamp,\n                                    uint8 statusCode\n                                )\n                                internal\n                                pure\n    {\n    }\n\n\n    // Generate a request for oracles to fetch flight information\n    function fetchFlightStatus\n                        (\n                            address airline,\n                            string calldata flight,\n                            uint256 timestamp                            \n                        )\n                        external\n    {\n        uint8 index = getRandomIndex(msg.sender);\n\n        // Generate a unique key for storing the request\n        bytes32 key = keccak256(abi.encodePacked(index, airline, flight, timestamp));\n        ResponseInfo storage newResponseInfo = oracleResponses[key];\n        newResponseInfo.requester = msg.sender;\n        newResponseInfo.isOpen = true;\n\n        emit OracleRequest(index, airline, flight, timestamp);\n    } \n\n\n// region ORACLE MANAGEMENT\n\n    // Incremented to add pseudo-randomness at various points\n    uint8 private nonce = 0;    \n\n    // Fee to be paid when registering oracle\n    uint256 public constant REGISTRATION_FEE = 1 ether;\n\n    // Number of oracles that must respond for valid status\n    uint256 private constant MIN_RESPONSES = 3;\n\n\n    struct Oracle {\n        bool isRegistered;\n        uint8[3] indexes;        \n    }\n\n    // Track all registered oracles\n    mapping(address => Oracle) private oracles;\n\n    // Model for responses from oracles\n    struct ResponseInfo {\n        address requester;                              // Account that requested status\n        bool isOpen;                                    // If open, oracle responses are accepted\n        mapping(uint8 => address[]) responses;          // Mapping key is the status code reported\n                                                        // This lets us group responses and identify\n                                                        // the response that majority of the oracles\n    }\n\n    // Track all oracle responses\n    // Key = hash(index, flight, timestamp)\n    mapping(bytes32 => ResponseInfo) private oracleResponses;\n\n    // Event fired each time an oracle submits a response\n    event FlightStatusInfo(address airline, string flight, uint256 timestamp, uint8 status);\n\n    event OracleReport(address airline, string flight, uint256 timestamp, uint8 status);\n\n    // Event fired when flight status request is submitted\n    // Oracles track this and if they have a matching index\n    // they fetch data and submit a response\n    event OracleRequest(uint8 index, address airline, string flight, uint256 timestamp);\n\n\n    // Register an oracle with the contract\n    function registerOracle\n                            (\n                            )\n                            external\n                            payable\n    {\n        // Require registration fee\n        require(msg.value >= REGISTRATION_FEE, \"Registration fee is required\");\n\n        uint8[3] memory indexes = generateIndexes(msg.sender);\n\n        oracles[msg.sender] = Oracle({\n                                        isRegistered: true,\n                                        indexes: indexes\n                                    });\n    }\n\n    function getMyIndexes\n                            (\n                            )\n                            view\n                            external\n                            returns(uint8[3] memory)\n    {\n        require(oracles[msg.sender].isRegistered, \"Not registered as an oracle\");\n\n        return oracles[msg.sender].indexes;\n    }\n\n\n\n\n    // Called by oracle when a response is available to an outstanding request\n    // For the response to be accepted, there must be a pending request that is open\n    // and matches one of the three Indexes randomly assigned to the oracle at the\n    // time of registration (i.e. uninvited oracles are not welcome)\n    function submitOracleResponse\n                        (\n                            uint8 index,\n                            address airline,\n                            string calldata flight,\n                            uint256 timestamp,\n                            uint8 statusCode\n                        )\n                        external\n    {\n        require((oracles[msg.sender].indexes[0] == index) || (oracles[msg.sender].indexes[1] == index) || (oracles[msg.sender].indexes[2] == index), \"Index does not match oracle request\");\n\n\n        bytes32 key = keccak256(abi.encodePacked(index, airline, flight, timestamp)); \n        require(oracleResponses[key].isOpen, \"Flight or timestamp do not match oracle request\");\n\n        oracleResponses[key].responses[statusCode].push(msg.sender);\n\n        // Information isn't considered verified until at least MIN_RESPONSES\n        // oracles respond with the *** same *** information\n        emit OracleReport(airline, flight, timestamp, statusCode);\n        if (oracleResponses[key].responses[statusCode].length >= MIN_RESPONSES) {\n\n            emit FlightStatusInfo(airline, flight, timestamp, statusCode);\n\n            // Handle flight status as appropriate\n            processFlightStatus(airline, flight, timestamp, statusCode);\n        }\n    }\n\n\n    function getFlightKey\n                        (\n                            address airline,\n                            string calldata flight,\n                            uint256 timestamp\n                        )\n                        pure\n                        internal\n                        returns(bytes32) \n    {\n        return keccak256(abi.encodePacked(airline, flight, timestamp));\n    }\n\n    // Returns array of three non-duplicating integers from 0-9\n    function generateIndexes\n                            (                       \n                                address account         \n                            )\n                            internal\n                            returns(uint8[3] memory)\n    {\n        uint8[3] memory indexes;\n        indexes[0] = getRandomIndex(account);\n        \n        indexes[1] = indexes[0];\n        while(indexes[1] == indexes[0]) {\n            indexes[1] = getRandomIndex(account);\n        }\n\n        indexes[2] = indexes[1];\n        while((indexes[2] == indexes[0]) || (indexes[2] == indexes[1])) {\n            indexes[2] = getRandomIndex(account);\n        }\n\n        return indexes;\n    }\n\n    // Returns array of three non-duplicating integers from 0-9\n    function getRandomIndex\n                            (\n                                address account\n                            )\n                            internal\n                            returns (uint8)\n    {\n        uint8 maxValue = 10;\n\n        // Pseudo random number...the incrementing nonce adds variation\n        uint8 random = uint8(uint256(keccak256(abi.encodePacked(blockhash(block.number - nonce++), account))) % maxValue);\n\n        if (nonce > 250) {\n            nonce = 0;  // Can only fetch blockhashes for last 256 blocks so we adapt\n        }\n\n        return random;\n    }\n\n// endregion\n\n/********************************************************************************************/\n/*                                DATA CONTRACT ENCAPSULATIONS                              */\n/********************************************************************************************/\n\n  // region FlightSuretyData encapsulations\n//   function getAirlineName(address account) external view returns(string memory) {\n//       return flightSuretyData.getAirlineName(account);\n//   }\n//   function getAirlineAccount(address account) external view returns(address) {\n//       return flightSuretyData.getAirlineAccount(account);\n//   }\n//   function getRegistrationStatus(address account) external view returns(bool) {\n//       return flightSuretyData.getRegistrationStatus(account);\n//   }\n//   function getAuthorizationStatus(address account) external view returns(bool) {\n//       return flightSuretyData.getAuthorizationStatus(account);\n//   }\n//   function getOperationalVote(address account) external view returns(bool) {\n//       return flightSuretyData.getOperationalVote(account);\n//   }\n  function registerAirline(address newAirline, string calldata name) external{\n      return flightSuretyData.registerAirline(newAirline, name);\n  }\n//   function getAuthorizedAirlineCount() external view returns(uint256) {\n//       return flightSuretyData.getAuthorizedAirlineCount();\n//   }\n  function fund(address owner) public payable {\n      flightSuretyData.fund{value: msg.value }(owner);\n  }\n\n  //utility function\n  function isOperational() external view returns(bool) {\n        return flightSuretyData.isOperational();\n  }\n\n}   \n\n\n\n\n\n\n/********************************************************************************************/\n/*                                    DATA CONTRACT INTERFACE                               */\n/********************************************************************************************/\n\ncontract FlightSuretyData {\n\n    // function getAirlineName(address airline) external view returns(string memory){}\n    // function getAirlineAccount(address airline) external view returns(address){}\n    // function getRegistrationStatus(address airline) external view returns(bool){}\n    // function getAuthorizationStatus(address airline) external view returns(bool){}\n    // function getOperationalVote(address airline) external view returns(bool){}\n    function isOperational() external view returns(bool){}\n    function registerAirline(address newAirline, string calldata name) external{}\n    // function getAuthorizedAirlineCount() external view returns(uint256){}\n    function fund(address owner) public payable {}\n}",
  "sourcePath": "/Users/leehodgkinson/IdeaProjects/MyFlightSurety/contracts/FlightSuretyApp.sol",
  "compiler": {
    "name": "solc",
    "version": "0.8.17+commit.8df45f5f.Emscripten.clang"
  },
  "schemaVersion": "3.4.10",
  "updatedAt": "2022-10-14T04:34:15.051Z",
  "devdoc": {
    "kind": "dev",
    "methods": {
      "constructor": {
        "details": "Contract constructor"
      },
      "registerAirline()": {
        "details": "Add an airline to the registration queue"
      },
      "registerFlight()": {
        "details": "Register a future flight for insuring."
      }
    },
    "version": 1
  },
  "userdoc": {
    "kind": "user",
    "methods": {},
    "version": 1
  }
}