{
  "contractName": "FlightSuretyData",
  "abi": [
    {
      "inputs": [
        {
          "internalType": "address",
          "name": "airlineAddress",
          "type": "address"
        }
      ],
      "stateMutability": "nonpayable",
      "type": "constructor"
    },
    {
      "anonymous": false,
      "inputs": [
        {
          "indexed": false,
          "internalType": "address",
          "name": "newAirlineAddress",
          "type": "address"
        },
        {
          "indexed": false,
          "internalType": "uint256",
          "name": "votesCount",
          "type": "uint256"
        },
        {
          "indexed": false,
          "internalType": "uint256",
          "name": "airlinesCount",
          "type": "uint256"
        }
      ],
      "name": "AchievedMultiPartyConsensus",
      "type": "event"
    },
    {
      "anonymous": false,
      "inputs": [
        {
          "indexed": false,
          "internalType": "address",
          "name": "airline",
          "type": "address"
        },
        {
          "indexed": false,
          "internalType": "uint256",
          "name": "amount",
          "type": "uint256"
        },
        {
          "indexed": false,
          "internalType": "bool",
          "name": "isRegistered",
          "type": "bool"
        },
        {
          "indexed": false,
          "internalType": "bool",
          "name": "isFunded",
          "type": "bool"
        }
      ],
      "name": "AirlineFunded",
      "type": "event"
    },
    {
      "anonymous": false,
      "inputs": [
        {
          "indexed": false,
          "internalType": "address",
          "name": "airlineAddress",
          "type": "address"
        },
        {
          "indexed": false,
          "internalType": "string",
          "name": "name",
          "type": "string"
        },
        {
          "indexed": false,
          "internalType": "uint256",
          "name": "funds",
          "type": "uint256"
        },
        {
          "indexed": false,
          "internalType": "bool",
          "name": "isRegistered",
          "type": "bool"
        },
        {
          "indexed": false,
          "internalType": "bool",
          "name": "isFunded",
          "type": "bool"
        }
      ],
      "name": "AirlineRegistered",
      "type": "event"
    },
    {
      "anonymous": false,
      "inputs": [
        {
          "indexed": false,
          "internalType": "address",
          "name": "receiver",
          "type": "address"
        },
        {
          "indexed": false,
          "internalType": "uint256",
          "name": "amount",
          "type": "uint256"
        },
        {
          "indexed": false,
          "internalType": "address",
          "name": "sender",
          "type": "address"
        }
      ],
      "name": "FundsReceived",
      "type": "event"
    },
    {
      "anonymous": false,
      "inputs": [
        {
          "indexed": false,
          "internalType": "address",
          "name": "newAirlineAddress",
          "type": "address"
        },
        {
          "indexed": false,
          "internalType": "uint256",
          "name": "votesCount",
          "type": "uint256"
        },
        {
          "indexed": false,
          "internalType": "uint256",
          "name": "airlinesCount",
          "type": "uint256"
        }
      ],
      "name": "NotYetAchievedMultiPartyConsensus",
      "type": "event"
    },
    {
      "anonymous": false,
      "inputs": [
        {
          "indexed": false,
          "internalType": "address",
          "name": "passenger",
          "type": "address"
        },
        {
          "indexed": false,
          "internalType": "uint256",
          "name": "amount",
          "type": "uint256"
        }
      ],
      "name": "PassengerCredited",
      "type": "event"
    },
    {
      "anonymous": false,
      "inputs": [
        {
          "indexed": false,
          "internalType": "address",
          "name": "passenger",
          "type": "address"
        },
        {
          "indexed": false,
          "internalType": "uint256",
          "name": "amount",
          "type": "uint256"
        },
        {
          "indexed": false,
          "internalType": "address",
          "name": "sender",
          "type": "address"
        },
        {
          "indexed": false,
          "internalType": "uint256",
          "name": "contractBalance",
          "type": "uint256"
        }
      ],
      "name": "PassengerPayout",
      "type": "event"
    },
    {
      "anonymous": false,
      "inputs": [
        {
          "indexed": false,
          "internalType": "address payable",
          "name": "x",
          "type": "address"
        }
      ],
      "name": "TestEvent",
      "type": "event"
    },
    {
      "inputs": [],
      "name": "MIN_FUNDING_FEE",
      "outputs": [
        {
          "internalType": "uint256",
          "name": "",
          "type": "uint256"
        }
      ],
      "stateMutability": "view",
      "type": "function"
    },
    {
      "stateMutability": "payable",
      "type": "receive"
    },
    {
      "inputs": [],
      "name": "kill",
      "outputs": [],
      "stateMutability": "nonpayable",
      "type": "function"
    },
    {
      "inputs": [
        {
          "internalType": "address",
          "name": "_caller",
          "type": "address"
        }
      ],
      "name": "authorizeCaller",
      "outputs": [],
      "stateMutability": "nonpayable",
      "type": "function"
    },
    {
      "inputs": [
        {
          "internalType": "address",
          "name": "_caller",
          "type": "address"
        }
      ],
      "name": "isAuthorized",
      "outputs": [
        {
          "internalType": "uint256",
          "name": "",
          "type": "uint256"
        }
      ],
      "stateMutability": "view",
      "type": "function"
    },
    {
      "inputs": [
        {
          "internalType": "address",
          "name": "_caller",
          "type": "address"
        }
      ],
      "name": "deAuthorizeCaller",
      "outputs": [],
      "stateMutability": "nonpayable",
      "type": "function"
    },
    {
      "inputs": [],
      "name": "isOperational",
      "outputs": [
        {
          "internalType": "bool",
          "name": "",
          "type": "bool"
        }
      ],
      "stateMutability": "view",
      "type": "function"
    },
    {
      "inputs": [
        {
          "internalType": "bool",
          "name": "mode",
          "type": "bool"
        }
      ],
      "name": "setOperatingStatus",
      "outputs": [],
      "stateMutability": "nonpayable",
      "type": "function"
    },
    {
      "inputs": [
        {
          "internalType": "address",
          "name": "airlineAddress",
          "type": "address"
        },
        {
          "internalType": "string",
          "name": "name",
          "type": "string"
        }
      ],
      "name": "registerAirline",
      "outputs": [],
      "stateMutability": "nonpayable",
      "type": "function"
    },
    {
      "inputs": [
        {
          "internalType": "address",
          "name": "_passengerAddress",
          "type": "address"
        },
        {
          "internalType": "address",
          "name": "airline",
          "type": "address"
        },
        {
          "internalType": "string",
          "name": "flight",
          "type": "string"
        },
        {
          "internalType": "uint256",
          "name": "timestamp",
          "type": "uint256"
        }
      ],
      "name": "buy",
      "outputs": [],
      "stateMutability": "payable",
      "type": "function"
    },
    {
      "inputs": [
        {
          "internalType": "address",
          "name": "airline",
          "type": "address"
        },
        {
          "internalType": "string",
          "name": "flight",
          "type": "string"
        },
        {
          "internalType": "uint256",
          "name": "timestamp",
          "type": "uint256"
        }
      ],
      "name": "creditInsurees",
      "outputs": [],
      "stateMutability": "nonpayable",
      "type": "function"
    },
    {
      "inputs": [
        {
          "internalType": "address payable",
          "name": "passengerAddr",
          "type": "address"
        },
        {
          "internalType": "uint256",
          "name": "amount",
          "type": "uint256"
        }
      ],
      "name": "pay",
      "outputs": [],
      "stateMutability": "nonpayable",
      "type": "function"
    },
    {
      "inputs": [
        {
          "internalType": "address",
          "name": "airlineAddress",
          "type": "address"
        }
      ],
      "name": "fund",
      "outputs": [],
      "stateMutability": "payable",
      "type": "function"
    },
    {
      "inputs": [
        {
          "internalType": "address",
          "name": "addressAirline",
          "type": "address"
        }
      ],
      "name": "isAirline",
      "outputs": [
        {
          "internalType": "bool",
          "name": "",
          "type": "bool"
        }
      ],
      "stateMutability": "view",
      "type": "function"
    },
    {
      "inputs": [
        {
          "internalType": "address",
          "name": "airline",
          "type": "address"
        },
        {
          "internalType": "string",
          "name": "flightName",
          "type": "string"
        },
        {
          "internalType": "uint256",
          "name": "timestamp",
          "type": "uint256"
        }
      ],
      "name": "registerFlight",
      "outputs": [],
      "stateMutability": "nonpayable",
      "type": "function"
    },
    {
      "inputs": [
        {
          "internalType": "address",
          "name": "airline",
          "type": "address"
        },
        {
          "internalType": "string",
          "name": "flightName",
          "type": "string"
        },
        {
          "internalType": "uint256",
          "name": "timestamp",
          "type": "uint256"
        },
        {
          "internalType": "uint8",
          "name": "statusCode",
          "type": "uint8"
        }
      ],
      "name": "updateFlightStatus",
      "outputs": [],
      "stateMutability": "nonpayable",
      "type": "function"
    }
  ],
  "bytecode": "0x60806040526001600060146101000a81548160ff02191690831515021790555060006001553480156200003157600080fd5b5060405162003e8338038062003e838339818101604052810190620000579190620002fd565b336000806101000a81548173ffffffffffffffffffffffffffffffffffffffff021916908373ffffffffffffffffffffffffffffffffffffffff1602179055506001600360008060009054906101000a900473ffffffffffffffffffffffffffffffffffffffff1673ffffffffffffffffffffffffffffffffffffffff1673ffffffffffffffffffffffffffffffffffffffff168152602001908152602001600020819055506001600360008373ffffffffffffffffffffffffffffffffffffffff1673ffffffffffffffffffffffffffffffffffffffff168152602001908152602001600020819055506001808190555060405180608001604052806040518060400160405280600781526020017f456173794a65740000000000000000000000000000000000000000000000000081525081526020016000815260200160011515815260200160001515815250600260008373ffffffffffffffffffffffffffffffffffffffff1673ffffffffffffffffffffffffffffffffffffffff1681526020019081526020016000206000820151816000019081620001fc9190620005a9565b506020820151816001015560408201518160020160006101000a81548160ff02191690831515021790555060608201518160020160016101000a81548160ff0219169083151502179055509050507f25f9fb2771dcb7e35cd7dc59e706422d3d0791e486a63ed0c6dc9c0c684609b48160006001600060405162000284949392919062000762565b60405180910390a150620007c4565b600080fd5b600073ffffffffffffffffffffffffffffffffffffffff82169050919050565b6000620002c58262000298565b9050919050565b620002d781620002b8565b8114620002e357600080fd5b50565b600081519050620002f781620002cc565b92915050565b60006020828403121562000316576200031562000293565b5b60006200032684828501620002e6565b91505092915050565b600081519050919050565b7f4e487b7100000000000000000000000000000000000000000000000000000000600052604160045260246000fd5b7f4e487b7100000000000000000000000000000000000000000000000000000000600052602260045260246000fd5b60006002820490506001821680620003b157607f821691505b602082108103620003c757620003c662000369565b5b50919050565b60008190508160005260206000209050919050565b60006020601f8301049050919050565b600082821b905092915050565b600060088302620004317fffffffffffffffffffffffffffffffffffffffffffffffffffffffffffffffff82620003f2565b6200043d8683620003f2565b95508019841693508086168417925050509392505050565b6000819050919050565b6000819050919050565b60006200048a620004846200047e8462000455565b6200045f565b62000455565b9050919050565b6000819050919050565b620004a68362000469565b620004be620004b58262000491565b848454620003ff565b825550505050565b600090565b620004d5620004c6565b620004e28184846200049b565b505050565b5b818110156200050a57620004fe600082620004cb565b600181019050620004e8565b5050565b601f82111562000559576200052381620003cd565b6200052e84620003e2565b810160208510156200053e578190505b620005566200054d85620003e2565b830182620004e7565b50505b505050565b600082821c905092915050565b60006200057e600019846008026200055e565b1980831691505092915050565b60006200059983836200056b565b9150826002028217905092915050565b620005b4826200032f565b67ffffffffffffffff811115620005d057620005cf6200033a565b5b620005dc825462000398565b620005e98282856200050e565b600060209050601f8311600181146200062157600084156200060c578287015190505b6200061885826200058b565b86555062000688565b601f1984166200063186620003cd565b60005b828110156200065b5784890151825560018201915060208501945060208101905062000634565b868310156200067b578489015162000677601f8916826200056b565b8355505b6001600288020188555050505b505050505050565b6200069b81620002b8565b82525050565b600082825260208201905092915050565b7f456173794a657400000000000000000000000000000000000000000000000000600082015250565b6000620006ea600783620006a1565b9150620006f782620006b2565b602082019050919050565b6000819050919050565b60006200072d62000727620007218462000702565b6200045f565b62000455565b9050919050565b6200073f816200070c565b82525050565b60008115159050919050565b6200075c8162000745565b82525050565b600060a08201905062000779600083018762000690565b81810360208301526200078c81620006db565b90506200079d604083018662000734565b620007ac606083018562000751565b620007bb608083018462000751565b95945050505050565b6136af80620007d46000396000f3fe6080604052600436106100ec5760003560e01c80633cc0be9c1161008a578063c8820a7011610059578063c8820a70146102e0578063cd905dff14610309578063ee38a74914610334578063fe9fbb801461035d5761012e565b80633cc0be9c1461024e57806341c0e1b5146102775780634337bdd41461028e578063c4076876146102b75761012e565b806323024408116100c657806323024408146101c25780632564158c146101de5780632c388d5d1461020957806335183170146102325761012e565b80630e248a1114610133578063110466ed146101705780631bcd250a146101995761012e565b3661012e577f6f8a4ef0af7c27d2b604338870c106d39d43e1d4b880d73c04eb6a602403ab90303433604051610124939291906121e7565b60405180910390a1005b600080fd5b34801561013f57600080fd5b5061015a60048036038101906101559190612254565b61039a565b604051610167919061229c565b60405180910390f35b34801561017c57600080fd5b50610197600480360381019061019291906122e3565b6104c1565b005b3480156101a557600080fd5b506101c060048036038101906101bb9190612254565b61056c565b005b6101dc60048036038101906101d79190612254565b610636565b005b3480156101ea57600080fd5b506101f3610a16565b6040516102009190612310565b60405180910390f35b34801561021557600080fd5b50610230600480360381019061022b9190612254565b610a22565b005b61024c600480360381019061024791906123bc565b610aec565b005b34801561025a57600080fd5b5061027560048036038101906102709190612444565b610e66565b005b34801561028357600080fd5b5061028c610f86565b005b34801561029a57600080fd5b506102b560048036038101906102b091906124f1565b611082565b005b3480156102c357600080fd5b506102de60048036038101906102d991906125b7565b6111b0565b005b3480156102ec57600080fd5b5061030760048036038101906103029190612444565b6113a6565b005b34801561031557600080fd5b5061031e611763565b60405161032b919061229c565b60405180910390f35b34801561034057600080fd5b5061035b600480360381019061035691906125f7565b611779565b005b34801561036957600080fd5b50610384600480360381019061037f9190612254565b6120b9565b6040516103919190612310565b60405180910390f35b60008060149054906101000a900460ff166103ea576040517f08c379a00000000000000000000000000000000000000000000000000000000081526004016103e1906126da565b60405180910390fd5b600073ffffffffffffffffffffffffffffffffffffffff168273ffffffffffffffffffffffffffffffffffffffff1603610459576040517f08c379a000000000000000000000000000000000000000000000000000000000815260040161045090612746565b60405180910390fd5b600260008373ffffffffffffffffffffffffffffffffffffffff1673ffffffffffffffffffffffffffffffffffffffff16815260200190815260200160002060020160009054906101000a900460ff16156104b757600190506104bc565b600090505b919050565b60008054906101000a900473ffffffffffffffffffffffffffffffffffffffff1673ffffffffffffffffffffffffffffffffffffffff163373ffffffffffffffffffffffffffffffffffffffff161461054f576040517f08c379a0000000000000000000000000000000000000000000000000000000008152600401610546906127b2565b60405180910390fd5b80600060146101000a81548160ff02191690831515021790555050565b6001600360003373ffffffffffffffffffffffffffffffffffffffff1673ffffffffffffffffffffffffffffffffffffffff16815260200190815260200160002054146105ee576040517f08c379a00000000000000000000000000000000000000000000000000000000081526004016105e59061281e565b60405180910390fd5b6000600360008373ffffffffffffffffffffffffffffffffffffffff1673ffffffffffffffffffffffffffffffffffffffff1681526020019081526020016000208190555050565b600060149054906101000a900460ff16610685576040517f08c379a000000000000000000000000000000000000000000000000000000000815260040161067c906126da565b60405180910390fd5b67016345785d8a00003410156106d0576040517f08c379a00000000000000000000000000000000000000000000000000000000081526004016106c79061288a565b60405180910390fd5b600260008273ffffffffffffffffffffffffffffffffffffffff1673ffffffffffffffffffffffffffffffffffffffff16815260200190815260200160002060020160009054906101000a900460ff1661075f576040517f08c379a00000000000000000000000000000000000000000000000000000000081526004016107569061291c565b60405180910390fd5b3073ffffffffffffffffffffffffffffffffffffffff166108fc349081150290604051600060405180830381858888f193505050501580156107a5573d6000803e3d6000fd5b506000600260008373ffffffffffffffffffffffffffffffffffffffff1673ffffffffffffffffffffffffffffffffffffffff16815260200190815260200160002060010154905080346107f9919061296b565b600260008473ffffffffffffffffffffffffffffffffffffffff1673ffffffffffffffffffffffffffffffffffffffff168152602001908152602001600020600101819055506001600260008473ffffffffffffffffffffffffffffffffffffffff1673ffffffffffffffffffffffffffffffffffffffff16815260200190815260200160002060020160016101000a81548160ff0219169083151502179055506001600260008473ffffffffffffffffffffffffffffffffffffffff1673ffffffffffffffffffffffffffffffffffffffff16815260200190815260200160002060020160006101000a81548160ff0219169083151502179055507f6fbaaab78edfc37d45cb8c9c1da7abb3d9da7def2efb8b291d0803d8bf2533c782600260008573ffffffffffffffffffffffffffffffffffffffff1673ffffffffffffffffffffffffffffffffffffffff16815260200190815260200160002060010154600260008673ffffffffffffffffffffffffffffffffffffffff1673ffffffffffffffffffffffffffffffffffffffff16815260200190815260200160002060020160009054906101000a900460ff16600260008773ffffffffffffffffffffffffffffffffffffffff1673ffffffffffffffffffffffffffffffffffffffff16815260200190815260200160002060020160019054906101000a900460ff16604051610a0a949392919061299f565b60405180910390a15050565b67016345785d8a000081565b6001600360003373ffffffffffffffffffffffffffffffffffffffff1673ffffffffffffffffffffffffffffffffffffffff1681526020019081526020016000205414610aa4576040517f08c379a0000000000000000000000000000000000000000000000000000000008152600401610a9b9061281e565b60405180910390fd5b6001600360008373ffffffffffffffffffffffffffffffffffffffff1673ffffffffffffffffffffffffffffffffffffffff1681526020019081526020016000208190555050565b633b9aca003410158015610b085750670de0b6b3a76400003411155b610b47576040517f08c379a0000000000000000000000000000000000000000000000000000000008152600401610b3e90612a30565b60405180910390fd5b6001600360003373ffffffffffffffffffffffffffffffffffffffff1673ffffffffffffffffffffffffffffffffffffffff1681526020019081526020016000205414610bc9576040517f08c379a0000000000000000000000000000000000000000000000000000000008152600401610bc09061281e565b60405180910390fd5b600060149054906101000a900460ff16610c18576040517f08c379a0000000000000000000000000000000000000000000000000000000008152600401610c0f906126da565b60405180910390fd5b6000610c698585858080601f016020809104026020016040519081016040528093929190818152602001838380828437600081840152601f19601f8201169050808301925050505050505084612102565b90506000610c778783612138565b9050600073ffffffffffffffffffffffffffffffffffffffff166006600083815260200190815260200160002060000160009054906101000a900473ffffffffffffffffffffffffffffffffffffffff1673ffffffffffffffffffffffffffffffffffffffff1614610d1e576040517f08c379a0000000000000000000000000000000000000000000000000000000008152600401610d1590612a9c565b60405180910390fd5b3073ffffffffffffffffffffffffffffffffffffffff166108fc349081150290604051600060405180830381858888f19350505050158015610d64573d6000803e3d6000fd5b5060405180606001604052808873ffffffffffffffffffffffffffffffffffffffff168152602001348152602001600015158152506006600083815260200190815260200160002060008201518160000160006101000a81548173ffffffffffffffffffffffffffffffffffffffff021916908373ffffffffffffffffffffffffffffffffffffffff1602179055506020820151816001015560408201518160020160006101000a81548160ff0219169083151502179055509050506005600083815260200190815260200160002060030181908060018154018082558091505060019003906000526020600020016000909190919091505550505050505050565b6000610eb78585858080601f016020809104026020016040519081016040528093929190818152602001838380828437600081840152601f19601f8201169050808301925050505050505084612102565b90508383600560008481526020019081526020016000206000019182610ede929190612d02565b50846005600083815260200190815260200160002060010160006101000a81548173ffffffffffffffffffffffffffffffffffffffff021916908373ffffffffffffffffffffffffffffffffffffffff16021790555060006005600083815260200190815260200160002060010160146101000a81548160ff021916908360ff1602179055508160056000838152602001908152602001600020600201819055505050505050565b60008054906101000a900473ffffffffffffffffffffffffffffffffffffffff1673ffffffffffffffffffffffffffffffffffffffff163373ffffffffffffffffffffffffffffffffffffffff1614611014576040517f08c379a000000000000000000000000000000000000000000000000000000000815260040161100b906127b2565b60405180910390fd5b60008054906101000a900473ffffffffffffffffffffffffffffffffffffffff1673ffffffffffffffffffffffffffffffffffffffff163373ffffffffffffffffffffffffffffffffffffffff1603611080573373ffffffffffffffffffffffffffffffffffffffff16ff5b565b60006110d38686868080601f016020809104026020016040519081016040528093929190818152602001838380828437600081840152601f19601f8201169050808301925050505050505085612102565b90503373ffffffffffffffffffffffffffffffffffffffff166005600083815260200190815260200160002060010160009054906101000a900473ffffffffffffffffffffffffffffffffffffffff1673ffffffffffffffffffffffffffffffffffffffff1614611179576040517f08c379a000000000000000000000000000000000000000000000000000000000815260040161117090612e44565b60405180910390fd5b816005600083815260200190815260200160002060010160146101000a81548160ff021916908360ff160217905550505050505050565b600060149054906101000a900460ff166111ff576040517f08c379a00000000000000000000000000000000000000000000000000000000081526004016111f6906126da565b60405180910390fd5b6000600760008473ffffffffffffffffffffffffffffffffffffffff1673ffffffffffffffffffffffffffffffffffffffff16815260200190815260200160002060010154905081811015611289576040517f08c379a000000000000000000000000000000000000000000000000000000000815260040161128090612ed6565b60405180910390fd5b81600760008573ffffffffffffffffffffffffffffffffffffffff1673ffffffffffffffffffffffffffffffffffffffff168152602001908152602001600020600101546112d79190612ef6565b600760008573ffffffffffffffffffffffffffffffffffffffff1673ffffffffffffffffffffffffffffffffffffffff168152602001908152602001600020600101819055507f3265a43ea5e52bc75e892d70b70be2d0e5dcd926a4e6e62496d5d3ec52d6e2f7838333476040516113529493929190612f7f565b60405180910390a18273ffffffffffffffffffffffffffffffffffffffff166108fc839081150290604051600060405180830381858888f193505050501580156113a0573d6000803e3d6000fd5b50505050565b60006113f78585858080601f016020809104026020016040519081016040528093929190818152602001838380828437600081840152601f19601f8201169050808301925050505050505084612102565b905060005b600560008381526020019081526020016000206003018054905081101561175b57600060056000848152602001908152602001600020600301828154811061144757611446612fc4565b5b9060005260206000200154905060006006600083815260200190815260200160002060000160009054906101000a900473ffffffffffffffffffffffffffffffffffffffff1690506000600660008481526020019081526020016000206001015490506000600a600f836114bb9190612ff3565b6114c59190613064565b905060016006600086815260200190815260200160002060020160006101000a81548160ff021916908315150217905550600760008473ffffffffffffffffffffffffffffffffffffffff1673ffffffffffffffffffffffffffffffffffffffff16815260200190815260200160002060020160009054906101000a900460ff161561162357600081600760008673ffffffffffffffffffffffffffffffffffffffff1673ffffffffffffffffffffffffffffffffffffffff1681526020019081526020016000206001015461159b919061296b565b905080600760008673ffffffffffffffffffffffffffffffffffffffff1673ffffffffffffffffffffffffffffffffffffffff168152602001908152602001600020600101819055507ffe9067d701ba2a9ca5f956902c52a3056cb785ab32a7655c01189b5a3079822f8482604051611615929190613095565b60405180910390a150611744565b60405180606001604052808473ffffffffffffffffffffffffffffffffffffffff16815260200182815260200160011515815250600760008573ffffffffffffffffffffffffffffffffffffffff1673ffffffffffffffffffffffffffffffffffffffff16815260200190815260200160002060008201518160000160006101000a81548173ffffffffffffffffffffffffffffffffffffffff021916908373ffffffffffffffffffffffffffffffffffffffff1602179055506020820151816001015560408201518160020160006101000a81548160ff0219169083151502179055509050507ffe9067d701ba2a9ca5f956902c52a3056cb785ab32a7655c01189b5a3079822f838260405161173b929190613095565b60405180910390a15b505050508080611753906130be565b9150506113fc565b505050505050565b60008060149054906101000a900460ff16905090565b600060149054906101000a900460ff166117c8576040517f08c379a00000000000000000000000000000000000000000000000000000000081526004016117bf906126da565b60405180910390fd5b33836001600360008473ffffffffffffffffffffffffffffffffffffffff1673ffffffffffffffffffffffffffffffffffffffff168152602001908152602001600020541461184c576040517f08c379a000000000000000000000000000000000000000000000000000000000815260040161184390613178565b60405180910390fd5b600260008373ffffffffffffffffffffffffffffffffffffffff1673ffffffffffffffffffffffffffffffffffffffff16815260200190815260200160002060020160009054906101000a900460ff166118db576040517f08c379a00000000000000000000000000000000000000000000000000000000081526004016118d29061320a565b60405180910390fd5b600260008373ffffffffffffffffffffffffffffffffffffffff1673ffffffffffffffffffffffffffffffffffffffff16815260200190815260200160002060020160019054906101000a900460ff1661196a576040517f08c379a00000000000000000000000000000000000000000000000000000000081526004016119619061329c565b60405180910390fd5b60046001541015611bb2577f322d9361d16dd795390f4a06fa068984ef116fddde0f53231333c177b6f745dc81600180546040516119aa939291906132f7565b60405180910390a1600260008673ffffffffffffffffffffffffffffffffffffffff1673ffffffffffffffffffffffffffffffffffffffff16815260200190815260200160002060020160009054906101000a900460ff1615611a42576040517f08c379a0000000000000000000000000000000000000000000000000000000008152600401611a399061337a565b60405180910390fd5b604051806080016040528085858080601f016020809104026020016040519081016040528093929190818152602001838380828437600081840152601f19601f8201169050808301925050505050505081526020016000815260200160011515815260200160001515815250600260008773ffffffffffffffffffffffffffffffffffffffff1673ffffffffffffffffffffffffffffffffffffffff1681526020019081526020016000206000820151816000019081611b0291906133a5565b506020820151816001015560408201518160020160006101000a81548160ff02191690831515021790555060608201518160020160016101000a81548160ff0219169083151502179055509050506001600360008773ffffffffffffffffffffffffffffffffffffffff1673ffffffffffffffffffffffffffffffffffffffff1681526020019081526020016000208190555060016000815480929190611ba8906130be565b91905055506120b2565b600080600460008473ffffffffffffffffffffffffffffffffffffffff1673ffffffffffffffffffffffffffffffffffffffff168152602001908152602001600020805480602002602001604051908101604052809291908181526020018280548015611c7457602002820191906000526020600020905b8160009054906101000a900473ffffffffffffffffffffffffffffffffffffffff1673ffffffffffffffffffffffffffffffffffffffff1681526020019060010190808311611c2a575b5050505050905060005b8151811015611cf0578473ffffffffffffffffffffffffffffffffffffffff16828281518110611cb157611cb0612fc4565b5b602002602001015173ffffffffffffffffffffffffffffffffffffffff1603611cdd5760019250611cf0565b8080611ce8906130be565b915050611c7e565b508115611d32576040517f08c379a0000000000000000000000000000000000000000000000000000000008152600401611d29906134c3565b60405180910390fd5b600460008473ffffffffffffffffffffffffffffffffffffffff1673ffffffffffffffffffffffffffffffffffffffff168152602001908152602001600020849080600181540180825580915050600190039060005260206000200160009091909190916101000a81548173ffffffffffffffffffffffffffffffffffffffff021916908373ffffffffffffffffffffffffffffffffffffffff1602179055506000600460008573ffffffffffffffffffffffffffffffffffffffff1673ffffffffffffffffffffffffffffffffffffffff168152602001908152602001600020805490509050600081600154611e299190612ef6565b905080821061206f577f322d9361d16dd795390f4a06fa068984ef116fddde0f53231333c177b6f745dc8583600154604051611e67939291906134e3565b60405180910390a1600260008a73ffffffffffffffffffffffffffffffffffffffff1673ffffffffffffffffffffffffffffffffffffffff16815260200190815260200160002060020160009054906101000a900460ff1615611eff576040517f08c379a0000000000000000000000000000000000000000000000000000000008152600401611ef69061337a565b60405180910390fd5b604051806080016040528089898080601f016020809104026020016040519081016040528093929190818152602001838380828437600081840152601f19601f8201169050808301925050505050505081526020016000815260200160011515815260200160001515815250600260008b73ffffffffffffffffffffffffffffffffffffffff1673ffffffffffffffffffffffffffffffffffffffff1681526020019081526020016000206000820151816000019081611fbf91906133a5565b506020820151816001015560408201518160020160006101000a81548160ff02191690831515021790555060608201518160020160016101000a81548160ff0219169083151502179055509050506001600360008b73ffffffffffffffffffffffffffffffffffffffff1673ffffffffffffffffffffffffffffffffffffffff1681526020019081526020016000208190555060016000815480929190612065906130be565b91905055506120ad565b7f3c7f7c030c98798c9e0e3c891b9db46ef154068238bf5bbf38a38f59223718b685836001546040516120a4939291906134e3565b60405180910390a15b505050505b5050505050565b6000600360008373ffffffffffffffffffffffffffffffffffffffff1673ffffffffffffffffffffffffffffffffffffffff168152602001908152602001600020549050919050565b6000838383604051602001612119939291906135e9565b6040516020818303038152906040528051906020012090509392505050565b60008060608473ffffffffffffffffffffffffffffffffffffffff16901b60001b9050808360405160200161216e92919061364d565b6040516020818303038152906040528051906020012091505092915050565b600073ffffffffffffffffffffffffffffffffffffffff82169050919050565b60006121b88261218d565b9050919050565b6121c8816121ad565b82525050565b6000819050919050565b6121e1816121ce565b82525050565b60006060820190506121fc60008301866121bf565b61220960208301856121d8565b61221660408301846121bf565b949350505050565b600080fd5b600080fd5b612231816121ad565b811461223c57600080fd5b50565b60008135905061224e81612228565b92915050565b60006020828403121561226a5761226961221e565b5b60006122788482850161223f565b91505092915050565b60008115159050919050565b61229681612281565b82525050565b60006020820190506122b1600083018461228d565b92915050565b6122c081612281565b81146122cb57600080fd5b50565b6000813590506122dd816122b7565b92915050565b6000602082840312156122f9576122f861221e565b5b6000612307848285016122ce565b91505092915050565b600060208201905061232560008301846121d8565b92915050565b600080fd5b600080fd5b600080fd5b60008083601f8401126123505761234f61232b565b5b8235905067ffffffffffffffff81111561236d5761236c612330565b5b60208301915083600182028301111561238957612388612335565b5b9250929050565b612399816121ce565b81146123a457600080fd5b50565b6000813590506123b681612390565b92915050565b6000806000806000608086880312156123d8576123d761221e565b5b60006123e68882890161223f565b95505060206123f78882890161223f565b945050604086013567ffffffffffffffff81111561241857612417612223565b5b6124248882890161233a565b93509350506060612437888289016123a7565b9150509295509295909350565b6000806000806060858703121561245e5761245d61221e565b5b600061246c8782880161223f565b945050602085013567ffffffffffffffff81111561248d5761248c612223565b5b6124998782880161233a565b935093505060406124ac878288016123a7565b91505092959194509250565b600060ff82169050919050565b6124ce816124b8565b81146124d957600080fd5b50565b6000813590506124eb816124c5565b92915050565b60008060008060006080868803121561250d5761250c61221e565b5b600061251b8882890161223f565b955050602086013567ffffffffffffffff81111561253c5761253b612223565b5b6125488882890161233a565b9450945050604061255b888289016123a7565b925050606061256c888289016124dc565b9150509295509295909350565b60006125848261218d565b9050919050565b61259481612579565b811461259f57600080fd5b50565b6000813590506125b18161258b565b92915050565b600080604083850312156125ce576125cd61221e565b5b60006125dc858286016125a2565b92505060206125ed858286016123a7565b9150509250929050565b6000806000604084860312156126105761260f61221e565b5b600061261e8682870161223f565b935050602084013567ffffffffffffffff81111561263f5761263e612223565b5b61264b8682870161233a565b92509250509250925092565b600082825260208201905092915050565b7f436f6e74726163742069732063757272656e746c79206e6f74206f706572617460008201527f696f6e616c000000000000000000000000000000000000000000000000000000602082015250565b60006126c4602583612657565b91506126cf82612668565b604082019050919050565b600060208201905081810360008301526126f3816126b7565b9050919050565b7f3078302061646472657373206e6f7420616c6c6f776564210000000000000000600082015250565b6000612730601883612657565b915061273b826126fa565b602082019050919050565b6000602082019050818103600083015261275f81612723565b9050919050565b7f43616c6c6572206973206e6f7420636f6e7472616374206f776e657200000000600082015250565b600061279c601c83612657565b91506127a782612766565b602082019050919050565b600060208201905081810360008301526127cb8161278f565b9050919050565b7f43616c6c6572206973206e6f7420617574686f72697a65642100000000000000600082015250565b6000612808601983612657565b9150612813826127d2565b602082019050919050565b60006020820190508181036000830152612837816127fb565b9050919050565b7f5b66756e645d20496e61646171756174652066756e64732073656e7400000000600082015250565b6000612874601c83612657565b915061287f8261283e565b602082019050919050565b600060208201905081810360008301526128a381612867565b9050919050565b7f5b66756e645d204169726c696e65206973206e6f74207265676973746572656460008201527f2100000000000000000000000000000000000000000000000000000000000000602082015250565b6000612906602183612657565b9150612911826128aa565b604082019050919050565b60006020820190508181036000830152612935816128f9565b9050919050565b7f4e487b7100000000000000000000000000000000000000000000000000000000600052601160045260246000fd5b6000612976826121ce565b9150612981836121ce565b92508282019050808211156129995761299861293c565b5b92915050565b60006080820190506129b460008301876121bf565b6129c160208301866121d8565b6129ce604083018561228d565b6129db606083018461228d565b95945050505050565b7f494e535552414e43452049532043415050454420415420312045544845520000600082015250565b6000612a1a601e83612657565b9150612a25826129e4565b602082019050919050565b60006020820190508181036000830152612a4981612a0d565b9050919050565b7f50617373656e67657220616c72656164792068617320696e737572616e636521600082015250565b6000612a86602083612657565b9150612a9182612a50565b602082019050919050565b60006020820190508181036000830152612ab581612a79565b9050919050565b600082905092915050565b7f4e487b7100000000000000000000000000000000000000000000000000000000600052604160045260246000fd5b7f4e487b7100000000000000000000000000000000000000000000000000000000600052602260045260246000fd5b60006002820490506001821680612b3d57607f821691505b602082108103612b5057612b4f612af6565b5b50919050565b60008190508160005260206000209050919050565b60006020601f8301049050919050565b600082821b905092915050565b600060088302612bb87fffffffffffffffffffffffffffffffffffffffffffffffffffffffffffffffff82612b7b565b612bc28683612b7b565b95508019841693508086168417925050509392505050565b6000819050919050565b6000612bff612bfa612bf5846121ce565b612bda565b6121ce565b9050919050565b6000819050919050565b612c1983612be4565b612c2d612c2582612c06565b848454612b88565b825550505050565b600090565b612c42612c35565b612c4d818484612c10565b505050565b5b81811015612c7157612c66600082612c3a565b600181019050612c53565b5050565b601f821115612cb657612c8781612b56565b612c9084612b6b565b81016020851015612c9f578190505b612cb3612cab85612b6b565b830182612c52565b50505b505050565b600082821c905092915050565b6000612cd960001984600802612cbb565b1980831691505092915050565b6000612cf28383612cc8565b9150826002028217905092915050565b612d0c8383612abc565b67ffffffffffffffff811115612d2557612d24612ac7565b5b612d2f8254612b25565b612d3a828285612c75565b6000601f831160018114612d695760008415612d57578287013590505b612d618582612ce6565b865550612dc9565b601f198416612d7786612b56565b60005b82811015612d9f57848901358255600182019150602085019450602081019050612d7a565b86831015612dbc5784890135612db8601f891682612cc8565b8355505b6001600288020188555050505b50505050505050565b7f4d757374206f776e20666c6967687420746f206368616e67652069747320737460008201527f6174757300000000000000000000000000000000000000000000000000000000602082015250565b6000612e2e602483612657565b9150612e3982612dd2565b604082019050919050565b60006020820190508181036000830152612e5d81612e21565b9050919050565b7f4e6f7420656e6f7567682062616c616e636520617661696c61626c6520746f2060008201527f7769746864726177000000000000000000000000000000000000000000000000602082015250565b6000612ec0602883612657565b9150612ecb82612e64565b604082019050919050565b60006020820190508181036000830152612eef81612eb3565b9050919050565b6000612f01826121ce565b9150612f0c836121ce565b9250828203905081811115612f2457612f2361293c565b5b92915050565b6000612f45612f40612f3b8461218d565b612bda565b61218d565b9050919050565b6000612f5782612f2a565b9050919050565b6000612f6982612f4c565b9050919050565b612f7981612f5e565b82525050565b6000608082019050612f946000830187612f70565b612fa160208301866121d8565b612fae60408301856121bf565b612fbb60608301846121d8565b95945050505050565b7f4e487b7100000000000000000000000000000000000000000000000000000000600052603260045260246000fd5b6000612ffe826121ce565b9150613009836121ce565b9250828202613017816121ce565b9150828204841483151761302e5761302d61293c565b5b5092915050565b7f4e487b7100000000000000000000000000000000000000000000000000000000600052601260045260246000fd5b600061306f826121ce565b915061307a836121ce565b92508261308a57613089613035565b5b828204905092915050565b60006040820190506130aa60008301856121bf565b6130b760208301846121d8565b9392505050565b60006130c9826121ce565b91507fffffffffffffffffffffffffffffffffffffffffffffffffffffffffffffffff82036130fb576130fa61293c565b5b600182019050919050565b7f5b6d756c74697061727479636f6e5d2043616c6c6572206973206e6f7420617560008201527f74686f72697a6564210000000000000000000000000000000000000000000000602082015250565b6000613162602983612657565b915061316d82613106565b604082019050919050565b6000602082019050818103600083015261319181613155565b9050919050565b7f5b6d756c74697061727479636f6e5d204169726c696e65206973206e6f74207260008201527f6567697374657265642100000000000000000000000000000000000000000000602082015250565b60006131f4602a83612657565b91506131ff82613198565b604082019050919050565b60006020820190508181036000830152613223816131e7565b9050919050565b7f5b6d756c74697061727479636f6e5d204169726c696e65206973206e6f74206660008201527f756e646564210000000000000000000000000000000000000000000000000000602082015250565b6000613286602683612657565b91506132918261322a565b604082019050919050565b600060208201905081810360008301526132b581613279565b9050919050565b6000819050919050565b60006132e16132dc6132d7846132bc565b612bda565b6121ce565b9050919050565b6132f1816132c6565b82525050565b600060608201905061330c60008301866121bf565b61331960208301856132e8565b61332660408301846121d8565b949350505050565b7f4169726c696e6520697320616c72656164792072656769737465726564210000600082015250565b6000613364601e83612657565b915061336f8261332e565b602082019050919050565b6000602082019050818103600083015261339381613357565b9050919050565b600081519050919050565b6133ae8261339a565b67ffffffffffffffff8111156133c7576133c6612ac7565b5b6133d18254612b25565b6133dc828285612c75565b600060209050601f83116001811461340f57600084156133fd578287015190505b6134078582612ce6565b86555061346f565b601f19841661341d86612b56565b60005b8281101561344557848901518255600182019150602085019450602081019050613420565b86831015613462578489015161345e601f891682612cc8565b8355505b6001600288020188555050505b505050505050565b7f4169726c696e652068617320616c726561647920766f7465642e000000000000600082015250565b60006134ad601a83612657565b91506134b882613477565b602082019050919050565b600060208201905081810360008301526134dc816134a0565b9050919050565b60006060820190506134f860008301866121bf565b61350560208301856121d8565b61351260408301846121d8565b949350505050565b60008160601b9050919050565b60006135328261351a565b9050919050565b600061354482613527565b9050919050565b61355c613557826121ad565b613539565b82525050565b600081905092915050565b60005b8381101561358b578082015181840152602081019050613570565b60008484015250505050565b60006135a28261339a565b6135ac8185613562565b93506135bc81856020860161356d565b80840191505092915050565b6000819050919050565b6135e36135de826121ce565b6135c8565b82525050565b60006135f5828661354b565b6014820191506136058285613597565b915061361182846135d2565b602082019150819050949350505050565b6000819050919050565b6000819050919050565b61364761364282613622565b61362c565b82525050565b60006136598285613636565b6020820191506136698284613636565b602082019150819050939250505056fea264697066735822122046210ac9e21587b68cc77dc975cf79ba202e73c801b6f19385cdfeac0129db5d64736f6c63430008110033",
  "immutableReferences": {},
  "source": "// SPDX-License-Identifier: MIT\npragma solidity ^0.8.17;\n\n\ncontract FlightSuretyData {\n\n    /********************************************************************************************/\n    /*                                       DATA VARIABLES                                     */\n    /********************************************************************************************/\n\n    address private contractOwner;                                      // Account used to deploy contract\n    bool private operational = true;                                    // Blocks all state changes throughout the contract if false\n    uint256 public constant MIN_FUNDING_FEE = 0.1 ether;\n\n    // Airline\n    struct Airline {\n        string name;\n        uint256 funds;  \n        bool isRegistered;\n        bool isFunded; // Did they submit their stake?\n    }\n    // Since mappings don't have a length, count airlines\n    uint256 registeredAirlineCount = 0;\n    mapping(address => Airline) private airlines;\n\n    // To check that only App contract can call in!\n    mapping(address => uint256) authorizedCallers;                      \n\n    // Threshold below which all we need is a single airline to add a new airline                         \n    uint256 constant AIRLINE_THRESHOLD = 4;                                            \n    // Record which airlines that voted\n    // the key is the address we are voting to add and the value is an array of airline addresses who voted to add this airline\n    mapping(address => address[]) airlineVotes;           \n\n    struct Flight {\n        string flightName;\n        address airline;\n        uint8 statusCode;\n        uint256 timestamp;\n        bytes32[] insuranceContracts;\n    }\n\n    struct Insurance {\n        address payable passengerAddress;\n        uint            insuranceAmount;\n        bool            isPaid;\n        \n    }\n\n    // Mapping from flight key to the Flight\n    mapping (bytes32 => Flight) private flights;\n    // From insurance key to an array of Insurance objects (per user and amount)\n    mapping (bytes32 => Insurance) private insurances;\n\n    struct Passenger {\n        address passengerAddr;\n        uint256 creditAmount;\n        bool exists;\n    }\n    mapping(address => Passenger) private passengers;\n\n    /********************************************************************************************/\n    /*                                       EVENT DEFINITIONS                                  */\n    /********************************************************************************************/\n    event AirlineFunded(address airline, uint256 amount, bool isRegistered, bool isFunded);\n    event PassengerCredited(address passenger, uint256 amount);\n    event PassengerPayout(address passenger, uint256 amount, address sender, uint256 contractBalance);\n    event FundsReceived(address receiver, uint256 amount, address sender);\n    event TestEvent(address payable x);\n    event AirlineRegistered(address airlineAddress, string name, uint256 funds,  bool isRegistered, bool isFunded);\n    event AchievedMultiPartyConsensus(address newAirlineAddress, uint256 votesCount, uint airlinesCount);\n    event NotYetAchievedMultiPartyConsensus(address newAirlineAddress, uint256 votesCount, uint airlinesCount);\n\n\n    /**\n    * @dev Constructor\n    *      The deploying account becomes contractOwner\n    *      and we register the first airline...\n    *address airlineAddress, string memory airlineName)\n    */\n    constructor (address airlineAddress)\n    {\n        contractOwner = msg.sender;\n        // airline is the first authorized caller\n        authorizedCallers[contractOwner] = 1;\n        authorizedCallers[airlineAddress] = 1;\n        registeredAirlineCount = 1;\n        // name, funds, isRegistered, isFunded\n        airlines[airlineAddress] = Airline(\"EasyJet\", 0, true, false);\n        emit AirlineRegistered(airlineAddress, \"EasyJet\", 0, true, false);\n\n    }\n\n    /********************************************************************************************/\n    /*                                       FUNCTION MODIFIERS                                 */\n    /********************************************************************************************/\n\n    // Modifiers help avoid duplication of code. They are typically used to validate something\n    // before a function is allowed to be executed.\n\n    /**\n    * @dev Modifier that requires the \"operational\" boolean variable to be \"true\"\n    *      This is used on all state changing functions to pause the contract in \n    *      the event there is an issue that needs to be fixed\n    */\n    modifier requireIsOperational() \n    {\n        require(operational, \"Contract is currently not operational\");\n        _;  // All modifiers require an \"_\" which indicates where the function body will be added\n    }\n\n    /**\n    * @dev Modifier that requires the \"ContractOwner\" account to be the function caller\n    */\n    modifier requireContractOwner()\n    {\n        require(msg.sender == contractOwner, \"Caller is not contract owner\");\n        _;\n    }\n\n    /**\n    * @dev Modifier checking that only the App contract can call in! --> For every externally callable function!\n    */\n    modifier isCallerAuthorized()\n    {\n        require(authorizedCallers[msg.sender] == 1, \"Caller is not authorized!\");\n        _;\n    }\n\n    /** \n    * @dev Modifier that implements multi-party consensus to execute a specific function\n    */\n    modifier requireMultiPartyConsensus(address caller, address newAirlineAddress)\n    {\n        // You have to be an authorized airline to even have a vote\n        // you have to also be a registered and funded airline\n        require(authorizedCallers[caller] == 1, \"[multipartycon] Caller is not authorized!\");\n        require(airlines[caller].isRegistered, \"[multipartycon] Airline is not registered!\");\n        require(airlines[caller].isFunded, \"[multipartycon] Airline is not funded!\");\n\n        \n        if (registeredAirlineCount < AIRLINE_THRESHOLD){\n            // If less than 4 airlines registered all we need is 1 vote from any authorized airline\n            // no multi-party consensus required\n            emit AchievedMultiPartyConsensus(newAirlineAddress, 1, registeredAirlineCount);\n            _;\n        }else{\n            // Check if this Airline already made its vote to avoid them voting twice\n            bool isDuplicate = false;\n            address[] memory currentVotes = airlineVotes[newAirlineAddress];\n            for(uint c=0; c< currentVotes.length; c++) {\n                if (currentVotes[c] == caller) {\n                    isDuplicate = true;\n                    break;\n                    }\n            }\n            require(!isDuplicate, \"Airline has already voted.\");\n\n            // If not then add the vote to the array of votes for this newairline\n            airlineVotes[newAirlineAddress].push(caller);\n\n\n            // Check if it was a sufficient number of votes to achieve consensus\n            uint256 numberOfVotes = airlineVotes[newAirlineAddress].length;\n            uint256 unvotedCount = registeredAirlineCount - numberOfVotes;\n            if(numberOfVotes >= unvotedCount){\n                emit AchievedMultiPartyConsensus(newAirlineAddress, numberOfVotes, registeredAirlineCount);\n                _;\n            }else{\n                emit NotYetAchievedMultiPartyConsensus(newAirlineAddress, numberOfVotes, registeredAirlineCount);\n            }\n        }\n\n    }\n\n    modifier checkPassengerBuyAmount() {\n        require(msg.value >= 1 gwei && msg.value <= 1 ether, \"INSURANCE IS CAPPED AT 1 ETHER\");\n        _;\n    }\n\n    /********************************************************************************************/\n    /*                                       UTILITY FUNCTIONS                                  */\n    /********************************************************************************************/\n    function kill() public requireContractOwner() {\n        if (msg.sender == contractOwner) {\n            selfdestruct(payable(msg.sender));\n        }\n    }\n\n    function authorizeCaller(address _caller) public isCallerAuthorized {\n        // only other authorized callers (airlines) can add other authorized callers\n        authorizedCallers[_caller] = 1;\n    }\n\n    function isAuthorized(address _caller) public view returns(uint256) {\n        return authorizedCallers[_caller];\n    }\n\n    function deAuthorizeCaller(address _caller) public isCallerAuthorized {\n        authorizedCallers[_caller] = 0;\n    }\n    /**\n    * @dev Get operating status of contract\n    *\n    * @return A bool that is the current operating status\n    */      \n    function isOperational() \n                            public \n                            view \n                            returns(bool) \n    {\n        return operational;\n    }\n\n\n    /**\n    * @dev Sets contract operations on/off\n    *\n    * When operational mode is disabled, all write transactions except for this one will fail\n    */    \n    function setOperatingStatus\n                            (\n                                bool mode\n                            ) \n                            external\n                            requireContractOwner \n    {\n        operational = mode;\n    }\n\n    /********************************************************************************************/\n    /*                                     SMART CONTRACT FUNCTIONS                             */\n    /********************************************************************************************/\n\n   /**\n    * @dev Add an airline to the registration queue\n    *      Can only be called from FlightSuretyApp contract\n    *\n    */   \n    function registerAirline\n                            (\n                                address airlineAddress,\n                                string calldata name  \n                            )\n                            external\n                            requireIsOperational\n                            requireMultiPartyConsensus(msg.sender, airlineAddress)\n    {\n        require(!airlines[airlineAddress].isRegistered, \"Airline is already registered!\");\n\n        // Data structure for Airlines?\n        airlines[airlineAddress] = Airline(name, 0, true, false);\n        authorizedCallers[airlineAddress] = 1;\n        registeredAirlineCount++;\n    }\n\n\n   /**\n    * @dev Buy insurance for a flight\n    *\n    */   \n    function buy(address _passengerAddress, address airline,\n                 string calldata flight,\n                 uint256 timestamp) external payable \n    checkPassengerBuyAmount() isCallerAuthorized() requireIsOperational() {        \n        \n\n        bytes32 _flightKey = getFlightKey(airline, flight, timestamp);\n        bytes32 _insuranceKey = getInsuranceKey(_passengerAddress, _flightKey);        \n        require(insurances[_insuranceKey].passengerAddress == address(0), \"Passenger already has insurance!\");\n        payable(address(this)).transfer(msg.value);\n        \n        insurances[_insuranceKey] = Insurance({\n                passengerAddress: payable(_passengerAddress),\n                insuranceAmount: msg.value,\n                isPaid: false\n                });\n\n        flights[_flightKey].insuranceContracts.push(_insuranceKey);\n    }\n\n    /**\n     *  @dev Credits payouts to insurees\n    */\n    function creditInsurees\n                                (\n                                    address airline,\n                                    string calldata flight,\n                                    uint256 timestamp\n                                )\n                                external\n    {\n        bytes32 flightKey = getFlightKey(airline, flight, timestamp);\n\n        for (uint256 i = 0; i < flights[flightKey].insuranceContracts.length; i++) {\n            bytes32 insuranceContractKey = flights[flightKey].insuranceContracts[i];\n\n            address passengerAddress = insurances[insuranceContractKey].passengerAddress;\n            uint256 insuranceAmount = insurances[insuranceContractKey].insuranceAmount;\n            uint256 payAmount = insuranceAmount * 15/10;\n            insurances[insuranceContractKey].isPaid = true;\n\n            if(passengers[passengerAddress].exists){\n\n                uint256 updatedCreditAmount = passengers[passengerAddress].creditAmount + payAmount;\n                passengers[passengerAddress].creditAmount = updatedCreditAmount;\n                emit PassengerCredited(passengerAddress, updatedCreditAmount);\n            \n            } else {\n\n                passengers[passengerAddress] = Passenger({\n                                                passengerAddr: passengerAddress,\n                                                creditAmount: payAmount,\n                                                exists: true\n                                        });\n                emit PassengerCredited(passengerAddress, payAmount);\n\n\n            }\n\n        }\n    }\n    \n    \n\n    /**\n     *  @dev Transfers eligible payout funds to insuree\n     *\n    */\n    function pay\n                            (\n                                address payable passengerAddr,\n                                uint256 amount\n                            )\n                            external\n                            requireIsOperational\n    {\n        uint256 creditAmount = passengers[passengerAddr].creditAmount;\n\n        // Check first if any credit to actually w/d\n        require(creditAmount >= amount, \"Not enough balance available to withdraw\"); \n\n        // Set to 0 before the transfer\n        passengers[passengerAddr].creditAmount = passengers[passengerAddr].creditAmount - amount ;\n        // do transfer from contract owner to passenger\n        emit PassengerPayout(passengerAddr, amount, msg.sender, address(this).balance);\n        passengerAddr.transfer(amount);\n        // _passengerTransfer(passengerAddr, creditAmount);\n    }\n\n    // function _passengerTransfer\n    //                         (\n    //                             address payable passengerAddr,\n    //                             uint256 amount\n    //                         )\n    //                         internal\n    //                         requireIsOperational\n    // {\n\n    //     emit PassengerPayout(passengerAddr, amount, msg.sender);\n    //     // passengerAddr.transfer(amount);\n    // }\n\n   /**\n    * @dev Initial funding for the insurance. Unless there are too many delayed flights\n    *      resulting in insurance payouts, the contract should be self-sustaining\n    *\n    */   \n    function fund(address airlineAddress)\n        external\n        payable\n        requireIsOperational\n    {\n        require(msg.value >= MIN_FUNDING_FEE, \"[fund] Inadaquate funds sent\");\n        require(airlines[airlineAddress].isRegistered, \"[fund] Airline is not registered!\");\n\n        // Transfer to the contract those funds\n        //payable(contractOwner).transfer(msg.value);\n        payable(address(this)).transfer(msg.value);\n\n        // Add to the Airline's funds\n        uint256 currentFunds = airlines[airlineAddress].funds;\n        airlines[airlineAddress].funds = msg.value + currentFunds;\n        airlines[airlineAddress].isFunded = true;\n        airlines[airlineAddress].isRegistered = true;\n\n        emit AirlineFunded(airlineAddress,  airlines[airlineAddress].funds, airlines[airlineAddress].isRegistered, airlines[airlineAddress].isFunded);\n\n    }\n\n    function getInsuranceKey(address _passengerAddress, bytes32 _flightKey) pure internal returns(bytes32) {\n        bytes32 _addressToBytes32 = bytes32(uint256(uint160(_passengerAddress)) << 96);\n        return keccak256(abi.encodePacked(_addressToBytes32, _flightKey));\n    }\n\n    function getFlightKey\n                        (\n                            address airline,\n                            string memory flight,\n                            uint256 timestamp\n                        )\n                        pure\n                        internal\n                        returns(bytes32) \n    {\n        return keccak256(abi.encodePacked(airline, flight, timestamp));\n    }\n\n    /**\n    * @dev Checking if registered airline is registered\n    */    \n    function isAirline (address addressAirline) external view requireIsOperational returns(bool) {\n        require(addressAirline != address(0), \"0x0 address not allowed!\");\n        if(airlines[addressAirline].isRegistered){\n            return true;\n        } else{\n            return false;\n        }\n    } \n\n    /**\n    * Register a flight\n    */\n    function registerFlight( \n                                address airline,\n                                string calldata flightName,\n                                uint256 timestamp\n                            )\n    external {\n        bytes32 flightKey = getFlightKey(airline, flightName, timestamp);\n        flights[flightKey].flightName = flightName;   \n        flights[flightKey].airline = airline;\n        flights[flightKey].statusCode = 0;\n        flights[flightKey].timestamp = timestamp;\n    } \n\n    /**\n    * Update a flight status\n    */\n    function updateFlightStatus( \n                                address airline,\n                                string calldata flightName,\n                                uint256 timestamp,\n                                uint8 statusCode\n                            )\n    external {\n        bytes32 flightKey = getFlightKey(airline, flightName, timestamp);\n        require(flights[flightKey].airline == msg.sender, \"Must own flight to change its status\");\n        flights[flightKey].statusCode = statusCode;\n    } \n\n    /**\n    * @dev Fallback function for funding smart contract.\n    *\n    */\n    // fallback() \n    //                         external \n    //                         payable \n    // {\n    //     emit FundsAdded(address(this), msg.value);\n    // }\n\n    receive() external payable {\n        emit FundsReceived(address(this), msg.value, msg.sender);\n    }\n\n}\n\n",
  "sourcePath": "/Users/leehodgkinson/IdeaProjects/MyFlightSurety/contracts/FlightSuretyData.sol",
  "compiler": {
    "name": "solc",
    "version": "0.8.17+commit.8df45f5f.Emscripten.clang"
  },
  "schemaVersion": "3.4.10",
  "updatedAt": "2022-10-23T05:30:45.027Z",
  "devdoc": {
    "kind": "dev",
    "methods": {
      "buy(address,address,string,uint256)": {
        "details": "Buy insurance for a flight"
      },
      "constructor": {
        "details": "Constructor      The deploying account becomes contractOwner      and we register the first airline... address airlineAddress, string memory airlineName)"
      },
      "creditInsurees(address,string,uint256)": {
        "details": "Credits payouts to insurees"
      },
      "fund(address)": {
        "details": "Initial funding for the insurance. Unless there are too many delayed flights      resulting in insurance payouts, the contract should be self-sustaining"
      },
      "isAirline(address)": {
        "details": "Checking if registered airline is registered"
      },
      "isOperational()": {
        "details": "Get operating status of contract",
        "returns": {
          "_0": "A bool that is the current operating status"
        }
      },
      "pay(address,uint256)": {
        "details": "Transfers eligible payout funds to insuree"
      },
      "registerAirline(address,string)": {
        "details": "Add an airline to the registration queue      Can only be called from FlightSuretyApp contract"
      },
      "setOperatingStatus(bool)": {
        "details": "Sets contract operations on/off When operational mode is disabled, all write transactions except for this one will fail"
      }
    },
    "version": 1
  },
  "userdoc": {
    "kind": "user",
    "methods": {
      "registerFlight(address,string,uint256)": {
        "notice": "Register a flight"
      },
      "updateFlightStatus(address,string,uint256,uint8)": {
        "notice": "Update a flight status"
      }
    },
    "version": 1
  }
}