{
  "contractName": "FlightSuretyData",
  "abi": [
    {
      "inputs": [
        {
          "internalType": "address",
          "name": "airlineAddress",
          "type": "address"
        }
      ],
      "stateMutability": "nonpayable",
      "type": "constructor"
    },
    {
      "anonymous": false,
      "inputs": [
        {
          "indexed": false,
          "internalType": "address",
          "name": "newAirlineAddress",
          "type": "address"
        },
        {
          "indexed": false,
          "internalType": "uint256",
          "name": "votesCount",
          "type": "uint256"
        },
        {
          "indexed": false,
          "internalType": "uint256",
          "name": "airlinesCount",
          "type": "uint256"
        }
      ],
      "name": "AchievedMultiPartyConsensus",
      "type": "event"
    },
    {
      "anonymous": false,
      "inputs": [
        {
          "indexed": false,
          "internalType": "address",
          "name": "airline",
          "type": "address"
        },
        {
          "indexed": false,
          "internalType": "uint256",
          "name": "amount",
          "type": "uint256"
        },
        {
          "indexed": false,
          "internalType": "bool",
          "name": "isRegistered",
          "type": "bool"
        },
        {
          "indexed": false,
          "internalType": "bool",
          "name": "isFunded",
          "type": "bool"
        }
      ],
      "name": "AirlineFunded",
      "type": "event"
    },
    {
      "anonymous": false,
      "inputs": [
        {
          "indexed": false,
          "internalType": "address",
          "name": "airlineAddress",
          "type": "address"
        },
        {
          "indexed": false,
          "internalType": "string",
          "name": "name",
          "type": "string"
        },
        {
          "indexed": false,
          "internalType": "uint256",
          "name": "funds",
          "type": "uint256"
        },
        {
          "indexed": false,
          "internalType": "bool",
          "name": "isRegistered",
          "type": "bool"
        },
        {
          "indexed": false,
          "internalType": "bool",
          "name": "isFunded",
          "type": "bool"
        }
      ],
      "name": "AirlineRegistered",
      "type": "event"
    },
    {
      "anonymous": false,
      "inputs": [
        {
          "indexed": false,
          "internalType": "address",
          "name": "receiver",
          "type": "address"
        },
        {
          "indexed": false,
          "internalType": "uint256",
          "name": "amount",
          "type": "uint256"
        },
        {
          "indexed": false,
          "internalType": "address",
          "name": "sender",
          "type": "address"
        }
      ],
      "name": "FundsReceived",
      "type": "event"
    },
    {
      "anonymous": false,
      "inputs": [
        {
          "indexed": false,
          "internalType": "address",
          "name": "newAirlineAddress",
          "type": "address"
        },
        {
          "indexed": false,
          "internalType": "uint256",
          "name": "votesCount",
          "type": "uint256"
        },
        {
          "indexed": false,
          "internalType": "uint256",
          "name": "airlinesCount",
          "type": "uint256"
        }
      ],
      "name": "NotYetAchievedMultiPartyConsensus",
      "type": "event"
    },
    {
      "anonymous": false,
      "inputs": [
        {
          "indexed": false,
          "internalType": "uint256",
          "name": "x",
          "type": "uint256"
        }
      ],
      "name": "TestEvent",
      "type": "event"
    },
    {
      "inputs": [],
      "name": "MIN_FUNDING_FEE",
      "outputs": [
        {
          "internalType": "uint256",
          "name": "",
          "type": "uint256"
        }
      ],
      "stateMutability": "view",
      "type": "function"
    },
    {
      "stateMutability": "payable",
      "type": "receive"
    },
    {
      "inputs": [],
      "name": "kill",
      "outputs": [],
      "stateMutability": "nonpayable",
      "type": "function"
    },
    {
      "inputs": [
        {
          "internalType": "address",
          "name": "_caller",
          "type": "address"
        }
      ],
      "name": "authorizeCaller",
      "outputs": [],
      "stateMutability": "nonpayable",
      "type": "function"
    },
    {
      "inputs": [
        {
          "internalType": "address",
          "name": "_caller",
          "type": "address"
        }
      ],
      "name": "isAuthorized",
      "outputs": [
        {
          "internalType": "uint256",
          "name": "",
          "type": "uint256"
        }
      ],
      "stateMutability": "view",
      "type": "function"
    },
    {
      "inputs": [
        {
          "internalType": "address",
          "name": "_caller",
          "type": "address"
        }
      ],
      "name": "deAuthorizeCaller",
      "outputs": [],
      "stateMutability": "nonpayable",
      "type": "function"
    },
    {
      "inputs": [],
      "name": "isOperational",
      "outputs": [
        {
          "internalType": "bool",
          "name": "",
          "type": "bool"
        }
      ],
      "stateMutability": "view",
      "type": "function"
    },
    {
      "inputs": [
        {
          "internalType": "bool",
          "name": "mode",
          "type": "bool"
        }
      ],
      "name": "setOperatingStatus",
      "outputs": [],
      "stateMutability": "nonpayable",
      "type": "function"
    },
    {
      "inputs": [
        {
          "internalType": "address",
          "name": "airlineAddress",
          "type": "address"
        },
        {
          "internalType": "string",
          "name": "name",
          "type": "string"
        }
      ],
      "name": "registerAirline",
      "outputs": [],
      "stateMutability": "nonpayable",
      "type": "function"
    },
    {
      "inputs": [
        {
          "internalType": "address",
          "name": "_passengerAddress",
          "type": "address"
        },
        {
          "internalType": "bytes32",
          "name": "_flightKey",
          "type": "bytes32"
        }
      ],
      "name": "buy",
      "outputs": [],
      "stateMutability": "payable",
      "type": "function"
    },
    {
      "inputs": [
        {
          "internalType": "address",
          "name": "airline",
          "type": "address"
        },
        {
          "internalType": "string",
          "name": "flight",
          "type": "string"
        },
        {
          "internalType": "uint256",
          "name": "timestamp",
          "type": "uint256"
        }
      ],
      "name": "creditInsurees",
      "outputs": [],
      "stateMutability": "nonpayable",
      "type": "function"
    },
    {
      "inputs": [
        {
          "internalType": "address payable",
          "name": "passengerAddr",
          "type": "address"
        }
      ],
      "name": "pay",
      "outputs": [],
      "stateMutability": "payable",
      "type": "function"
    },
    {
      "inputs": [
        {
          "internalType": "address",
          "name": "airlineAddress",
          "type": "address"
        }
      ],
      "name": "fund",
      "outputs": [],
      "stateMutability": "payable",
      "type": "function"
    },
    {
      "inputs": [
        {
          "internalType": "address",
          "name": "addressAirline",
          "type": "address"
        }
      ],
      "name": "isAirline",
      "outputs": [
        {
          "internalType": "bool",
          "name": "",
          "type": "bool"
        }
      ],
      "stateMutability": "view",
      "type": "function"
    }
  ],
  "bytecode": "0x60806040526001600060146101000a81548160ff02191690831515021790555060006001553480156200003157600080fd5b5060405162003620380380620036208339818101604052810190620000579190620002fd565b336000806101000a81548173ffffffffffffffffffffffffffffffffffffffff021916908373ffffffffffffffffffffffffffffffffffffffff1602179055506001600360008060009054906101000a900473ffffffffffffffffffffffffffffffffffffffff1673ffffffffffffffffffffffffffffffffffffffff1673ffffffffffffffffffffffffffffffffffffffff168152602001908152602001600020819055506001600360008373ffffffffffffffffffffffffffffffffffffffff1673ffffffffffffffffffffffffffffffffffffffff168152602001908152602001600020819055506001808190555060405180608001604052806040518060400160405280600781526020017f456173794a65740000000000000000000000000000000000000000000000000081525081526020016000815260200160011515815260200160001515815250600260008373ffffffffffffffffffffffffffffffffffffffff1673ffffffffffffffffffffffffffffffffffffffff1681526020019081526020016000206000820151816000019081620001fc9190620005a9565b506020820151816001015560408201518160020160006101000a81548160ff02191690831515021790555060608201518160020160016101000a81548160ff0219169083151502179055509050507f25f9fb2771dcb7e35cd7dc59e706422d3d0791e486a63ed0c6dc9c0c684609b48160006001600060405162000284949392919062000762565b60405180910390a150620007c4565b600080fd5b600073ffffffffffffffffffffffffffffffffffffffff82169050919050565b6000620002c58262000298565b9050919050565b620002d781620002b8565b8114620002e357600080fd5b50565b600081519050620002f781620002cc565b92915050565b60006020828403121562000316576200031562000293565b5b60006200032684828501620002e6565b91505092915050565b600081519050919050565b7f4e487b7100000000000000000000000000000000000000000000000000000000600052604160045260246000fd5b7f4e487b7100000000000000000000000000000000000000000000000000000000600052602260045260246000fd5b60006002820490506001821680620003b157607f821691505b602082108103620003c757620003c662000369565b5b50919050565b60008190508160005260206000209050919050565b60006020601f8301049050919050565b600082821b905092915050565b600060088302620004317fffffffffffffffffffffffffffffffffffffffffffffffffffffffffffffffff82620003f2565b6200043d8683620003f2565b95508019841693508086168417925050509392505050565b6000819050919050565b6000819050919050565b60006200048a620004846200047e8462000455565b6200045f565b62000455565b9050919050565b6000819050919050565b620004a68362000469565b620004be620004b58262000491565b848454620003ff565b825550505050565b600090565b620004d5620004c6565b620004e28184846200049b565b505050565b5b818110156200050a57620004fe600082620004cb565b600181019050620004e8565b5050565b601f82111562000559576200052381620003cd565b6200052e84620003e2565b810160208510156200053e578190505b620005566200054d85620003e2565b830182620004e7565b50505b505050565b600082821c905092915050565b60006200057e600019846008026200055e565b1980831691505092915050565b60006200059983836200056b565b9150826002028217905092915050565b620005b4826200032f565b67ffffffffffffffff811115620005d057620005cf6200033a565b5b620005dc825462000398565b620005e98282856200050e565b600060209050601f8311600181146200062157600084156200060c578287015190505b6200061885826200058b565b86555062000688565b601f1984166200063186620003cd565b60005b828110156200065b5784890151825560018201915060208501945060208101905062000634565b868310156200067b578489015162000677601f8916826200056b565b8355505b6001600288020188555050505b505050505050565b6200069b81620002b8565b82525050565b600082825260208201905092915050565b7f456173794a657400000000000000000000000000000000000000000000000000600082015250565b6000620006ea600783620006a1565b9150620006f782620006b2565b602082019050919050565b6000819050919050565b60006200072d62000727620007218462000702565b6200045f565b62000455565b9050919050565b6200073f816200070c565b82525050565b60008115159050919050565b6200075c8162000745565b82525050565b600060a08201905062000779600083018762000690565b81810360208301526200078c81620006db565b90506200079d604083018662000734565b620007ac606083018562000751565b620007bb608083018462000751565b95945050505050565b612e4c80620007d46000396000f3fe6080604052600436106100c65760003560e01c80632c388d5d1161007f578063c8820a7011610059578063c8820a701461025b578063cd905dff14610284578063ee38a749146102af578063fe9fbb80146102d857610108565b80632c388d5d146101ff57806341c0e1b5146102285780639058e2281461023f57610108565b80630c11dedd1461010d5780630e248a1114610129578063110466ed146101665780631bcd250a1461018f57806323024408146101b85780632564158c146101d457610108565b36610108577f6f8a4ef0af7c27d2b604338870c106d39d43e1d4b880d73c04eb6a602403ab903034336040516100fe93929190611d36565b60405180910390a1005b600080fd5b61012760048036038101906101229190611db5565b610315565b005b34801561013557600080fd5b50610150600480360381019061014b9190611e0e565b6103f6565b60405161015d9190611e56565b60405180910390f35b34801561017257600080fd5b5061018d60048036038101906101889190611e9d565b61051d565b005b34801561019b57600080fd5b506101b660048036038101906101b19190611e0e565b6105c8565b005b6101d260048036038101906101cd9190611e0e565b610692565b005b3480156101e057600080fd5b506101e9610a72565b6040516101f69190611eca565b60405180910390f35b34801561020b57600080fd5b5061022660048036038101906102219190611e0e565b610a7e565b005b34801561023457600080fd5b5061023d610b48565b005b61025960048036038101906102549190611f1b565b610c44565b005b34801561026757600080fd5b50610282600480360381019061027d9190611fec565b610f67565b005b34801561029057600080fd5b506102996112b2565b6040516102a69190611e56565b60405180910390f35b3480156102bb57600080fd5b506102d660048036038101906102d19190612060565b6112c8565b005b3480156102e457600080fd5b506102ff60048036038101906102fa9190611e0e565b611c08565b60405161030c9190611eca565b60405180910390f35b600060149054906101000a900460ff16610364576040517f08c379a000000000000000000000000000000000000000000000000000000000815260040161035b90612143565b60405180910390fd5b6000600760008373ffffffffffffffffffffffffffffffffffffffff1673ffffffffffffffffffffffffffffffffffffffff1681526020019081526020016000206001015490508173ffffffffffffffffffffffffffffffffffffffff166108fc829081150290604051600060405180830381858888f193505050501580156103f1573d6000803e3d6000fd5b505050565b60008060149054906101000a900460ff16610446576040517f08c379a000000000000000000000000000000000000000000000000000000000815260040161043d90612143565b60405180910390fd5b600073ffffffffffffffffffffffffffffffffffffffff168273ffffffffffffffffffffffffffffffffffffffff16036104b5576040517f08c379a00000000000000000000000000000000000000000000000000000000081526004016104ac906121af565b60405180910390fd5b600260008373ffffffffffffffffffffffffffffffffffffffff1673ffffffffffffffffffffffffffffffffffffffff16815260200190815260200160002060020160009054906101000a900460ff16156105135760019050610518565b600090505b919050565b60008054906101000a900473ffffffffffffffffffffffffffffffffffffffff1673ffffffffffffffffffffffffffffffffffffffff163373ffffffffffffffffffffffffffffffffffffffff16146105ab576040517f08c379a00000000000000000000000000000000000000000000000000000000081526004016105a29061221b565b60405180910390fd5b80600060146101000a81548160ff02191690831515021790555050565b6001600360003373ffffffffffffffffffffffffffffffffffffffff1673ffffffffffffffffffffffffffffffffffffffff168152602001908152602001600020541461064a576040517f08c379a000000000000000000000000000000000000000000000000000000000815260040161064190612287565b60405180910390fd5b6000600360008373ffffffffffffffffffffffffffffffffffffffff1673ffffffffffffffffffffffffffffffffffffffff1681526020019081526020016000208190555050565b600060149054906101000a900460ff166106e1576040517f08c379a00000000000000000000000000000000000000000000000000000000081526004016106d890612143565b60405180910390fd5b67016345785d8a000034101561072c576040517f08c379a0000000000000000000000000000000000000000000000000000000008152600401610723906122f3565b60405180910390fd5b600260008273ffffffffffffffffffffffffffffffffffffffff1673ffffffffffffffffffffffffffffffffffffffff16815260200190815260200160002060020160009054906101000a900460ff166107bb576040517f08c379a00000000000000000000000000000000000000000000000000000000081526004016107b290612385565b60405180910390fd5b3073ffffffffffffffffffffffffffffffffffffffff166108fc349081150290604051600060405180830381858888f19350505050158015610801573d6000803e3d6000fd5b506000600260008373ffffffffffffffffffffffffffffffffffffffff1673ffffffffffffffffffffffffffffffffffffffff168152602001908152602001600020600101549050803461085591906123d4565b600260008473ffffffffffffffffffffffffffffffffffffffff1673ffffffffffffffffffffffffffffffffffffffff168152602001908152602001600020600101819055506001600260008473ffffffffffffffffffffffffffffffffffffffff1673ffffffffffffffffffffffffffffffffffffffff16815260200190815260200160002060020160016101000a81548160ff0219169083151502179055506001600260008473ffffffffffffffffffffffffffffffffffffffff1673ffffffffffffffffffffffffffffffffffffffff16815260200190815260200160002060020160006101000a81548160ff0219169083151502179055507f6fbaaab78edfc37d45cb8c9c1da7abb3d9da7def2efb8b291d0803d8bf2533c782600260008573ffffffffffffffffffffffffffffffffffffffff1673ffffffffffffffffffffffffffffffffffffffff16815260200190815260200160002060010154600260008673ffffffffffffffffffffffffffffffffffffffff1673ffffffffffffffffffffffffffffffffffffffff16815260200190815260200160002060020160009054906101000a900460ff16600260008773ffffffffffffffffffffffffffffffffffffffff1673ffffffffffffffffffffffffffffffffffffffff16815260200190815260200160002060020160019054906101000a900460ff16604051610a669493929190612408565b60405180910390a15050565b67016345785d8a000081565b6001600360003373ffffffffffffffffffffffffffffffffffffffff1673ffffffffffffffffffffffffffffffffffffffff1681526020019081526020016000205414610b00576040517f08c379a0000000000000000000000000000000000000000000000000000000008152600401610af790612287565b60405180910390fd5b6001600360008373ffffffffffffffffffffffffffffffffffffffff1673ffffffffffffffffffffffffffffffffffffffff1681526020019081526020016000208190555050565b60008054906101000a900473ffffffffffffffffffffffffffffffffffffffff1673ffffffffffffffffffffffffffffffffffffffff163373ffffffffffffffffffffffffffffffffffffffff1614610bd6576040517f08c379a0000000000000000000000000000000000000000000000000000000008152600401610bcd9061221b565b60405180910390fd5b60008054906101000a900473ffffffffffffffffffffffffffffffffffffffff1673ffffffffffffffffffffffffffffffffffffffff163373ffffffffffffffffffffffffffffffffffffffff1603610c42573373ffffffffffffffffffffffffffffffffffffffff16ff5b565b633b9aca003410158015610c605750670de0b6b3a76400003411155b610c9f576040517f08c379a0000000000000000000000000000000000000000000000000000000008152600401610c9690612499565b60405180910390fd5b6001600360003373ffffffffffffffffffffffffffffffffffffffff1673ffffffffffffffffffffffffffffffffffffffff1681526020019081526020016000205414610d21576040517f08c379a0000000000000000000000000000000000000000000000000000000008152600401610d1890612287565b60405180910390fd5b600060149054906101000a900460ff16610d70576040517f08c379a0000000000000000000000000000000000000000000000000000000008152600401610d6790612143565b60405180910390fd5b6000610d7c8383611c51565b9050600073ffffffffffffffffffffffffffffffffffffffff166006600083815260200190815260200160002060000160009054906101000a900473ffffffffffffffffffffffffffffffffffffffff1673ffffffffffffffffffffffffffffffffffffffff1603610e23576040517f08c379a0000000000000000000000000000000000000000000000000000000008152600401610e1a90612505565b60405180910390fd5b3073ffffffffffffffffffffffffffffffffffffffff166108fc349081150290604051600060405180830381858888f19350505050158015610e69573d6000803e3d6000fd5b5060405180606001604052808473ffffffffffffffffffffffffffffffffffffffff168152602001348152602001600015158152506006600083815260200190815260200160002060008201518160000160006101000a81548173ffffffffffffffffffffffffffffffffffffffff021916908373ffffffffffffffffffffffffffffffffffffffff1602179055506020820151816001015560408201518160020160006101000a81548160ff02191690831515021790555090505060056000838152602001908152602001600020600301819080600181540180825580915050600190039060005260206000200160009091909190915055505050565b6000610fb88585858080601f016020809104026020016040519081016040528093929190818152602001838380828437600081840152601f19601f8201169050808301925050505050505084611ca6565b905060005b60056000838152602001908152602001600020600301805490508110156112aa57600060056000848152602001908152602001600020600301828154811061100857611007612525565b5b9060005260206000200154905060006006600083815260200190815260200160002060000160009054906101000a900473ffffffffffffffffffffffffffffffffffffffff1690506000600660008481526020019081526020016000206001015490506000600a600f8361107c9190612554565b61108691906125c5565b905060016006600086815260200190815260200160002060020160006101000a81548160ff021916908315150217905550600760008473ffffffffffffffffffffffffffffffffffffffff1673ffffffffffffffffffffffffffffffffffffffff16815260200190815260200160002060020160009054906101000a900460ff16156111ab57600081600760008673ffffffffffffffffffffffffffffffffffffffff1673ffffffffffffffffffffffffffffffffffffffff1681526020019081526020016000206001015461115c91906123d4565b905080600760008673ffffffffffffffffffffffffffffffffffffffff1673ffffffffffffffffffffffffffffffffffffffff1681526020019081526020016000206001018190555050611293565b60405180606001604052808473ffffffffffffffffffffffffffffffffffffffff16815260200182815260200160011515815250600760008573ffffffffffffffffffffffffffffffffffffffff1673ffffffffffffffffffffffffffffffffffffffff16815260200190815260200160002060008201518160000160006101000a81548173ffffffffffffffffffffffffffffffffffffffff021916908373ffffffffffffffffffffffffffffffffffffffff1602179055506020820151816001015560408201518160020160006101000a81548160ff0219169083151502179055509050505b5050505080806112a2906125f6565b915050610fbd565b505050505050565b60008060149054906101000a900460ff16905090565b600060149054906101000a900460ff16611317576040517f08c379a000000000000000000000000000000000000000000000000000000000815260040161130e90612143565b60405180910390fd5b33836001600360008473ffffffffffffffffffffffffffffffffffffffff1673ffffffffffffffffffffffffffffffffffffffff168152602001908152602001600020541461139b576040517f08c379a0000000000000000000000000000000000000000000000000000000008152600401611392906126b0565b60405180910390fd5b600260008373ffffffffffffffffffffffffffffffffffffffff1673ffffffffffffffffffffffffffffffffffffffff16815260200190815260200160002060020160009054906101000a900460ff1661142a576040517f08c379a000000000000000000000000000000000000000000000000000000000815260040161142190612742565b60405180910390fd5b600260008373ffffffffffffffffffffffffffffffffffffffff1673ffffffffffffffffffffffffffffffffffffffff16815260200190815260200160002060020160019054906101000a900460ff166114b9576040517f08c379a00000000000000000000000000000000000000000000000000000000081526004016114b0906127d4565b60405180910390fd5b60046001541015611701577f322d9361d16dd795390f4a06fa068984ef116fddde0f53231333c177b6f745dc81600180546040516114f993929190612839565b60405180910390a1600260008673ffffffffffffffffffffffffffffffffffffffff1673ffffffffffffffffffffffffffffffffffffffff16815260200190815260200160002060020160009054906101000a900460ff1615611591576040517f08c379a0000000000000000000000000000000000000000000000000000000008152600401611588906128bc565b60405180910390fd5b604051806080016040528085858080601f016020809104026020016040519081016040528093929190818152602001838380828437600081840152601f19601f8201169050808301925050505050505081526020016000815260200160011515815260200160001515815250600260008773ffffffffffffffffffffffffffffffffffffffff1673ffffffffffffffffffffffffffffffffffffffff16815260200190815260200160002060008201518160000190816116519190612b18565b506020820151816001015560408201518160020160006101000a81548160ff02191690831515021790555060608201518160020160016101000a81548160ff0219169083151502179055509050506001600360008773ffffffffffffffffffffffffffffffffffffffff1673ffffffffffffffffffffffffffffffffffffffff16815260200190815260200160002081905550600160008154809291906116f7906125f6565b9190505550611c01565b600080600460008473ffffffffffffffffffffffffffffffffffffffff1673ffffffffffffffffffffffffffffffffffffffff1681526020019081526020016000208054806020026020016040519081016040528092919081815260200182805480156117c357602002820191906000526020600020905b8160009054906101000a900473ffffffffffffffffffffffffffffffffffffffff1673ffffffffffffffffffffffffffffffffffffffff1681526020019060010190808311611779575b5050505050905060005b815181101561183f578473ffffffffffffffffffffffffffffffffffffffff16828281518110611800576117ff612525565b5b602002602001015173ffffffffffffffffffffffffffffffffffffffff160361182c576001925061183f565b8080611837906125f6565b9150506117cd565b508115611881576040517f08c379a000000000000000000000000000000000000000000000000000000000815260040161187890612c36565b60405180910390fd5b600460008473ffffffffffffffffffffffffffffffffffffffff1673ffffffffffffffffffffffffffffffffffffffff168152602001908152602001600020849080600181540180825580915050600190039060005260206000200160009091909190916101000a81548173ffffffffffffffffffffffffffffffffffffffff021916908373ffffffffffffffffffffffffffffffffffffffff1602179055506000600460008573ffffffffffffffffffffffffffffffffffffffff1673ffffffffffffffffffffffffffffffffffffffff1681526020019081526020016000208054905090506000816001546119789190612c56565b9050808210611bbe577f322d9361d16dd795390f4a06fa068984ef116fddde0f53231333c177b6f745dc85836001546040516119b693929190612c8a565b60405180910390a1600260008a73ffffffffffffffffffffffffffffffffffffffff1673ffffffffffffffffffffffffffffffffffffffff16815260200190815260200160002060020160009054906101000a900460ff1615611a4e576040517f08c379a0000000000000000000000000000000000000000000000000000000008152600401611a45906128bc565b60405180910390fd5b604051806080016040528089898080601f016020809104026020016040519081016040528093929190818152602001838380828437600081840152601f19601f8201169050808301925050505050505081526020016000815260200160011515815260200160001515815250600260008b73ffffffffffffffffffffffffffffffffffffffff1673ffffffffffffffffffffffffffffffffffffffff1681526020019081526020016000206000820151816000019081611b0e9190612b18565b506020820151816001015560408201518160020160006101000a81548160ff02191690831515021790555060608201518160020160016101000a81548160ff0219169083151502179055509050506001600360008b73ffffffffffffffffffffffffffffffffffffffff1673ffffffffffffffffffffffffffffffffffffffff1681526020019081526020016000208190555060016000815480929190611bb4906125f6565b9190505550611bfc565b7f3c7f7c030c98798c9e0e3c891b9db46ef154068238bf5bbf38a38f59223718b68583600154604051611bf393929190612c8a565b60405180910390a15b505050505b5050505050565b6000600360008373ffffffffffffffffffffffffffffffffffffffff1673ffffffffffffffffffffffffffffffffffffffff168152602001908152602001600020549050919050565b60008060608473ffffffffffffffffffffffffffffffffffffffff16901b60001b90508083604051602001611c87929190612ce2565b6040516020818303038152906040528051906020012091505092915050565b6000838383604051602001611cbd93929190612ddd565b6040516020818303038152906040528051906020012090509392505050565b600073ffffffffffffffffffffffffffffffffffffffff82169050919050565b6000611d0782611cdc565b9050919050565b611d1781611cfc565b82525050565b6000819050919050565b611d3081611d1d565b82525050565b6000606082019050611d4b6000830186611d0e565b611d586020830185611d27565b611d656040830184611d0e565b949350505050565b600080fd5b600080fd5b6000611d8282611cdc565b9050919050565b611d9281611d77565b8114611d9d57600080fd5b50565b600081359050611daf81611d89565b92915050565b600060208284031215611dcb57611dca611d6d565b5b6000611dd984828501611da0565b91505092915050565b611deb81611cfc565b8114611df657600080fd5b50565b600081359050611e0881611de2565b92915050565b600060208284031215611e2457611e23611d6d565b5b6000611e3284828501611df9565b91505092915050565b60008115159050919050565b611e5081611e3b565b82525050565b6000602082019050611e6b6000830184611e47565b92915050565b611e7a81611e3b565b8114611e8557600080fd5b50565b600081359050611e9781611e71565b92915050565b600060208284031215611eb357611eb2611d6d565b5b6000611ec184828501611e88565b91505092915050565b6000602082019050611edf6000830184611d27565b92915050565b6000819050919050565b611ef881611ee5565b8114611f0357600080fd5b50565b600081359050611f1581611eef565b92915050565b60008060408385031215611f3257611f31611d6d565b5b6000611f4085828601611df9565b9250506020611f5185828601611f06565b9150509250929050565b600080fd5b600080fd5b600080fd5b60008083601f840112611f8057611f7f611f5b565b5b8235905067ffffffffffffffff811115611f9d57611f9c611f60565b5b602083019150836001820283011115611fb957611fb8611f65565b5b9250929050565b611fc981611d1d565b8114611fd457600080fd5b50565b600081359050611fe681611fc0565b92915050565b6000806000806060858703121561200657612005611d6d565b5b600061201487828801611df9565b945050602085013567ffffffffffffffff81111561203557612034611d72565b5b61204187828801611f6a565b9350935050604061205487828801611fd7565b91505092959194509250565b60008060006040848603121561207957612078611d6d565b5b600061208786828701611df9565b935050602084013567ffffffffffffffff8111156120a8576120a7611d72565b5b6120b486828701611f6a565b92509250509250925092565b600082825260208201905092915050565b7f436f6e74726163742069732063757272656e746c79206e6f74206f706572617460008201527f696f6e616c000000000000000000000000000000000000000000000000000000602082015250565b600061212d6025836120c0565b9150612138826120d1565b604082019050919050565b6000602082019050818103600083015261215c81612120565b9050919050565b7f3078302061646472657373206e6f7420616c6c6f776564210000000000000000600082015250565b60006121996018836120c0565b91506121a482612163565b602082019050919050565b600060208201905081810360008301526121c88161218c565b9050919050565b7f43616c6c6572206973206e6f7420636f6e7472616374206f776e657200000000600082015250565b6000612205601c836120c0565b9150612210826121cf565b602082019050919050565b60006020820190508181036000830152612234816121f8565b9050919050565b7f43616c6c6572206973206e6f7420617574686f72697a65642100000000000000600082015250565b60006122716019836120c0565b915061227c8261223b565b602082019050919050565b600060208201905081810360008301526122a081612264565b9050919050565b7f5b66756e645d20496e61646171756174652066756e64732073656e7400000000600082015250565b60006122dd601c836120c0565b91506122e8826122a7565b602082019050919050565b6000602082019050818103600083015261230c816122d0565b9050919050565b7f5b66756e645d204169726c696e65206973206e6f74207265676973746572656460008201527f2100000000000000000000000000000000000000000000000000000000000000602082015250565b600061236f6021836120c0565b915061237a82612313565b604082019050919050565b6000602082019050818103600083015261239e81612362565b9050919050565b7f4e487b7100000000000000000000000000000000000000000000000000000000600052601160045260246000fd5b60006123df82611d1d565b91506123ea83611d1d565b9250828201905080821115612402576124016123a5565b5b92915050565b600060808201905061241d6000830187611d0e565b61242a6020830186611d27565b6124376040830185611e47565b6124446060830184611e47565b95945050505050565b7f494e535552414e43452049532043415050454420415420312045544845520000600082015250565b6000612483601e836120c0565b915061248e8261244d565b602082019050919050565b600060208201905081810360008301526124b281612476565b9050919050565b7f50617373656e67657220616c72656164792068617320696e737572616e636521600082015250565b60006124ef6020836120c0565b91506124fa826124b9565b602082019050919050565b6000602082019050818103600083015261251e816124e2565b9050919050565b7f4e487b7100000000000000000000000000000000000000000000000000000000600052603260045260246000fd5b600061255f82611d1d565b915061256a83611d1d565b925082820261257881611d1d565b9150828204841483151761258f5761258e6123a5565b5b5092915050565b7f4e487b7100000000000000000000000000000000000000000000000000000000600052601260045260246000fd5b60006125d082611d1d565b91506125db83611d1d565b9250826125eb576125ea612596565b5b828204905092915050565b600061260182611d1d565b91507fffffffffffffffffffffffffffffffffffffffffffffffffffffffffffffffff8203612633576126326123a5565b5b600182019050919050565b7f5b6d756c74697061727479636f6e5d2043616c6c6572206973206e6f7420617560008201527f74686f72697a6564210000000000000000000000000000000000000000000000602082015250565b600061269a6029836120c0565b91506126a58261263e565b604082019050919050565b600060208201905081810360008301526126c98161268d565b9050919050565b7f5b6d756c74697061727479636f6e5d204169726c696e65206973206e6f74207260008201527f6567697374657265642100000000000000000000000000000000000000000000602082015250565b600061272c602a836120c0565b9150612737826126d0565b604082019050919050565b6000602082019050818103600083015261275b8161271f565b9050919050565b7f5b6d756c74697061727479636f6e5d204169726c696e65206973206e6f74206660008201527f756e646564210000000000000000000000000000000000000000000000000000602082015250565b60006127be6026836120c0565b91506127c982612762565b604082019050919050565b600060208201905081810360008301526127ed816127b1565b9050919050565b6000819050919050565b6000819050919050565b600061282361281e612819846127f4565b6127fe565b611d1d565b9050919050565b61283381612808565b82525050565b600060608201905061284e6000830186611d0e565b61285b602083018561282a565b6128686040830184611d27565b949350505050565b7f4169726c696e6520697320616c72656164792072656769737465726564210000600082015250565b60006128a6601e836120c0565b91506128b182612870565b602082019050919050565b600060208201905081810360008301526128d581612899565b9050919050565b600081519050919050565b7f4e487b7100000000000000000000000000000000000000000000000000000000600052604160045260246000fd5b7f4e487b7100000000000000000000000000000000000000000000000000000000600052602260045260246000fd5b6000600282049050600182168061295d57607f821691505b6020821081036129705761296f612916565b5b50919050565b60008190508160005260206000209050919050565b60006020601f8301049050919050565b600082821b905092915050565b6000600883026129d87fffffffffffffffffffffffffffffffffffffffffffffffffffffffffffffffff8261299b565b6129e2868361299b565b95508019841693508086168417925050509392505050565b6000612a15612a10612a0b84611d1d565b6127fe565b611d1d565b9050919050565b6000819050919050565b612a2f836129fa565b612a43612a3b82612a1c565b8484546129a8565b825550505050565b600090565b612a58612a4b565b612a63818484612a26565b505050565b5b81811015612a8757612a7c600082612a50565b600181019050612a69565b5050565b601f821115612acc57612a9d81612976565b612aa68461298b565b81016020851015612ab5578190505b612ac9612ac18561298b565b830182612a68565b50505b505050565b600082821c905092915050565b6000612aef60001984600802612ad1565b1980831691505092915050565b6000612b088383612ade565b9150826002028217905092915050565b612b21826128dc565b67ffffffffffffffff811115612b3a57612b396128e7565b5b612b448254612945565b612b4f828285612a8b565b600060209050601f831160018114612b825760008415612b70578287015190505b612b7a8582612afc565b865550612be2565b601f198416612b9086612976565b60005b82811015612bb857848901518255600182019150602085019450602081019050612b93565b86831015612bd55784890151612bd1601f891682612ade565b8355505b6001600288020188555050505b505050505050565b7f4169726c696e652068617320616c726561647920766f7465642e000000000000600082015250565b6000612c20601a836120c0565b9150612c2b82612bea565b602082019050919050565b60006020820190508181036000830152612c4f81612c13565b9050919050565b6000612c6182611d1d565b9150612c6c83611d1d565b9250828203905081811115612c8457612c836123a5565b5b92915050565b6000606082019050612c9f6000830186611d0e565b612cac6020830185611d27565b612cb96040830184611d27565b949350505050565b6000819050919050565b612cdc612cd782611ee5565b612cc1565b82525050565b6000612cee8285612ccb565b602082019150612cfe8284612ccb565b6020820191508190509392505050565b60008160601b9050919050565b6000612d2682612d0e565b9050919050565b6000612d3882612d1b565b9050919050565b612d50612d4b82611cfc565b612d2d565b82525050565b600081905092915050565b60005b83811015612d7f578082015181840152602081019050612d64565b60008484015250505050565b6000612d96826128dc565b612da08185612d56565b9350612db0818560208601612d61565b80840191505092915050565b6000819050919050565b612dd7612dd282611d1d565b612dbc565b82525050565b6000612de98286612d3f565b601482019150612df98285612d8b565b9150612e058284612dc6565b60208201915081905094935050505056fea2646970667358221220f5e5454ace3967d195c704b86b8cbcf2b50d5b6f372919c4c806ef1f8d9e505264736f6c63430008110033",
  "immutableReferences": {},
  "source": "// SPDX-License-Identifier: MIT\npragma solidity ^0.8.17;\n\n\ncontract FlightSuretyData {\n\n    /********************************************************************************************/\n    /*                                       DATA VARIABLES                                     */\n    /********************************************************************************************/\n\n    address private contractOwner;                                      // Account used to deploy contract\n    bool private operational = true;                                    // Blocks all state changes throughout the contract if false\n    uint256 public constant MIN_FUNDING_FEE = 0.1 ether;\n\n    // Airline\n    struct Airline {\n        string name;\n        uint256 funds;  \n        bool isRegistered;\n        bool isFunded; // Did they submit their stake?\n    }\n    // Since mappings don't have a length, count airlines\n    uint256 registeredAirlineCount = 0;\n    mapping(address => Airline) private airlines;\n\n    // To check that only App contract can call in!\n    mapping(address => uint256) authorizedCallers;                      \n\n    // Threshold below which all we need is a single airline to add a new airline                         \n    uint256 constant AIRLINE_THRESHOLD = 4;                                            \n    // Record which airlines that voted\n    // the key is the address we are voting to add and the value is an array of airline addresses who voted to add this airline\n    mapping(address => address[]) airlineVotes;           \n\n    struct Flight {\n        string flightName;\n        address airline;\n        uint8 statusCode;\n        uint256 timestamp;\n        bytes32[] insuranceContracts;\n    }\n\n    struct Insurance {\n        address payable passengerAddress;\n        uint            insuranceAmount;\n        bool            isPaid;\n    }\n\n    // Mapping from flight key to the Flight\n    mapping (bytes32 => Flight) private flights;\n    // From insurance key to an array of Insurance objects (per user and amount)\n    mapping (bytes32 => Insurance) private insurances;\n\n    struct Passenger {\n        address passengerAddr;\n        uint256 creditAmount;\n        bool exists;\n    }\n    mapping(address => Passenger) private passengers;\n\n    /********************************************************************************************/\n    /*                                       EVENT DEFINITIONS                                  */\n    /********************************************************************************************/\n    event AirlineFunded(address airline, uint256 amount, bool isRegistered, bool isFunded);\n    event FundsReceived(address receiver, uint256 amount, address sender);\n    event TestEvent(uint256 x);\n    event AirlineRegistered(address airlineAddress, string name, uint256 funds,  bool isRegistered, bool isFunded);\n    event AchievedMultiPartyConsensus(address newAirlineAddress, uint256 votesCount, uint airlinesCount);\n    event NotYetAchievedMultiPartyConsensus(address newAirlineAddress, uint256 votesCount, uint airlinesCount);\n\n\n    /**\n    * @dev Constructor\n    *      The deploying account becomes contractOwner\n    *      and we register the first airline...\n    *address airlineAddress, string memory airlineName)\n    */\n    constructor (address airlineAddress)\n    {\n        contractOwner = msg.sender;\n        // airline is the first authorized caller\n        authorizedCallers[contractOwner] = 1;\n        authorizedCallers[airlineAddress] = 1;\n        registeredAirlineCount = 1;\n        // name, funds, isRegistered, isFunded\n        airlines[airlineAddress] = Airline(\"EasyJet\", 0, true, false);\n        emit AirlineRegistered(airlineAddress, \"EasyJet\", 0, true, false);\n\n    }\n\n    /********************************************************************************************/\n    /*                                       FUNCTION MODIFIERS                                 */\n    /********************************************************************************************/\n\n    // Modifiers help avoid duplication of code. They are typically used to validate something\n    // before a function is allowed to be executed.\n\n    /**\n    * @dev Modifier that requires the \"operational\" boolean variable to be \"true\"\n    *      This is used on all state changing functions to pause the contract in \n    *      the event there is an issue that needs to be fixed\n    */\n    modifier requireIsOperational() \n    {\n        require(operational, \"Contract is currently not operational\");\n        _;  // All modifiers require an \"_\" which indicates where the function body will be added\n    }\n\n    /**\n    * @dev Modifier that requires the \"ContractOwner\" account to be the function caller\n    */\n    modifier requireContractOwner()\n    {\n        require(msg.sender == contractOwner, \"Caller is not contract owner\");\n        _;\n    }\n\n    /**\n    * @dev Modifier checking that only the App contract can call in! --> For every externally callable function!\n    */\n    modifier isCallerAuthorized()\n    {\n        require(authorizedCallers[msg.sender] == 1, \"Caller is not authorized!\");\n        _;\n    }\n\n    /** \n    * @dev Modifier that implements multi-party consensus to execute a specific function\n    */\n    modifier requireMultiPartyConsensus(address caller, address newAirlineAddress)\n    {\n        // You have to be an authorized airline to even have a vote\n        // you have to also be a registered and funded airline\n        require(authorizedCallers[caller] == 1, \"[multipartycon] Caller is not authorized!\");\n        require(airlines[caller].isRegistered, \"[multipartycon] Airline is not registered!\");\n        require(airlines[caller].isFunded, \"[multipartycon] Airline is not funded!\");\n\n        \n        if (registeredAirlineCount < AIRLINE_THRESHOLD){\n            // If less than 4 airlines registered all we need is 1 vote from any authorized airline\n            // no multi-party consensus required\n            emit AchievedMultiPartyConsensus(newAirlineAddress, 1, registeredAirlineCount);\n            _;\n        }else{\n            // Check if this Airline already made its vote to avoid them voting twice\n            bool isDuplicate = false;\n            address[] memory currentVotes = airlineVotes[newAirlineAddress];\n            for(uint c=0; c< currentVotes.length; c++) {\n                if (currentVotes[c] == caller) {\n                    isDuplicate = true;\n                    break;\n                    }\n            }\n            require(!isDuplicate, \"Airline has already voted.\");\n\n            // If not then add the vote to the array of votes for this newairline\n            airlineVotes[newAirlineAddress].push(caller);\n\n\n            // Check if it was a sufficient number of votes to achieve consensus\n            uint256 numberOfVotes = airlineVotes[newAirlineAddress].length;\n            uint256 unvotedCount = registeredAirlineCount - numberOfVotes;\n            if(numberOfVotes >= unvotedCount){\n                emit AchievedMultiPartyConsensus(newAirlineAddress, numberOfVotes, registeredAirlineCount);\n                _;\n            }else{\n                emit NotYetAchievedMultiPartyConsensus(newAirlineAddress, numberOfVotes, registeredAirlineCount);\n            }\n        }\n\n    }\n\n    modifier checkPassengerBuyAmount() {\n        require(msg.value >= 1 gwei && msg.value <= 1 ether, \"INSURANCE IS CAPPED AT 1 ETHER\");\n        _;\n    }\n\n    /********************************************************************************************/\n    /*                                       UTILITY FUNCTIONS                                  */\n    /********************************************************************************************/\n    function kill() public requireContractOwner() {\n        if (msg.sender == contractOwner) {\n            selfdestruct(payable(msg.sender));\n        }\n    }\n\n    function authorizeCaller(address _caller) public isCallerAuthorized {\n        // only other authorized callers (airlines) can add other authorized callers\n        authorizedCallers[_caller] = 1;\n    }\n\n    function isAuthorized(address _caller) public view returns(uint256) {\n        return authorizedCallers[_caller];\n    }\n\n    function deAuthorizeCaller(address _caller) public isCallerAuthorized {\n        authorizedCallers[_caller] = 0;\n    }\n    /**\n    * @dev Get operating status of contract\n    *\n    * @return A bool that is the current operating status\n    */      \n    function isOperational() \n                            public \n                            view \n                            returns(bool) \n    {\n        return operational;\n    }\n\n\n    /**\n    * @dev Sets contract operations on/off\n    *\n    * When operational mode is disabled, all write transactions except for this one will fail\n    */    \n    function setOperatingStatus\n                            (\n                                bool mode\n                            ) \n                            external\n                            requireContractOwner \n    {\n        operational = mode;\n    }\n\n    /********************************************************************************************/\n    /*                                     SMART CONTRACT FUNCTIONS                             */\n    /********************************************************************************************/\n\n   /**\n    * @dev Add an airline to the registration queue\n    *      Can only be called from FlightSuretyApp contract\n    *\n    */   \n    function registerAirline\n                            (\n                                address airlineAddress,\n                                string calldata name  \n                            )\n                            external\n                            requireIsOperational\n                            requireMultiPartyConsensus(msg.sender, airlineAddress)\n    {\n        require(!airlines[airlineAddress].isRegistered, \"Airline is already registered!\");\n\n        // Data structure for Airlines?\n        airlines[airlineAddress] = Airline(name, 0, true, false);\n        authorizedCallers[airlineAddress] = 1;\n        registeredAirlineCount++;\n\n    }\n\n\n   /**\n    * @dev Buy insurance for a flight\n    *\n    */   \n    function buy(address _passengerAddress, bytes32 _flightKey) external payable \n    checkPassengerBuyAmount() isCallerAuthorized() requireIsOperational() {        \n        \n        bytes32 _insuranceKey = getInsuranceKey(_passengerAddress, _flightKey);\n        \n        require(insurances[_insuranceKey].passengerAddress != address(0), \"Passenger already has insurance!\");\n        payable(address(this)).transfer(msg.value);\n        \n        insurances[_insuranceKey] = Insurance({\n                passengerAddress: payable(_passengerAddress),\n                insuranceAmount: msg.value,\n                isPaid: false\n                });\n\n        flights[_flightKey].insuranceContracts.push(_insuranceKey);\n    }\n\n    /**\n     *  @dev Credits payouts to insurees\n    */\n    function creditInsurees\n                                (\n                                    address airline,\n                                    string calldata flight,\n                                    uint256 timestamp\n                                )\n                                external\n    {\n        bytes32 flightKey = getFlightKey(airline, flight, timestamp);\n\n        for (uint256 i = 0; i < flights[flightKey].insuranceContracts.length; i++) {\n            bytes32 insuranceContractKey = flights[flightKey].insuranceContracts[i];\n\n            address passengerAddress = insurances[insuranceContractKey].passengerAddress;\n            uint256 insuranceAmount = insurances[insuranceContractKey].insuranceAmount;\n            uint256 payAmount = insuranceAmount * 15/10;\n            insurances[insuranceContractKey].isPaid = true;\n\n            if(passengers[passengerAddress].exists){\n\n                uint256 updatedCreditAmount = passengers[passengerAddress].creditAmount + payAmount;\n                passengers[passengerAddress].creditAmount = updatedCreditAmount;\n            \n            } else {\n\n                passengers[passengerAddress] = Passenger({\n                                                passengerAddr: passengerAddress,\n                                                creditAmount: payAmount,\n                                                exists: true\n                                        });\n\n            }\n\n        }\n    }\n    \n    \n\n    /**\n     *  @dev Transfers eligible payout funds to insuree\n     *\n    */\n    function pay\n                            (\n                                address payable passengerAddr\n                            )\n                            external\n                            payable\n                            requireIsOperational\n    {\n        uint256 payment = passengers[passengerAddr].creditAmount;\n        passengerAddr.transfer(payment);\n    }\n\n   /**\n    * @dev Initial funding for the insurance. Unless there are too many delayed flights\n    *      resulting in insurance payouts, the contract should be self-sustaining\n    *\n    */   \n    function fund(address airlineAddress)\n        external\n        payable\n        requireIsOperational\n    {\n        require(msg.value >= MIN_FUNDING_FEE, \"[fund] Inadaquate funds sent\");\n        require(airlines[airlineAddress].isRegistered, \"[fund] Airline is not registered!\");\n\n        // Transfer to the contract those funds\n        //payable(contractOwner).transfer(msg.value);\n        payable(address(this)).transfer(msg.value);\n\n        // Add to the Airline's funds\n        uint256 currentFunds = airlines[airlineAddress].funds;\n        airlines[airlineAddress].funds = msg.value + currentFunds;\n        airlines[airlineAddress].isFunded = true;\n        airlines[airlineAddress].isRegistered = true;\n\n        emit AirlineFunded(airlineAddress,  airlines[airlineAddress].funds, airlines[airlineAddress].isRegistered, airlines[airlineAddress].isFunded);\n\n    }\n\n    function getInsuranceKey(address _passengerAddress, bytes32 _flightKey) pure internal returns(bytes32) {\n        bytes32 _addressToBytes32 = bytes32(uint256(uint160(_passengerAddress)) << 96);\n        return keccak256(abi.encodePacked(_addressToBytes32, _flightKey));\n        //return keccak256(abi.encodePacked(_passengerAddress, _flightKey));\n    }\n\n    function getFlightKey\n                        (\n                            address airline,\n                            string memory flight,\n                            uint256 timestamp\n                        )\n                        pure\n                        internal\n                        returns(bytes32) \n    {\n        return keccak256(abi.encodePacked(airline, flight, timestamp));\n    }\n\n    /**\n    * @dev Checking if registered airline is registered\n    */    \n    function isAirline (address addressAirline) external view requireIsOperational returns(bool) {\n        require(addressAirline != address(0), \"0x0 address not allowed!\");\n        if(airlines[addressAirline].isRegistered){\n            return true;\n        } else{\n            return false;\n        }\n    } \n\n    /**\n    * @dev Fallback function for funding smart contract.\n    *\n    */\n    // fallback() \n    //                         external \n    //                         payable \n    // {\n    //     emit FundsAdded(address(this), msg.value);\n    // }\n\n    receive() external payable {\n        emit FundsReceived(address(this), msg.value, msg.sender);\n    }\n\n}\n\n",
  "sourcePath": "/Users/leehodgkinson/IdeaProjects/MyFlightSurety/contracts/FlightSuretyData.sol",
  "compiler": {
    "name": "solc",
    "version": "0.8.17+commit.8df45f5f.Emscripten.clang"
  },
  "schemaVersion": "3.4.10",
  "updatedAt": "2022-10-21T03:44:23.657Z",
  "devdoc": {
    "kind": "dev",
    "methods": {
      "buy(address,bytes32)": {
        "details": "Buy insurance for a flight"
      },
      "constructor": {
        "details": "Constructor      The deploying account becomes contractOwner      and we register the first airline... address airlineAddress, string memory airlineName)"
      },
      "creditInsurees(address,string,uint256)": {
        "details": "Credits payouts to insurees"
      },
      "fund(address)": {
        "details": "Initial funding for the insurance. Unless there are too many delayed flights      resulting in insurance payouts, the contract should be self-sustaining"
      },
      "isAirline(address)": {
        "details": "Checking if registered airline is registered"
      },
      "isOperational()": {
        "details": "Get operating status of contract",
        "returns": {
          "_0": "A bool that is the current operating status"
        }
      },
      "pay(address)": {
        "details": "Transfers eligible payout funds to insuree"
      },
      "registerAirline(address,string)": {
        "details": "Add an airline to the registration queue      Can only be called from FlightSuretyApp contract"
      },
      "setOperatingStatus(bool)": {
        "details": "Sets contract operations on/off When operational mode is disabled, all write transactions except for this one will fail"
      }
    },
    "version": 1
  },
  "userdoc": {
    "kind": "user",
    "methods": {},
    "version": 1
  }
}