{
  "contractName": "FlightSuretyData",
  "abi": [
    {
      "inputs": [
        {
          "internalType": "address",
          "name": "airlineAddress",
          "type": "address"
        }
      ],
      "stateMutability": "nonpayable",
      "type": "constructor"
    },
    {
      "anonymous": false,
      "inputs": [
        {
          "indexed": false,
          "internalType": "address",
          "name": "newAirlineAddress",
          "type": "address"
        },
        {
          "indexed": false,
          "internalType": "uint256",
          "name": "votesCount",
          "type": "uint256"
        },
        {
          "indexed": false,
          "internalType": "uint256",
          "name": "airlinesCount",
          "type": "uint256"
        }
      ],
      "name": "AchievedMultiPartyConsensus",
      "type": "event"
    },
    {
      "anonymous": false,
      "inputs": [
        {
          "indexed": false,
          "internalType": "address",
          "name": "airlineAddress",
          "type": "address"
        },
        {
          "indexed": false,
          "internalType": "string",
          "name": "name",
          "type": "string"
        },
        {
          "indexed": false,
          "internalType": "uint256",
          "name": "funds",
          "type": "uint256"
        },
        {
          "indexed": false,
          "internalType": "bool",
          "name": "isRegistered",
          "type": "bool"
        },
        {
          "indexed": false,
          "internalType": "bool",
          "name": "isFunded",
          "type": "bool"
        }
      ],
      "name": "AirlineRegistered",
      "type": "event"
    },
    {
      "anonymous": false,
      "inputs": [
        {
          "indexed": false,
          "internalType": "address",
          "name": "receiver",
          "type": "address"
        },
        {
          "indexed": false,
          "internalType": "uint256",
          "name": "amount",
          "type": "uint256"
        }
      ],
      "name": "FundsAdded",
      "type": "event"
    },
    {
      "anonymous": false,
      "inputs": [
        {
          "indexed": false,
          "internalType": "uint256",
          "name": "x",
          "type": "uint256"
        }
      ],
      "name": "TestEvent",
      "type": "event"
    },
    {
      "inputs": [],
      "name": "MIN_FUNDING_FEE",
      "outputs": [
        {
          "internalType": "uint256",
          "name": "",
          "type": "uint256"
        }
      ],
      "stateMutability": "view",
      "type": "function"
    },
    {
      "inputs": [],
      "name": "kill",
      "outputs": [],
      "stateMutability": "nonpayable",
      "type": "function"
    },
    {
      "inputs": [
        {
          "internalType": "address",
          "name": "_caller",
          "type": "address"
        }
      ],
      "name": "authorizeCaller",
      "outputs": [],
      "stateMutability": "nonpayable",
      "type": "function"
    },
    {
      "inputs": [
        {
          "internalType": "address",
          "name": "_caller",
          "type": "address"
        }
      ],
      "name": "isAuthorized",
      "outputs": [
        {
          "internalType": "uint256",
          "name": "",
          "type": "uint256"
        }
      ],
      "stateMutability": "view",
      "type": "function"
    },
    {
      "inputs": [
        {
          "internalType": "address",
          "name": "_caller",
          "type": "address"
        }
      ],
      "name": "deAuthorizeCaller",
      "outputs": [],
      "stateMutability": "nonpayable",
      "type": "function"
    },
    {
      "inputs": [],
      "name": "isOperational",
      "outputs": [
        {
          "internalType": "bool",
          "name": "",
          "type": "bool"
        }
      ],
      "stateMutability": "view",
      "type": "function"
    },
    {
      "inputs": [
        {
          "internalType": "bool",
          "name": "mode",
          "type": "bool"
        }
      ],
      "name": "setOperatingStatus",
      "outputs": [],
      "stateMutability": "nonpayable",
      "type": "function"
    },
    {
      "inputs": [
        {
          "internalType": "address",
          "name": "airlineAddress",
          "type": "address"
        },
        {
          "internalType": "string",
          "name": "name",
          "type": "string"
        }
      ],
      "name": "registerAirline",
      "outputs": [],
      "stateMutability": "nonpayable",
      "type": "function"
    },
    {
      "inputs": [],
      "name": "buy",
      "outputs": [],
      "stateMutability": "payable",
      "type": "function"
    },
    {
      "inputs": [],
      "name": "creditInsurees",
      "outputs": [],
      "stateMutability": "pure",
      "type": "function"
    },
    {
      "inputs": [],
      "name": "pay",
      "outputs": [],
      "stateMutability": "pure",
      "type": "function"
    },
    {
      "inputs": [
        {
          "internalType": "address",
          "name": "airlineAddress",
          "type": "address"
        }
      ],
      "name": "fund",
      "outputs": [],
      "stateMutability": "payable",
      "type": "function"
    },
    {
      "inputs": [
        {
          "internalType": "address",
          "name": "addressAirline",
          "type": "address"
        }
      ],
      "name": "isAirline",
      "outputs": [
        {
          "internalType": "bool",
          "name": "",
          "type": "bool"
        }
      ],
      "stateMutability": "view",
      "type": "function"
    }
  ],
  "bytecode": "0x60806040526001600060146101000a81548160ff02191690831515021790555060006001553480156200003157600080fd5b50604051620027c8380380620027c88339818101604052810190620000579190620002fd565b336000806101000a81548173ffffffffffffffffffffffffffffffffffffffff021916908373ffffffffffffffffffffffffffffffffffffffff1602179055506001600360008060009054906101000a900473ffffffffffffffffffffffffffffffffffffffff1673ffffffffffffffffffffffffffffffffffffffff1673ffffffffffffffffffffffffffffffffffffffff168152602001908152602001600020819055506001600360008373ffffffffffffffffffffffffffffffffffffffff1673ffffffffffffffffffffffffffffffffffffffff168152602001908152602001600020819055506001808190555060405180608001604052806040518060400160405280600781526020017f456173794a65740000000000000000000000000000000000000000000000000081525081526020016000815260200160011515815260200160001515815250600260008373ffffffffffffffffffffffffffffffffffffffff1673ffffffffffffffffffffffffffffffffffffffff1681526020019081526020016000206000820151816000019081620001fc9190620005a9565b506020820151816001015560408201518160020160006101000a81548160ff02191690831515021790555060608201518160020160016101000a81548160ff0219169083151502179055509050507f25f9fb2771dcb7e35cd7dc59e706422d3d0791e486a63ed0c6dc9c0c684609b48160006001600060405162000284949392919062000762565b60405180910390a150620007c4565b600080fd5b600073ffffffffffffffffffffffffffffffffffffffff82169050919050565b6000620002c58262000298565b9050919050565b620002d781620002b8565b8114620002e357600080fd5b50565b600081519050620002f781620002cc565b92915050565b60006020828403121562000316576200031562000293565b5b60006200032684828501620002e6565b91505092915050565b600081519050919050565b7f4e487b7100000000000000000000000000000000000000000000000000000000600052604160045260246000fd5b7f4e487b7100000000000000000000000000000000000000000000000000000000600052602260045260246000fd5b60006002820490506001821680620003b157607f821691505b602082108103620003c757620003c662000369565b5b50919050565b60008190508160005260206000209050919050565b60006020601f8301049050919050565b600082821b905092915050565b600060088302620004317fffffffffffffffffffffffffffffffffffffffffffffffffffffffffffffffff82620003f2565b6200043d8683620003f2565b95508019841693508086168417925050509392505050565b6000819050919050565b6000819050919050565b60006200048a620004846200047e8462000455565b6200045f565b62000455565b9050919050565b6000819050919050565b620004a68362000469565b620004be620004b58262000491565b848454620003ff565b825550505050565b600090565b620004d5620004c6565b620004e28184846200049b565b505050565b5b818110156200050a57620004fe600082620004cb565b600181019050620004e8565b5050565b601f82111562000559576200052381620003cd565b6200052e84620003e2565b810160208510156200053e578190505b620005566200054d85620003e2565b830182620004e7565b50505b505050565b600082821c905092915050565b60006200057e600019846008026200055e565b1980831691505092915050565b60006200059983836200056b565b9150826002028217905092915050565b620005b4826200032f565b67ffffffffffffffff811115620005d057620005cf6200033a565b5b620005dc825462000398565b620005e98282856200050e565b600060209050601f8311600181146200062157600084156200060c578287015190505b6200061885826200058b565b86555062000688565b601f1984166200063186620003cd565b60005b828110156200065b5784890151825560018201915060208501945060208101905062000634565b868310156200067b578489015162000677601f8916826200056b565b8355505b6001600288020188555050505b505050505050565b6200069b81620002b8565b82525050565b600082825260208201905092915050565b7f456173794a657400000000000000000000000000000000000000000000000000600082015250565b6000620006ea600783620006a1565b9150620006f782620006b2565b602082019050919050565b6000819050919050565b60006200072d62000727620007218462000702565b6200045f565b62000455565b9050919050565b6200073f816200070c565b82525050565b60008115159050919050565b6200075c8162000745565b82525050565b600060a08201905062000779600083018762000690565b81810360208301526200078c81620006db565b90506200079d604083018662000734565b620007ac606083018562000751565b620007bb608083018462000751565b95945050505050565b611ff480620007d46000396000f3fe6080604052600436106100c25760003560e01c80632c388d5d1161007f578063a6f2ae3a11610059578063a6f2ae3a1461020b578063cd905dff14610215578063ee38a74914610240578063fe9fbb8014610269576100c2565b80632c388d5d146101b457806336cee484146101dd57806341c0e1b5146101f4576100c2565b80630e248a11146100c7578063110466ed146101045780631b9265b81461012d5780631bcd250a14610144578063230244081461016d5780632564158c14610189575b600080fd5b3480156100d357600080fd5b506100ee60048036038101906100e99190611301565b6102a6565b6040516100fb9190611349565b60405180910390f35b34801561011057600080fd5b5061012b60048036038101906101269190611390565b6103cd565b005b34801561013957600080fd5b50610142610478565b005b34801561015057600080fd5b5061016b60048036038101906101669190611301565b61047a565b005b61018760048036038101906101829190611301565b610544565b005b34801561019557600080fd5b5061019e6107e5565b6040516101ab91906113d6565b60405180910390f35b3480156101c057600080fd5b506101db60048036038101906101d69190611301565b6107f1565b005b3480156101e957600080fd5b506101f26108bb565b005b34801561020057600080fd5b506102096108bd565b005b6102136109b9565b005b34801561022157600080fd5b5061022a6109bb565b6040516102379190611349565b60405180910390f35b34801561024c57600080fd5b5061026760048036038101906102629190611456565b6109d1565b005b34801561027557600080fd5b50610290600480360381019061028b9190611301565b611250565b60405161029d91906113d6565b60405180910390f35b60008060149054906101000a900460ff166102f6576040517f08c379a00000000000000000000000000000000000000000000000000000000081526004016102ed90611539565b60405180910390fd5b600073ffffffffffffffffffffffffffffffffffffffff168273ffffffffffffffffffffffffffffffffffffffff1603610365576040517f08c379a000000000000000000000000000000000000000000000000000000000815260040161035c906115a5565b60405180910390fd5b600260008373ffffffffffffffffffffffffffffffffffffffff1673ffffffffffffffffffffffffffffffffffffffff16815260200190815260200160002060020160009054906101000a900460ff16156103c357600190506103c8565b600090505b919050565b60008054906101000a900473ffffffffffffffffffffffffffffffffffffffff1673ffffffffffffffffffffffffffffffffffffffff163373ffffffffffffffffffffffffffffffffffffffff161461045b576040517f08c379a000000000000000000000000000000000000000000000000000000000815260040161045290611611565b60405180910390fd5b80600060146101000a81548160ff02191690831515021790555050565b565b6001600360003373ffffffffffffffffffffffffffffffffffffffff1673ffffffffffffffffffffffffffffffffffffffff16815260200190815260200160002054146104fc576040517f08c379a00000000000000000000000000000000000000000000000000000000081526004016104f39061167d565b60405180910390fd5b6000600360008373ffffffffffffffffffffffffffffffffffffffff1673ffffffffffffffffffffffffffffffffffffffff1681526020019081526020016000208190555050565b600060149054906101000a900460ff16610593576040517f08c379a000000000000000000000000000000000000000000000000000000000815260040161058a90611539565b60405180910390fd5b678ac7230489e800003410156105de576040517f08c379a00000000000000000000000000000000000000000000000000000000081526004016105d5906116e9565b60405180910390fd5b600260008273ffffffffffffffffffffffffffffffffffffffff1673ffffffffffffffffffffffffffffffffffffffff16815260200190815260200160002060020160009054906101000a900460ff1661066d576040517f08c379a00000000000000000000000000000000000000000000000000000000081526004016106649061177b565b60405180910390fd5b3073ffffffffffffffffffffffffffffffffffffffff166108fc349081150290604051600060405180830381858888f193505050501580156106b3573d6000803e3d6000fd5b506000600260008373ffffffffffffffffffffffffffffffffffffffff1673ffffffffffffffffffffffffffffffffffffffff168152602001908152602001600020600101549050803461070791906117ca565b600260008473ffffffffffffffffffffffffffffffffffffffff1673ffffffffffffffffffffffffffffffffffffffff168152602001908152602001600020600101819055506001600260008473ffffffffffffffffffffffffffffffffffffffff1673ffffffffffffffffffffffffffffffffffffffff16815260200190815260200160002060020160016101000a81548160ff0219169083151502179055507f8fe10ae416f22f5e5220b0018a6c1d4ff534d6aa3a471f2a20cb7747fe63e5b982346040516107d992919061180d565b60405180910390a15050565b678ac7230489e8000081565b6001600360003373ffffffffffffffffffffffffffffffffffffffff1673ffffffffffffffffffffffffffffffffffffffff1681526020019081526020016000205414610873576040517f08c379a000000000000000000000000000000000000000000000000000000000815260040161086a9061167d565b60405180910390fd5b6001600360008373ffffffffffffffffffffffffffffffffffffffff1673ffffffffffffffffffffffffffffffffffffffff1681526020019081526020016000208190555050565b565b60008054906101000a900473ffffffffffffffffffffffffffffffffffffffff1673ffffffffffffffffffffffffffffffffffffffff163373ffffffffffffffffffffffffffffffffffffffff161461094b576040517f08c379a000000000000000000000000000000000000000000000000000000000815260040161094290611611565b60405180910390fd5b60008054906101000a900473ffffffffffffffffffffffffffffffffffffffff1673ffffffffffffffffffffffffffffffffffffffff163373ffffffffffffffffffffffffffffffffffffffff16036109b7573373ffffffffffffffffffffffffffffffffffffffff16ff5b565b565b60008060149054906101000a900460ff16905090565b600060149054906101000a900460ff16610a20576040517f08c379a0000000000000000000000000000000000000000000000000000000008152600401610a1790611539565b60405180910390fd5b33836001600360008473ffffffffffffffffffffffffffffffffffffffff1673ffffffffffffffffffffffffffffffffffffffff1681526020019081526020016000205414610aa4576040517f08c379a0000000000000000000000000000000000000000000000000000000008152600401610a9b906118a8565b60405180910390fd5b600260008373ffffffffffffffffffffffffffffffffffffffff1673ffffffffffffffffffffffffffffffffffffffff16815260200190815260200160002060020160009054906101000a900460ff16610b33576040517f08c379a0000000000000000000000000000000000000000000000000000000008152600401610b2a9061193a565b60405180910390fd5b600260008373ffffffffffffffffffffffffffffffffffffffff1673ffffffffffffffffffffffffffffffffffffffff16815260200190815260200160002060020160019054906101000a900460ff16610bc2576040517f08c379a0000000000000000000000000000000000000000000000000000000008152600401610bb9906119cc565b60405180910390fd5b60046001541015610d8857600260008673ffffffffffffffffffffffffffffffffffffffff1673ffffffffffffffffffffffffffffffffffffffff16815260200190815260200160002060020160009054906101000a900460ff1615610c5d576040517f08c379a0000000000000000000000000000000000000000000000000000000008152600401610c5490611a38565b60405180910390fd5b604051806080016040528085858080601f016020809104026020016040519081016040528093929190818152602001838380828437600081840152601f19601f8201169050808301925050505050505081526020016000815260200160011515815260200160001515815250600260003373ffffffffffffffffffffffffffffffffffffffff1673ffffffffffffffffffffffffffffffffffffffff1681526020019081526020016000206000820151816000019081610d1d9190611c9e565b506020820151816001015560408201518160020160006101000a81548160ff02191690831515021790555060608201518160020160016101000a81548160ff02191690831515021790555090505060016000815480929190610d7e90611d70565b9190505550611249565b600080600460008473ffffffffffffffffffffffffffffffffffffffff1673ffffffffffffffffffffffffffffffffffffffff168152602001908152602001600020805480602002602001604051908101604052809291908181526020018280548015610e4a57602002820191906000526020600020905b8160009054906101000a900473ffffffffffffffffffffffffffffffffffffffff1673ffffffffffffffffffffffffffffffffffffffff1681526020019060010190808311610e00575b5050505050905060005b8151811015610ec6578473ffffffffffffffffffffffffffffffffffffffff16828281518110610e8757610e86611db8565b5b602002602001015173ffffffffffffffffffffffffffffffffffffffff1603610eb35760019250610ec6565b8080610ebe90611d70565b915050610e54565b508115610f08576040517f08c379a0000000000000000000000000000000000000000000000000000000008152600401610eff90611e33565b60405180910390fd5b600460008473ffffffffffffffffffffffffffffffffffffffff1673ffffffffffffffffffffffffffffffffffffffff168152602001908152602001600020849080600181540180825580915050600190039060005260206000200160009091909190916101000a81548173ffffffffffffffffffffffffffffffffffffffff021916908373ffffffffffffffffffffffffffffffffffffffff1602179055506000600460008573ffffffffffffffffffffffffffffffffffffffff1673ffffffffffffffffffffffffffffffffffffffff168152602001908152602001600020805490509050600060015482610fff9190611e82565b606461100b9190611eb3565b90506032811015611051576040517f08c379a000000000000000000000000000000000000000000000000000000000815260040161104890611f67565b60405180910390fd5b7f322d9361d16dd795390f4a06fa068984ef116fddde0f53231333c177b6f745dc858360015460405161108693929190611f87565b60405180910390a1600260008a73ffffffffffffffffffffffffffffffffffffffff1673ffffffffffffffffffffffffffffffffffffffff16815260200190815260200160002060020160009054906101000a900460ff161561111e576040517f08c379a000000000000000000000000000000000000000000000000000000000815260040161111590611a38565b60405180910390fd5b604051806080016040528089898080601f016020809104026020016040519081016040528093929190818152602001838380828437600081840152601f19601f8201169050808301925050505050505081526020016000815260200160011515815260200160001515815250600260003373ffffffffffffffffffffffffffffffffffffffff1673ffffffffffffffffffffffffffffffffffffffff16815260200190815260200160002060008201518160000190816111de9190611c9e565b506020820151816001015560408201518160020160006101000a81548160ff02191690831515021790555060608201518160020160016101000a81548160ff0219169083151502179055509050506001600081548092919061123f90611d70565b9190505550505050505b5050505050565b6000600360008373ffffffffffffffffffffffffffffffffffffffff1673ffffffffffffffffffffffffffffffffffffffff168152602001908152602001600020549050919050565b600080fd5b600080fd5b600073ffffffffffffffffffffffffffffffffffffffff82169050919050565b60006112ce826112a3565b9050919050565b6112de816112c3565b81146112e957600080fd5b50565b6000813590506112fb816112d5565b92915050565b60006020828403121561131757611316611299565b5b6000611325848285016112ec565b91505092915050565b60008115159050919050565b6113438161132e565b82525050565b600060208201905061135e600083018461133a565b92915050565b61136d8161132e565b811461137857600080fd5b50565b60008135905061138a81611364565b92915050565b6000602082840312156113a6576113a5611299565b5b60006113b48482850161137b565b91505092915050565b6000819050919050565b6113d0816113bd565b82525050565b60006020820190506113eb60008301846113c7565b92915050565b600080fd5b600080fd5b600080fd5b60008083601f840112611416576114156113f1565b5b8235905067ffffffffffffffff811115611433576114326113f6565b5b60208301915083600182028301111561144f5761144e6113fb565b5b9250929050565b60008060006040848603121561146f5761146e611299565b5b600061147d868287016112ec565b935050602084013567ffffffffffffffff81111561149e5761149d61129e565b5b6114aa86828701611400565b92509250509250925092565b600082825260208201905092915050565b7f436f6e74726163742069732063757272656e746c79206e6f74206f706572617460008201527f696f6e616c000000000000000000000000000000000000000000000000000000602082015250565b60006115236025836114b6565b915061152e826114c7565b604082019050919050565b6000602082019050818103600083015261155281611516565b9050919050565b7f3078302061646472657373206e6f7420616c6c6f776564210000000000000000600082015250565b600061158f6018836114b6565b915061159a82611559565b602082019050919050565b600060208201905081810360008301526115be81611582565b9050919050565b7f43616c6c6572206973206e6f7420636f6e7472616374206f776e657200000000600082015250565b60006115fb601c836114b6565b9150611606826115c5565b602082019050919050565b6000602082019050818103600083015261162a816115ee565b9050919050565b7f43616c6c6572206973206e6f7420617574686f72697a65642100000000000000600082015250565b60006116676019836114b6565b915061167282611631565b602082019050919050565b600060208201905081810360008301526116968161165a565b9050919050565b7f5b66756e645d20496e61646171756174652066756e64732073656e7400000000600082015250565b60006116d3601c836114b6565b91506116de8261169d565b602082019050919050565b60006020820190508181036000830152611702816116c6565b9050919050565b7f5b66756e645d204169726c696e65206973206e6f74207265676973746572656460008201527f2100000000000000000000000000000000000000000000000000000000000000602082015250565b60006117656021836114b6565b915061177082611709565b604082019050919050565b6000602082019050818103600083015261179481611758565b9050919050565b7f4e487b7100000000000000000000000000000000000000000000000000000000600052601160045260246000fd5b60006117d5826113bd565b91506117e0836113bd565b92508282019050808211156117f8576117f761179b565b5b92915050565b611807816112c3565b82525050565b600060408201905061182260008301856117fe565b61182f60208301846113c7565b9392505050565b7f5b6d756c74697061727479636f6e5d2043616c6c6572206973206e6f7420617560008201527f74686f72697a6564210000000000000000000000000000000000000000000000602082015250565b60006118926029836114b6565b915061189d82611836565b604082019050919050565b600060208201905081810360008301526118c181611885565b9050919050565b7f5b6d756c74697061727479636f6e5d204169726c696e65206973206e6f74207260008201527f6567697374657265642100000000000000000000000000000000000000000000602082015250565b6000611924602a836114b6565b915061192f826118c8565b604082019050919050565b6000602082019050818103600083015261195381611917565b9050919050565b7f5b6d756c74697061727479636f6e5d204169726c696e65206973206e6f74206660008201527f756e646564210000000000000000000000000000000000000000000000000000602082015250565b60006119b66026836114b6565b91506119c18261195a565b604082019050919050565b600060208201905081810360008301526119e5816119a9565b9050919050565b7f4169726c696e6520697320616c72656164792072656769737465726564210000600082015250565b6000611a22601e836114b6565b9150611a2d826119ec565b602082019050919050565b60006020820190508181036000830152611a5181611a15565b9050919050565b600081519050919050565b7f4e487b7100000000000000000000000000000000000000000000000000000000600052604160045260246000fd5b7f4e487b7100000000000000000000000000000000000000000000000000000000600052602260045260246000fd5b60006002820490506001821680611ad957607f821691505b602082108103611aec57611aeb611a92565b5b50919050565b60008190508160005260206000209050919050565b60006020601f8301049050919050565b600082821b905092915050565b600060088302611b547fffffffffffffffffffffffffffffffffffffffffffffffffffffffffffffffff82611b17565b611b5e8683611b17565b95508019841693508086168417925050509392505050565b6000819050919050565b6000611b9b611b96611b91846113bd565b611b76565b6113bd565b9050919050565b6000819050919050565b611bb583611b80565b611bc9611bc182611ba2565b848454611b24565b825550505050565b600090565b611bde611bd1565b611be9818484611bac565b505050565b5b81811015611c0d57611c02600082611bd6565b600181019050611bef565b5050565b601f821115611c5257611c2381611af2565b611c2c84611b07565b81016020851015611c3b578190505b611c4f611c4785611b07565b830182611bee565b50505b505050565b600082821c905092915050565b6000611c7560001984600802611c57565b1980831691505092915050565b6000611c8e8383611c64565b9150826002028217905092915050565b611ca782611a58565b67ffffffffffffffff811115611cc057611cbf611a63565b5b611cca8254611ac1565b611cd5828285611c11565b600060209050601f831160018114611d085760008415611cf6578287015190505b611d008582611c82565b865550611d68565b601f198416611d1686611af2565b60005b82811015611d3e57848901518255600182019150602085019450602081019050611d19565b86831015611d5b5784890151611d57601f891682611c64565b8355505b6001600288020188555050505b505050505050565b6000611d7b826113bd565b91507fffffffffffffffffffffffffffffffffffffffffffffffffffffffffffffffff8203611dad57611dac61179b565b5b600182019050919050565b7f4e487b7100000000000000000000000000000000000000000000000000000000600052603260045260246000fd5b7f4169726c696e652068617320616c726561647920766f7465642e000000000000600082015250565b6000611e1d601a836114b6565b9150611e2882611de7565b602082019050919050565b60006020820190508181036000830152611e4c81611e10565b9050919050565b7f4e487b7100000000000000000000000000000000000000000000000000000000600052601260045260246000fd5b6000611e8d826113bd565b9150611e98836113bd565b925082611ea857611ea7611e53565b5b828204905092915050565b6000611ebe826113bd565b9150611ec9836113bd565b9250828202611ed7816113bd565b91508282048414831517611eee57611eed61179b565b5b5092915050565b7f4169726c696e6520766f74696e672074687265686f6c64206e6f74206869676860008201527f20656e6f7567682e000000000000000000000000000000000000000000000000602082015250565b6000611f516028836114b6565b9150611f5c82611ef5565b604082019050919050565b60006020820190508181036000830152611f8081611f44565b9050919050565b6000606082019050611f9c60008301866117fe565b611fa960208301856113c7565b611fb660408301846113c7565b94935050505056fea2646970667358221220795e1f210328f8593034a6b24753b7f03fcb3a759e886a05262567aa326c1a7d64736f6c63430008110033",
  "immutableReferences": {},
  "source": "// SPDX-License-Identifier: MIT\npragma solidity ^0.8.17;\n\n\ncontract FlightSuretyData {\n\n    /********************************************************************************************/\n    /*                                       DATA VARIABLES                                     */\n    /********************************************************************************************/\n\n    address private contractOwner;                                      // Account used to deploy contract\n    bool private operational = true;                                    // Blocks all state changes throughout the contract if false\n    uint256 public constant MIN_FUNDING_FEE = 10 ether;\n\n    // Airline\n    struct Airline {\n        string name;\n        uint256 funds;  \n        bool isRegistered;\n        bool isFunded; // Did they submit their stake?\n    }\n    // Since mappings don't have a length, count airlines\n    uint256 registeredAirlineCount = 0;\n    mapping(address => Airline) private airlines;\n\n    // To check that only App contract can call in!\n    mapping(address => uint256) authorizedCallers;                      \n\n    // After AIRLINE_THRESHOLD Airlines registered, we need 50% of registered airlines for consensus\n    uint256 private constant VOTING_THRESHOLD = 50;          \n    // Threshold below which all we need is a single airline to add a new airline                         \n    uint256 constant AIRLINE_THRESHOLD = 4;                                            \n    // Record which airlines that voted\n    // the key is the address we are voting to add and the value is an array of airline addresses who voted to add this airline\n    mapping(address => address[]) airlineVotes;           \n\n    /********************************************************************************************/\n    /*                                       EVENT DEFINITIONS                                  */\n    /********************************************************************************************/\n    event FundsAdded(address receiver, uint256 amount);\n    event TestEvent(uint256 x);\n    event AirlineRegistered(address airlineAddress, string name, uint256 funds,  bool isRegistered, bool isFunded);\n    event AchievedMultiPartyConsensus(address newAirlineAddress, uint256 votesCount, uint airlinesCount);\n\n\n    /**\n    * @dev Constructor\n    *      The deploying account becomes contractOwner\n    *      and we register the first airline...\n    *address airlineAddress, string memory airlineName)\n    */\n    constructor (address airlineAddress)\n    {\n        contractOwner = msg.sender;\n        // airline is the first authorized caller\n        authorizedCallers[contractOwner] = 1;\n        authorizedCallers[airlineAddress] = 1;\n        registeredAirlineCount = 1;\n        // name, funds, isRegistered, isFunded\n        airlines[airlineAddress] = Airline(\"EasyJet\", 0, true, false);\n        emit AirlineRegistered(airlineAddress, \"EasyJet\", 0, true, false);\n\n    }\n\n    /********************************************************************************************/\n    /*                                       FUNCTION MODIFIERS                                 */\n    /********************************************************************************************/\n\n    // Modifiers help avoid duplication of code. They are typically used to validate something\n    // before a function is allowed to be executed.\n\n    /**\n    * @dev Modifier that requires the \"operational\" boolean variable to be \"true\"\n    *      This is used on all state changing functions to pause the contract in \n    *      the event there is an issue that needs to be fixed\n    */\n    modifier requireIsOperational() \n    {\n        require(operational, \"Contract is currently not operational\");\n        _;  // All modifiers require an \"_\" which indicates where the function body will be added\n    }\n\n    /**\n    * @dev Modifier that requires the \"ContractOwner\" account to be the function caller\n    */\n    modifier requireContractOwner()\n    {\n        require(msg.sender == contractOwner, \"Caller is not contract owner\");\n        _;\n    }\n\n    /**\n    * @dev Modifier checking that only the App contract can call in! --> For every externally callable function!\n    */\n    modifier isCallerAuthorized()\n    {\n        require(authorizedCallers[msg.sender] == 1, \"Caller is not authorized!\");\n        _;\n    }\n\n    /** \n    * @dev Modifier that implements multi-party consensus to execute a specific function\n    */\n    modifier requireMultiPartyConsensus(address caller, address newAirlineAddress)\n    {\n        // You have to be an authorized airline to even have a vote\n        // you have to also be a registered and funded airline\n       // emit TestEvent(airlines[caller].funds);\n        require(authorizedCallers[caller] == 1, \"[multipartycon] Caller is not authorized!\");\n        require(airlines[caller].isRegistered, \"[multipartycon] Airline is not registered!\");\n        require(airlines[caller].isFunded, \"[multipartycon] Airline is not funded!\");\n\n        \n        if (registeredAirlineCount < AIRLINE_THRESHOLD){\n            // If less than 4 airlines registered all we need is 1 vote from any authorized airline\n            // no multi-party consensus required\n            _;\n        }else{\n            // Check if this Airline already made its vote to avoid them voting twice\n            bool isDuplicate = false;\n            address[] memory currentVotes = airlineVotes[newAirlineAddress];\n            for(uint c=0; c< currentVotes.length; c++) {\n                if (currentVotes[c] == caller) {\n                    isDuplicate = true;\n                    break;\n                    }\n            }\n            require(!isDuplicate, \"Airline has already voted.\");\n\n            // If not then add the vote to the array of votes for this newairline\n            airlineVotes[newAirlineAddress].push(caller);\n\n\n            // Check if it was a sufficient number of votes to achieve consensus\n            uint256 numberOfVotes = airlineVotes[newAirlineAddress].length;\n            uint256 percentageAirlinesAgreed = 100*(numberOfVotes/registeredAirlineCount);\n            require(percentageAirlinesAgreed >= VOTING_THRESHOLD, \"Airline voting threhold not high enough.\");\n            emit AchievedMultiPartyConsensus(newAirlineAddress, numberOfVotes, registeredAirlineCount);\n            _;\n        }\n\n    }\n\n    /********************************************************************************************/\n    /*                                       UTILITY FUNCTIONS                                  */\n    /********************************************************************************************/\n    function kill() public requireContractOwner() {\n        if (msg.sender == contractOwner) {\n            selfdestruct(payable(msg.sender));\n        }\n    }\n\n    function authorizeCaller(address _caller) public isCallerAuthorized {\n        // only other authorized callers (airlines) can add other authorized callers\n        authorizedCallers[_caller] = 1;\n    }\n\n    function isAuthorized(address _caller) public view returns(uint256) {\n        return authorizedCallers[_caller];\n    }\n\n    function deAuthorizeCaller(address _caller) public isCallerAuthorized {\n        authorizedCallers[_caller] = 0;\n    }\n    /**\n    * @dev Get operating status of contract\n    *\n    * @return A bool that is the current operating status\n    */      \n    function isOperational() \n                            public \n                            view \n                            returns(bool) \n    {\n        return operational;\n    }\n\n\n    /**\n    * @dev Sets contract operations on/off\n    *\n    * When operational mode is disabled, all write transactions except for this one will fail\n    */    \n    function setOperatingStatus\n                            (\n                                bool mode\n                            ) \n                            external\n                            requireContractOwner \n    {\n        operational = mode;\n    }\n\n    /********************************************************************************************/\n    /*                                     SMART CONTRACT FUNCTIONS                             */\n    /********************************************************************************************/\n\n   /**\n    * @dev Add an airline to the registration queue\n    *      Can only be called from FlightSuretyApp contract\n    *\n    */   \n    function registerAirline\n                            (\n                                address airlineAddress,\n                                string calldata name  \n                            )\n                            external\n                            requireIsOperational\n                            requireMultiPartyConsensus(msg.sender, airlineAddress)\n    {\n        require(!airlines[airlineAddress].isRegistered, \"Airline is already registered!\");\n\n        // Data structure for Airlines?\n        airlines[msg.sender] = Airline(name, 0, true, false);\n        registeredAirlineCount++;\n\n    }\n\n\n   /**\n    * @dev Buy insurance for a flight\n    *\n    */   \n    function buy\n                            (                             \n                            )\n                            external\n                            payable\n    {\n\n    }\n\n    /**\n     *  @dev Credits payouts to insurees\n    */\n    function creditInsurees\n                                (\n                                )\n                                external\n                                pure\n    {\n    }\n    \n\n    /**\n     *  @dev Transfers eligible payout funds to insuree\n     *\n    */\n    function pay\n                            (\n                            )\n                            external\n                            pure\n    {\n    }\n\n   /**\n    * @dev Initial funding for the insurance. Unless there are too many delayed flights\n    *      resulting in insurance payouts, the contract should be self-sustaining\n    *\n    */   \n    function fund(address airlineAddress)\n        external\n        payable\n        requireIsOperational\n    {\n        require(msg.value >= MIN_FUNDING_FEE, \"[fund] Inadaquate funds sent\");\n        require(airlines[airlineAddress].isRegistered, \"[fund] Airline is not registered!\");\n\n        // Transfer to the contract those funds\n        //payable(contractOwner).transfer(msg.value);\n        payable(address(this)).transfer(msg.value);\n\n        // Add to the Airline's funds\n        uint256 currentFunds = airlines[airlineAddress].funds;\n        airlines[airlineAddress].funds = msg.value + currentFunds;\n        airlines[airlineAddress].isFunded = true;\n\n        emit FundsAdded(airlineAddress, msg.value);\n\n    }\n\n    function getFlightKey\n                        (\n                            address airline,\n                            string memory flight,\n                            uint256 timestamp\n                        )\n                        pure\n                        internal\n                        returns(bytes32) \n    {\n        return keccak256(abi.encodePacked(airline, flight, timestamp));\n    }\n\n    /**\n    * @dev Checking if registered airline is registered\n    */    \n    function isAirline (address addressAirline) external view requireIsOperational returns(bool) {\n        require(addressAirline != address(0), \"0x0 address not allowed!\");\n        if(airlines[addressAirline].isRegistered){\n            return true;\n        } else{\n            return false;\n        }\n    } \n\n    /**\n    * @dev Fallback function for funding smart contract.\n    *\n    */\n    // fallback() \n    //                         external \n    //                         payable \n    // {\n    //     // emit FundsAdded(address(this), msg.value);\n    // }\n\n    // receive() external payable {\n    //     // emit FundsAdded(address(this), msg.value);\n    //}\n\n}\n\n",
  "sourcePath": "/Users/leehodgkinson/IdeaProjects/MyFlightSurety/contracts/FlightSuretyData.sol",
  "compiler": {
    "name": "solc",
    "version": "0.8.17+commit.8df45f5f.Emscripten.clang"
  },
  "schemaVersion": "3.4.10",
  "updatedAt": "2022-10-14T05:05:01.937Z",
  "devdoc": {
    "kind": "dev",
    "methods": {
      "buy()": {
        "details": "Buy insurance for a flight"
      },
      "constructor": {
        "details": "Constructor      The deploying account becomes contractOwner      and we register the first airline... address airlineAddress, string memory airlineName)"
      },
      "creditInsurees()": {
        "details": "Credits payouts to insurees"
      },
      "fund(address)": {
        "details": "Initial funding for the insurance. Unless there are too many delayed flights      resulting in insurance payouts, the contract should be self-sustaining"
      },
      "isAirline(address)": {
        "details": "Checking if registered airline is registered"
      },
      "isOperational()": {
        "details": "Get operating status of contract",
        "returns": {
          "_0": "A bool that is the current operating status"
        }
      },
      "pay()": {
        "details": "Transfers eligible payout funds to insuree"
      },
      "registerAirline(address,string)": {
        "details": "Add an airline to the registration queue      Can only be called from FlightSuretyApp contract"
      },
      "setOperatingStatus(bool)": {
        "details": "Sets contract operations on/off When operational mode is disabled, all write transactions except for this one will fail"
      }
    },
    "version": 1
  },
  "userdoc": {
    "kind": "user",
    "methods": {},
    "version": 1
  }
}