{
  "contractName": "FlightSuretyData",
  "abi": [
    {
      "inputs": [
        {
          "internalType": "address",
          "name": "airlineAddress",
          "type": "address"
        }
      ],
      "stateMutability": "nonpayable",
      "type": "constructor"
    },
    {
      "anonymous": false,
      "inputs": [
        {
          "indexed": false,
          "internalType": "address",
          "name": "newAirlineAddress",
          "type": "address"
        },
        {
          "indexed": false,
          "internalType": "uint256",
          "name": "votesCount",
          "type": "uint256"
        },
        {
          "indexed": false,
          "internalType": "uint256",
          "name": "airlinesCount",
          "type": "uint256"
        }
      ],
      "name": "AchievedMultiPartyConsensus",
      "type": "event"
    },
    {
      "anonymous": false,
      "inputs": [
        {
          "indexed": false,
          "internalType": "address",
          "name": "airline",
          "type": "address"
        },
        {
          "indexed": false,
          "internalType": "uint256",
          "name": "amount",
          "type": "uint256"
        },
        {
          "indexed": false,
          "internalType": "bool",
          "name": "isRegistered",
          "type": "bool"
        },
        {
          "indexed": false,
          "internalType": "bool",
          "name": "isFunded",
          "type": "bool"
        }
      ],
      "name": "AirlineFunded",
      "type": "event"
    },
    {
      "anonymous": false,
      "inputs": [
        {
          "indexed": false,
          "internalType": "address",
          "name": "airlineAddress",
          "type": "address"
        },
        {
          "indexed": false,
          "internalType": "string",
          "name": "name",
          "type": "string"
        },
        {
          "indexed": false,
          "internalType": "uint256",
          "name": "funds",
          "type": "uint256"
        },
        {
          "indexed": false,
          "internalType": "bool",
          "name": "isRegistered",
          "type": "bool"
        },
        {
          "indexed": false,
          "internalType": "bool",
          "name": "isFunded",
          "type": "bool"
        }
      ],
      "name": "AirlineRegistered",
      "type": "event"
    },
    {
      "anonymous": false,
      "inputs": [
        {
          "indexed": false,
          "internalType": "address",
          "name": "receiver",
          "type": "address"
        },
        {
          "indexed": false,
          "internalType": "uint256",
          "name": "amount",
          "type": "uint256"
        },
        {
          "indexed": false,
          "internalType": "address",
          "name": "sender",
          "type": "address"
        }
      ],
      "name": "FundsReceived",
      "type": "event"
    },
    {
      "anonymous": false,
      "inputs": [
        {
          "indexed": false,
          "internalType": "address",
          "name": "newAirlineAddress",
          "type": "address"
        },
        {
          "indexed": false,
          "internalType": "uint256",
          "name": "votesCount",
          "type": "uint256"
        },
        {
          "indexed": false,
          "internalType": "uint256",
          "name": "airlinesCount",
          "type": "uint256"
        }
      ],
      "name": "NotYetAchievedMultiPartyConsensus",
      "type": "event"
    },
    {
      "anonymous": false,
      "inputs": [
        {
          "indexed": false,
          "internalType": "uint256",
          "name": "x",
          "type": "uint256"
        }
      ],
      "name": "TestEvent",
      "type": "event"
    },
    {
      "inputs": [],
      "name": "MIN_FUNDING_FEE",
      "outputs": [
        {
          "internalType": "uint256",
          "name": "",
          "type": "uint256"
        }
      ],
      "stateMutability": "view",
      "type": "function"
    },
    {
      "stateMutability": "payable",
      "type": "receive"
    },
    {
      "inputs": [],
      "name": "kill",
      "outputs": [],
      "stateMutability": "nonpayable",
      "type": "function"
    },
    {
      "inputs": [
        {
          "internalType": "address",
          "name": "_caller",
          "type": "address"
        }
      ],
      "name": "authorizeCaller",
      "outputs": [],
      "stateMutability": "nonpayable",
      "type": "function"
    },
    {
      "inputs": [
        {
          "internalType": "address",
          "name": "_caller",
          "type": "address"
        }
      ],
      "name": "isAuthorized",
      "outputs": [
        {
          "internalType": "uint256",
          "name": "",
          "type": "uint256"
        }
      ],
      "stateMutability": "view",
      "type": "function"
    },
    {
      "inputs": [
        {
          "internalType": "address",
          "name": "_caller",
          "type": "address"
        }
      ],
      "name": "deAuthorizeCaller",
      "outputs": [],
      "stateMutability": "nonpayable",
      "type": "function"
    },
    {
      "inputs": [],
      "name": "isOperational",
      "outputs": [
        {
          "internalType": "bool",
          "name": "",
          "type": "bool"
        }
      ],
      "stateMutability": "view",
      "type": "function"
    },
    {
      "inputs": [
        {
          "internalType": "bool",
          "name": "mode",
          "type": "bool"
        }
      ],
      "name": "setOperatingStatus",
      "outputs": [],
      "stateMutability": "nonpayable",
      "type": "function"
    },
    {
      "inputs": [
        {
          "internalType": "address",
          "name": "airlineAddress",
          "type": "address"
        },
        {
          "internalType": "string",
          "name": "name",
          "type": "string"
        }
      ],
      "name": "registerAirline",
      "outputs": [],
      "stateMutability": "nonpayable",
      "type": "function"
    },
    {
      "inputs": [
        {
          "internalType": "address",
          "name": "_passengerAddress",
          "type": "address"
        },
        {
          "internalType": "address",
          "name": "airline",
          "type": "address"
        },
        {
          "internalType": "string",
          "name": "flight",
          "type": "string"
        },
        {
          "internalType": "uint256",
          "name": "timestamp",
          "type": "uint256"
        }
      ],
      "name": "buy",
      "outputs": [],
      "stateMutability": "payable",
      "type": "function"
    },
    {
      "inputs": [
        {
          "internalType": "address",
          "name": "airline",
          "type": "address"
        },
        {
          "internalType": "string",
          "name": "flight",
          "type": "string"
        },
        {
          "internalType": "uint256",
          "name": "timestamp",
          "type": "uint256"
        }
      ],
      "name": "creditInsurees",
      "outputs": [],
      "stateMutability": "nonpayable",
      "type": "function"
    },
    {
      "inputs": [
        {
          "internalType": "address payable",
          "name": "passengerAddr",
          "type": "address"
        }
      ],
      "name": "pay",
      "outputs": [],
      "stateMutability": "payable",
      "type": "function"
    },
    {
      "inputs": [
        {
          "internalType": "address",
          "name": "airlineAddress",
          "type": "address"
        }
      ],
      "name": "fund",
      "outputs": [],
      "stateMutability": "payable",
      "type": "function"
    },
    {
      "inputs": [
        {
          "internalType": "address",
          "name": "addressAirline",
          "type": "address"
        }
      ],
      "name": "isAirline",
      "outputs": [
        {
          "internalType": "bool",
          "name": "",
          "type": "bool"
        }
      ],
      "stateMutability": "view",
      "type": "function"
    },
    {
      "inputs": [
        {
          "internalType": "address",
          "name": "airline",
          "type": "address"
        },
        {
          "internalType": "string",
          "name": "flightName",
          "type": "string"
        },
        {
          "internalType": "uint256",
          "name": "timestamp",
          "type": "uint256"
        }
      ],
      "name": "registerFlight",
      "outputs": [],
      "stateMutability": "nonpayable",
      "type": "function"
    },
    {
      "inputs": [
        {
          "internalType": "address",
          "name": "airline",
          "type": "address"
        },
        {
          "internalType": "string",
          "name": "flightName",
          "type": "string"
        },
        {
          "internalType": "uint256",
          "name": "timestamp",
          "type": "uint256"
        },
        {
          "internalType": "uint8",
          "name": "statusCode",
          "type": "uint8"
        }
      ],
      "name": "updateFlightStatus",
      "outputs": [],
      "stateMutability": "nonpayable",
      "type": "function"
    }
  ],
  "bytecode": "0x60806040526001600060146101000a81548160ff02191690831515021790555060006001553480156200003157600080fd5b5060405162003b8738038062003b878339818101604052810190620000579190620002fd565b336000806101000a81548173ffffffffffffffffffffffffffffffffffffffff021916908373ffffffffffffffffffffffffffffffffffffffff1602179055506001600360008060009054906101000a900473ffffffffffffffffffffffffffffffffffffffff1673ffffffffffffffffffffffffffffffffffffffff1673ffffffffffffffffffffffffffffffffffffffff168152602001908152602001600020819055506001600360008373ffffffffffffffffffffffffffffffffffffffff1673ffffffffffffffffffffffffffffffffffffffff168152602001908152602001600020819055506001808190555060405180608001604052806040518060400160405280600781526020017f456173794a65740000000000000000000000000000000000000000000000000081525081526020016000815260200160011515815260200160001515815250600260008373ffffffffffffffffffffffffffffffffffffffff1673ffffffffffffffffffffffffffffffffffffffff1681526020019081526020016000206000820151816000019081620001fc9190620005a9565b506020820151816001015560408201518160020160006101000a81548160ff02191690831515021790555060608201518160020160016101000a81548160ff0219169083151502179055509050507f25f9fb2771dcb7e35cd7dc59e706422d3d0791e486a63ed0c6dc9c0c684609b48160006001600060405162000284949392919062000762565b60405180910390a150620007c4565b600080fd5b600073ffffffffffffffffffffffffffffffffffffffff82169050919050565b6000620002c58262000298565b9050919050565b620002d781620002b8565b8114620002e357600080fd5b50565b600081519050620002f781620002cc565b92915050565b60006020828403121562000316576200031562000293565b5b60006200032684828501620002e6565b91505092915050565b600081519050919050565b7f4e487b7100000000000000000000000000000000000000000000000000000000600052604160045260246000fd5b7f4e487b7100000000000000000000000000000000000000000000000000000000600052602260045260246000fd5b60006002820490506001821680620003b157607f821691505b602082108103620003c757620003c662000369565b5b50919050565b60008190508160005260206000209050919050565b60006020601f8301049050919050565b600082821b905092915050565b600060088302620004317fffffffffffffffffffffffffffffffffffffffffffffffffffffffffffffffff82620003f2565b6200043d8683620003f2565b95508019841693508086168417925050509392505050565b6000819050919050565b6000819050919050565b60006200048a620004846200047e8462000455565b6200045f565b62000455565b9050919050565b6000819050919050565b620004a68362000469565b620004be620004b58262000491565b848454620003ff565b825550505050565b600090565b620004d5620004c6565b620004e28184846200049b565b505050565b5b818110156200050a57620004fe600082620004cb565b600181019050620004e8565b5050565b601f82111562000559576200052381620003cd565b6200052e84620003e2565b810160208510156200053e578190505b620005566200054d85620003e2565b830182620004e7565b50505b505050565b600082821c905092915050565b60006200057e600019846008026200055e565b1980831691505092915050565b60006200059983836200056b565b9150826002028217905092915050565b620005b4826200032f565b67ffffffffffffffff811115620005d057620005cf6200033a565b5b620005dc825462000398565b620005e98282856200050e565b600060209050601f8311600181146200062157600084156200060c578287015190505b6200061885826200058b565b86555062000688565b601f1984166200063186620003cd565b60005b828110156200065b5784890151825560018201915060208501945060208101905062000634565b868310156200067b578489015162000677601f8916826200056b565b8355505b6001600288020188555050505b505050505050565b6200069b81620002b8565b82525050565b600082825260208201905092915050565b7f456173794a657400000000000000000000000000000000000000000000000000600082015250565b6000620006ea600783620006a1565b9150620006f782620006b2565b602082019050919050565b6000819050919050565b60006200072d62000727620007218462000702565b6200045f565b62000455565b9050919050565b6200073f816200070c565b82525050565b60008115159050919050565b6200075c8162000745565b82525050565b600060a08201905062000779600083018762000690565b81810360208301526200078c81620006db565b90506200079d604083018662000734565b620007ac606083018562000751565b620007bb608083018462000751565b95945050505050565b6133b380620007d46000396000f3fe6080604052600436106100ec5760003560e01c8063351831701161008a578063c8820a7011610059578063c8820a70146102d3578063cd905dff146102fc578063ee38a74914610327578063fe9fbb80146103505761012e565b8063351831701461024e5780633cc0be9c1461026a57806341c0e1b5146102935780634337bdd4146102aa5761012e565b80631bcd250a116100c65780631bcd250a146101b557806323024408146101de5780632564158c146101fa5780632c388d5d146102255761012e565b80630c11dedd146101335780630e248a111461014f578063110466ed1461018c5761012e565b3661012e577f6f8a4ef0af7c27d2b604338870c106d39d43e1d4b880d73c04eb6a602403ab9030343360405161012493929190612053565b60405180910390a1005b600080fd5b61014d600480360381019061014891906120d2565b61038d565b005b34801561015b57600080fd5b506101766004803603810190610171919061212b565b61046e565b6040516101839190612173565b60405180910390f35b34801561019857600080fd5b506101b360048036038101906101ae91906121ba565b610595565b005b3480156101c157600080fd5b506101dc60048036038101906101d7919061212b565b610640565b005b6101f860048036038101906101f3919061212b565b61070a565b005b34801561020657600080fd5b5061020f610aea565b60405161021c91906121e7565b60405180910390f35b34801561023157600080fd5b5061024c6004803603810190610247919061212b565b610af6565b005b61026860048036038101906102639190612293565b610bc0565b005b34801561027657600080fd5b50610291600480360381019061028c919061231b565b610f3a565b005b34801561029f57600080fd5b506102a861105a565b005b3480156102b657600080fd5b506102d160048036038101906102cc91906123c8565b611156565b005b3480156102df57600080fd5b506102fa60048036038101906102f5919061231b565b611284565b005b34801561030857600080fd5b506103116115cf565b60405161031e9190612173565b60405180910390f35b34801561033357600080fd5b5061034e60048036038101906103499190612450565b6115e5565b005b34801561035c57600080fd5b506103776004803603810190610372919061212b565b611f25565b60405161038491906121e7565b60405180910390f35b600060149054906101000a900460ff166103dc576040517f08c379a00000000000000000000000000000000000000000000000000000000081526004016103d390612533565b60405180910390fd5b6000600760008373ffffffffffffffffffffffffffffffffffffffff1673ffffffffffffffffffffffffffffffffffffffff1681526020019081526020016000206001015490508173ffffffffffffffffffffffffffffffffffffffff166108fc829081150290604051600060405180830381858888f19350505050158015610469573d6000803e3d6000fd5b505050565b60008060149054906101000a900460ff166104be576040517f08c379a00000000000000000000000000000000000000000000000000000000081526004016104b590612533565b60405180910390fd5b600073ffffffffffffffffffffffffffffffffffffffff168273ffffffffffffffffffffffffffffffffffffffff160361052d576040517f08c379a00000000000000000000000000000000000000000000000000000000081526004016105249061259f565b60405180910390fd5b600260008373ffffffffffffffffffffffffffffffffffffffff1673ffffffffffffffffffffffffffffffffffffffff16815260200190815260200160002060020160009054906101000a900460ff161561058b5760019050610590565b600090505b919050565b60008054906101000a900473ffffffffffffffffffffffffffffffffffffffff1673ffffffffffffffffffffffffffffffffffffffff163373ffffffffffffffffffffffffffffffffffffffff1614610623576040517f08c379a000000000000000000000000000000000000000000000000000000000815260040161061a9061260b565b60405180910390fd5b80600060146101000a81548160ff02191690831515021790555050565b6001600360003373ffffffffffffffffffffffffffffffffffffffff1673ffffffffffffffffffffffffffffffffffffffff16815260200190815260200160002054146106c2576040517f08c379a00000000000000000000000000000000000000000000000000000000081526004016106b990612677565b60405180910390fd5b6000600360008373ffffffffffffffffffffffffffffffffffffffff1673ffffffffffffffffffffffffffffffffffffffff1681526020019081526020016000208190555050565b600060149054906101000a900460ff16610759576040517f08c379a000000000000000000000000000000000000000000000000000000000815260040161075090612533565b60405180910390fd5b67016345785d8a00003410156107a4576040517f08c379a000000000000000000000000000000000000000000000000000000000815260040161079b906126e3565b60405180910390fd5b600260008273ffffffffffffffffffffffffffffffffffffffff1673ffffffffffffffffffffffffffffffffffffffff16815260200190815260200160002060020160009054906101000a900460ff16610833576040517f08c379a000000000000000000000000000000000000000000000000000000000815260040161082a90612775565b60405180910390fd5b3073ffffffffffffffffffffffffffffffffffffffff166108fc349081150290604051600060405180830381858888f19350505050158015610879573d6000803e3d6000fd5b506000600260008373ffffffffffffffffffffffffffffffffffffffff1673ffffffffffffffffffffffffffffffffffffffff16815260200190815260200160002060010154905080346108cd91906127c4565b600260008473ffffffffffffffffffffffffffffffffffffffff1673ffffffffffffffffffffffffffffffffffffffff168152602001908152602001600020600101819055506001600260008473ffffffffffffffffffffffffffffffffffffffff1673ffffffffffffffffffffffffffffffffffffffff16815260200190815260200160002060020160016101000a81548160ff0219169083151502179055506001600260008473ffffffffffffffffffffffffffffffffffffffff1673ffffffffffffffffffffffffffffffffffffffff16815260200190815260200160002060020160006101000a81548160ff0219169083151502179055507f6fbaaab78edfc37d45cb8c9c1da7abb3d9da7def2efb8b291d0803d8bf2533c782600260008573ffffffffffffffffffffffffffffffffffffffff1673ffffffffffffffffffffffffffffffffffffffff16815260200190815260200160002060010154600260008673ffffffffffffffffffffffffffffffffffffffff1673ffffffffffffffffffffffffffffffffffffffff16815260200190815260200160002060020160009054906101000a900460ff16600260008773ffffffffffffffffffffffffffffffffffffffff1673ffffffffffffffffffffffffffffffffffffffff16815260200190815260200160002060020160019054906101000a900460ff16604051610ade94939291906127f8565b60405180910390a15050565b67016345785d8a000081565b6001600360003373ffffffffffffffffffffffffffffffffffffffff1673ffffffffffffffffffffffffffffffffffffffff1681526020019081526020016000205414610b78576040517f08c379a0000000000000000000000000000000000000000000000000000000008152600401610b6f90612677565b60405180910390fd5b6001600360008373ffffffffffffffffffffffffffffffffffffffff1673ffffffffffffffffffffffffffffffffffffffff1681526020019081526020016000208190555050565b633b9aca003410158015610bdc5750670de0b6b3a76400003411155b610c1b576040517f08c379a0000000000000000000000000000000000000000000000000000000008152600401610c1290612889565b60405180910390fd5b6001600360003373ffffffffffffffffffffffffffffffffffffffff1673ffffffffffffffffffffffffffffffffffffffff1681526020019081526020016000205414610c9d576040517f08c379a0000000000000000000000000000000000000000000000000000000008152600401610c9490612677565b60405180910390fd5b600060149054906101000a900460ff16610cec576040517f08c379a0000000000000000000000000000000000000000000000000000000008152600401610ce390612533565b60405180910390fd5b6000610d3d8585858080601f016020809104026020016040519081016040528093929190818152602001838380828437600081840152601f19601f8201169050808301925050505050505084611f6e565b90506000610d4b8783611fa4565b9050600073ffffffffffffffffffffffffffffffffffffffff166006600083815260200190815260200160002060000160009054906101000a900473ffffffffffffffffffffffffffffffffffffffff1673ffffffffffffffffffffffffffffffffffffffff1603610df2576040517f08c379a0000000000000000000000000000000000000000000000000000000008152600401610de9906128f5565b60405180910390fd5b3073ffffffffffffffffffffffffffffffffffffffff166108fc349081150290604051600060405180830381858888f19350505050158015610e38573d6000803e3d6000fd5b5060405180606001604052808873ffffffffffffffffffffffffffffffffffffffff168152602001348152602001600015158152506006600083815260200190815260200160002060008201518160000160006101000a81548173ffffffffffffffffffffffffffffffffffffffff021916908373ffffffffffffffffffffffffffffffffffffffff1602179055506020820151816001015560408201518160020160006101000a81548160ff0219169083151502179055509050506005600083815260200190815260200160002060030181908060018154018082558091505060019003906000526020600020016000909190919091505550505050505050565b6000610f8b8585858080601f016020809104026020016040519081016040528093929190818152602001838380828437600081840152601f19601f8201169050808301925050505050505084611f6e565b90508383600560008481526020019081526020016000206000019182610fb2929190612b5b565b50846005600083815260200190815260200160002060010160006101000a81548173ffffffffffffffffffffffffffffffffffffffff021916908373ffffffffffffffffffffffffffffffffffffffff16021790555060006005600083815260200190815260200160002060010160146101000a81548160ff021916908360ff1602179055508160056000838152602001908152602001600020600201819055505050505050565b60008054906101000a900473ffffffffffffffffffffffffffffffffffffffff1673ffffffffffffffffffffffffffffffffffffffff163373ffffffffffffffffffffffffffffffffffffffff16146110e8576040517f08c379a00000000000000000000000000000000000000000000000000000000081526004016110df9061260b565b60405180910390fd5b60008054906101000a900473ffffffffffffffffffffffffffffffffffffffff1673ffffffffffffffffffffffffffffffffffffffff163373ffffffffffffffffffffffffffffffffffffffff1603611154573373ffffffffffffffffffffffffffffffffffffffff16ff5b565b60006111a78686868080601f016020809104026020016040519081016040528093929190818152602001838380828437600081840152601f19601f8201169050808301925050505050505085611f6e565b90503373ffffffffffffffffffffffffffffffffffffffff166005600083815260200190815260200160002060010160009054906101000a900473ffffffffffffffffffffffffffffffffffffffff1673ffffffffffffffffffffffffffffffffffffffff161461124d576040517f08c379a000000000000000000000000000000000000000000000000000000000815260040161124490612c9d565b60405180910390fd5b816005600083815260200190815260200160002060010160146101000a81548160ff021916908360ff160217905550505050505050565b60006112d58585858080601f016020809104026020016040519081016040528093929190818152602001838380828437600081840152601f19601f8201169050808301925050505050505084611f6e565b905060005b60056000838152602001908152602001600020600301805490508110156115c757600060056000848152602001908152602001600020600301828154811061132557611324612cbd565b5b9060005260206000200154905060006006600083815260200190815260200160002060000160009054906101000a900473ffffffffffffffffffffffffffffffffffffffff1690506000600660008481526020019081526020016000206001015490506000600a600f836113999190612cec565b6113a39190612d5d565b905060016006600086815260200190815260200160002060020160006101000a81548160ff021916908315150217905550600760008473ffffffffffffffffffffffffffffffffffffffff1673ffffffffffffffffffffffffffffffffffffffff16815260200190815260200160002060020160009054906101000a900460ff16156114c857600081600760008673ffffffffffffffffffffffffffffffffffffffff1673ffffffffffffffffffffffffffffffffffffffff1681526020019081526020016000206001015461147991906127c4565b905080600760008673ffffffffffffffffffffffffffffffffffffffff1673ffffffffffffffffffffffffffffffffffffffff16815260200190815260200160002060010181905550506115b0565b60405180606001604052808473ffffffffffffffffffffffffffffffffffffffff16815260200182815260200160011515815250600760008573ffffffffffffffffffffffffffffffffffffffff1673ffffffffffffffffffffffffffffffffffffffff16815260200190815260200160002060008201518160000160006101000a81548173ffffffffffffffffffffffffffffffffffffffff021916908373ffffffffffffffffffffffffffffffffffffffff1602179055506020820151816001015560408201518160020160006101000a81548160ff0219169083151502179055509050505b5050505080806115bf90612d8e565b9150506112da565b505050505050565b60008060149054906101000a900460ff16905090565b600060149054906101000a900460ff16611634576040517f08c379a000000000000000000000000000000000000000000000000000000000815260040161162b90612533565b60405180910390fd5b33836001600360008473ffffffffffffffffffffffffffffffffffffffff1673ffffffffffffffffffffffffffffffffffffffff16815260200190815260200160002054146116b8576040517f08c379a00000000000000000000000000000000000000000000000000000000081526004016116af90612e48565b60405180910390fd5b600260008373ffffffffffffffffffffffffffffffffffffffff1673ffffffffffffffffffffffffffffffffffffffff16815260200190815260200160002060020160009054906101000a900460ff16611747576040517f08c379a000000000000000000000000000000000000000000000000000000000815260040161173e90612eda565b60405180910390fd5b600260008373ffffffffffffffffffffffffffffffffffffffff1673ffffffffffffffffffffffffffffffffffffffff16815260200190815260200160002060020160019054906101000a900460ff166117d6576040517f08c379a00000000000000000000000000000000000000000000000000000000081526004016117cd90612f6c565b60405180910390fd5b60046001541015611a1e577f322d9361d16dd795390f4a06fa068984ef116fddde0f53231333c177b6f745dc816001805460405161181693929190612fc7565b60405180910390a1600260008673ffffffffffffffffffffffffffffffffffffffff1673ffffffffffffffffffffffffffffffffffffffff16815260200190815260200160002060020160009054906101000a900460ff16156118ae576040517f08c379a00000000000000000000000000000000000000000000000000000000081526004016118a59061304a565b60405180910390fd5b604051806080016040528085858080601f016020809104026020016040519081016040528093929190818152602001838380828437600081840152601f19601f8201169050808301925050505050505081526020016000815260200160011515815260200160001515815250600260008773ffffffffffffffffffffffffffffffffffffffff1673ffffffffffffffffffffffffffffffffffffffff168152602001908152602001600020600082015181600001908161196e9190613075565b506020820151816001015560408201518160020160006101000a81548160ff02191690831515021790555060608201518160020160016101000a81548160ff0219169083151502179055509050506001600360008773ffffffffffffffffffffffffffffffffffffffff1673ffffffffffffffffffffffffffffffffffffffff1681526020019081526020016000208190555060016000815480929190611a1490612d8e565b9190505550611f1e565b600080600460008473ffffffffffffffffffffffffffffffffffffffff1673ffffffffffffffffffffffffffffffffffffffff168152602001908152602001600020805480602002602001604051908101604052809291908181526020018280548015611ae057602002820191906000526020600020905b8160009054906101000a900473ffffffffffffffffffffffffffffffffffffffff1673ffffffffffffffffffffffffffffffffffffffff1681526020019060010190808311611a96575b5050505050905060005b8151811015611b5c578473ffffffffffffffffffffffffffffffffffffffff16828281518110611b1d57611b1c612cbd565b5b602002602001015173ffffffffffffffffffffffffffffffffffffffff1603611b495760019250611b5c565b8080611b5490612d8e565b915050611aea565b508115611b9e576040517f08c379a0000000000000000000000000000000000000000000000000000000008152600401611b9590613193565b60405180910390fd5b600460008473ffffffffffffffffffffffffffffffffffffffff1673ffffffffffffffffffffffffffffffffffffffff168152602001908152602001600020849080600181540180825580915050600190039060005260206000200160009091909190916101000a81548173ffffffffffffffffffffffffffffffffffffffff021916908373ffffffffffffffffffffffffffffffffffffffff1602179055506000600460008573ffffffffffffffffffffffffffffffffffffffff1673ffffffffffffffffffffffffffffffffffffffff168152602001908152602001600020805490509050600081600154611c9591906131b3565b9050808210611edb577f322d9361d16dd795390f4a06fa068984ef116fddde0f53231333c177b6f745dc8583600154604051611cd3939291906131e7565b60405180910390a1600260008a73ffffffffffffffffffffffffffffffffffffffff1673ffffffffffffffffffffffffffffffffffffffff16815260200190815260200160002060020160009054906101000a900460ff1615611d6b576040517f08c379a0000000000000000000000000000000000000000000000000000000008152600401611d629061304a565b60405180910390fd5b604051806080016040528089898080601f016020809104026020016040519081016040528093929190818152602001838380828437600081840152601f19601f8201169050808301925050505050505081526020016000815260200160011515815260200160001515815250600260008b73ffffffffffffffffffffffffffffffffffffffff1673ffffffffffffffffffffffffffffffffffffffff1681526020019081526020016000206000820151816000019081611e2b9190613075565b506020820151816001015560408201518160020160006101000a81548160ff02191690831515021790555060608201518160020160016101000a81548160ff0219169083151502179055509050506001600360008b73ffffffffffffffffffffffffffffffffffffffff1673ffffffffffffffffffffffffffffffffffffffff1681526020019081526020016000208190555060016000815480929190611ed190612d8e565b9190505550611f19565b7f3c7f7c030c98798c9e0e3c891b9db46ef154068238bf5bbf38a38f59223718b68583600154604051611f10939291906131e7565b60405180910390a15b505050505b5050505050565b6000600360008373ffffffffffffffffffffffffffffffffffffffff1673ffffffffffffffffffffffffffffffffffffffff168152602001908152602001600020549050919050565b6000838383604051602001611f85939291906132ed565b6040516020818303038152906040528051906020012090509392505050565b60008060608473ffffffffffffffffffffffffffffffffffffffff16901b60001b90508083604051602001611fda929190613351565b6040516020818303038152906040528051906020012091505092915050565b600073ffffffffffffffffffffffffffffffffffffffff82169050919050565b600061202482611ff9565b9050919050565b61203481612019565b82525050565b6000819050919050565b61204d8161203a565b82525050565b6000606082019050612068600083018661202b565b6120756020830185612044565b612082604083018461202b565b949350505050565b600080fd5b600080fd5b600061209f82611ff9565b9050919050565b6120af81612094565b81146120ba57600080fd5b50565b6000813590506120cc816120a6565b92915050565b6000602082840312156120e8576120e761208a565b5b60006120f6848285016120bd565b91505092915050565b61210881612019565b811461211357600080fd5b50565b600081359050612125816120ff565b92915050565b6000602082840312156121415761214061208a565b5b600061214f84828501612116565b91505092915050565b60008115159050919050565b61216d81612158565b82525050565b60006020820190506121886000830184612164565b92915050565b61219781612158565b81146121a257600080fd5b50565b6000813590506121b48161218e565b92915050565b6000602082840312156121d0576121cf61208a565b5b60006121de848285016121a5565b91505092915050565b60006020820190506121fc6000830184612044565b92915050565b600080fd5b600080fd5b600080fd5b60008083601f84011261222757612226612202565b5b8235905067ffffffffffffffff81111561224457612243612207565b5b6020830191508360018202830111156122605761225f61220c565b5b9250929050565b6122708161203a565b811461227b57600080fd5b50565b60008135905061228d81612267565b92915050565b6000806000806000608086880312156122af576122ae61208a565b5b60006122bd88828901612116565b95505060206122ce88828901612116565b945050604086013567ffffffffffffffff8111156122ef576122ee61208f565b5b6122fb88828901612211565b9350935050606061230e8882890161227e565b9150509295509295909350565b600080600080606085870312156123355761233461208a565b5b600061234387828801612116565b945050602085013567ffffffffffffffff8111156123645761236361208f565b5b61237087828801612211565b935093505060406123838782880161227e565b91505092959194509250565b600060ff82169050919050565b6123a58161238f565b81146123b057600080fd5b50565b6000813590506123c28161239c565b92915050565b6000806000806000608086880312156123e4576123e361208a565b5b60006123f288828901612116565b955050602086013567ffffffffffffffff8111156124135761241261208f565b5b61241f88828901612211565b945094505060406124328882890161227e565b9250506060612443888289016123b3565b9150509295509295909350565b6000806000604084860312156124695761246861208a565b5b600061247786828701612116565b935050602084013567ffffffffffffffff8111156124985761249761208f565b5b6124a486828701612211565b92509250509250925092565b600082825260208201905092915050565b7f436f6e74726163742069732063757272656e746c79206e6f74206f706572617460008201527f696f6e616c000000000000000000000000000000000000000000000000000000602082015250565b600061251d6025836124b0565b9150612528826124c1565b604082019050919050565b6000602082019050818103600083015261254c81612510565b9050919050565b7f3078302061646472657373206e6f7420616c6c6f776564210000000000000000600082015250565b60006125896018836124b0565b915061259482612553565b602082019050919050565b600060208201905081810360008301526125b88161257c565b9050919050565b7f43616c6c6572206973206e6f7420636f6e7472616374206f776e657200000000600082015250565b60006125f5601c836124b0565b9150612600826125bf565b602082019050919050565b60006020820190508181036000830152612624816125e8565b9050919050565b7f43616c6c6572206973206e6f7420617574686f72697a65642100000000000000600082015250565b60006126616019836124b0565b915061266c8261262b565b602082019050919050565b6000602082019050818103600083015261269081612654565b9050919050565b7f5b66756e645d20496e61646171756174652066756e64732073656e7400000000600082015250565b60006126cd601c836124b0565b91506126d882612697565b602082019050919050565b600060208201905081810360008301526126fc816126c0565b9050919050565b7f5b66756e645d204169726c696e65206973206e6f74207265676973746572656460008201527f2100000000000000000000000000000000000000000000000000000000000000602082015250565b600061275f6021836124b0565b915061276a82612703565b604082019050919050565b6000602082019050818103600083015261278e81612752565b9050919050565b7f4e487b7100000000000000000000000000000000000000000000000000000000600052601160045260246000fd5b60006127cf8261203a565b91506127da8361203a565b92508282019050808211156127f2576127f1612795565b5b92915050565b600060808201905061280d600083018761202b565b61281a6020830186612044565b6128276040830185612164565b6128346060830184612164565b95945050505050565b7f494e535552414e43452049532043415050454420415420312045544845520000600082015250565b6000612873601e836124b0565b915061287e8261283d565b602082019050919050565b600060208201905081810360008301526128a281612866565b9050919050565b7f50617373656e67657220616c72656164792068617320696e737572616e636521600082015250565b60006128df6020836124b0565b91506128ea826128a9565b602082019050919050565b6000602082019050818103600083015261290e816128d2565b9050919050565b600082905092915050565b7f4e487b7100000000000000000000000000000000000000000000000000000000600052604160045260246000fd5b7f4e487b7100000000000000000000000000000000000000000000000000000000600052602260045260246000fd5b6000600282049050600182168061299657607f821691505b6020821081036129a9576129a861294f565b5b50919050565b60008190508160005260206000209050919050565b60006020601f8301049050919050565b600082821b905092915050565b600060088302612a117fffffffffffffffffffffffffffffffffffffffffffffffffffffffffffffffff826129d4565b612a1b86836129d4565b95508019841693508086168417925050509392505050565b6000819050919050565b6000612a58612a53612a4e8461203a565b612a33565b61203a565b9050919050565b6000819050919050565b612a7283612a3d565b612a86612a7e82612a5f565b8484546129e1565b825550505050565b600090565b612a9b612a8e565b612aa6818484612a69565b505050565b5b81811015612aca57612abf600082612a93565b600181019050612aac565b5050565b601f821115612b0f57612ae0816129af565b612ae9846129c4565b81016020851015612af8578190505b612b0c612b04856129c4565b830182612aab565b50505b505050565b600082821c905092915050565b6000612b3260001984600802612b14565b1980831691505092915050565b6000612b4b8383612b21565b9150826002028217905092915050565b612b658383612915565b67ffffffffffffffff811115612b7e57612b7d612920565b5b612b88825461297e565b612b93828285612ace565b6000601f831160018114612bc25760008415612bb0578287013590505b612bba8582612b3f565b865550612c22565b601f198416612bd0866129af565b60005b82811015612bf857848901358255600182019150602085019450602081019050612bd3565b86831015612c155784890135612c11601f891682612b21565b8355505b6001600288020188555050505b50505050505050565b7f4d757374206f776e20666c6967687420746f206368616e67652069747320737460008201527f6174757300000000000000000000000000000000000000000000000000000000602082015250565b6000612c876024836124b0565b9150612c9282612c2b565b604082019050919050565b60006020820190508181036000830152612cb681612c7a565b9050919050565b7f4e487b7100000000000000000000000000000000000000000000000000000000600052603260045260246000fd5b6000612cf78261203a565b9150612d028361203a565b9250828202612d108161203a565b91508282048414831517612d2757612d26612795565b5b5092915050565b7f4e487b7100000000000000000000000000000000000000000000000000000000600052601260045260246000fd5b6000612d688261203a565b9150612d738361203a565b925082612d8357612d82612d2e565b5b828204905092915050565b6000612d998261203a565b91507fffffffffffffffffffffffffffffffffffffffffffffffffffffffffffffffff8203612dcb57612dca612795565b5b600182019050919050565b7f5b6d756c74697061727479636f6e5d2043616c6c6572206973206e6f7420617560008201527f74686f72697a6564210000000000000000000000000000000000000000000000602082015250565b6000612e326029836124b0565b9150612e3d82612dd6565b604082019050919050565b60006020820190508181036000830152612e6181612e25565b9050919050565b7f5b6d756c74697061727479636f6e5d204169726c696e65206973206e6f74207260008201527f6567697374657265642100000000000000000000000000000000000000000000602082015250565b6000612ec4602a836124b0565b9150612ecf82612e68565b604082019050919050565b60006020820190508181036000830152612ef381612eb7565b9050919050565b7f5b6d756c74697061727479636f6e5d204169726c696e65206973206e6f74206660008201527f756e646564210000000000000000000000000000000000000000000000000000602082015250565b6000612f566026836124b0565b9150612f6182612efa565b604082019050919050565b60006020820190508181036000830152612f8581612f49565b9050919050565b6000819050919050565b6000612fb1612fac612fa784612f8c565b612a33565b61203a565b9050919050565b612fc181612f96565b82525050565b6000606082019050612fdc600083018661202b565b612fe96020830185612fb8565b612ff66040830184612044565b949350505050565b7f4169726c696e6520697320616c72656164792072656769737465726564210000600082015250565b6000613034601e836124b0565b915061303f82612ffe565b602082019050919050565b6000602082019050818103600083015261306381613027565b9050919050565b600081519050919050565b61307e8261306a565b67ffffffffffffffff81111561309757613096612920565b5b6130a1825461297e565b6130ac828285612ace565b600060209050601f8311600181146130df57600084156130cd578287015190505b6130d78582612b3f565b86555061313f565b601f1984166130ed866129af565b60005b82811015613115578489015182556001820191506020850194506020810190506130f0565b86831015613132578489015161312e601f891682612b21565b8355505b6001600288020188555050505b505050505050565b7f4169726c696e652068617320616c726561647920766f7465642e000000000000600082015250565b600061317d601a836124b0565b915061318882613147565b602082019050919050565b600060208201905081810360008301526131ac81613170565b9050919050565b60006131be8261203a565b91506131c98361203a565b92508282039050818111156131e1576131e0612795565b5b92915050565b60006060820190506131fc600083018661202b565b6132096020830185612044565b6132166040830184612044565b949350505050565b60008160601b9050919050565b60006132368261321e565b9050919050565b60006132488261322b565b9050919050565b61326061325b82612019565b61323d565b82525050565b600081905092915050565b60005b8381101561328f578082015181840152602081019050613274565b60008484015250505050565b60006132a68261306a565b6132b08185613266565b93506132c0818560208601613271565b80840191505092915050565b6000819050919050565b6132e76132e28261203a565b6132cc565b82525050565b60006132f9828661324f565b601482019150613309828561329b565b915061331582846132d6565b602082019150819050949350505050565b6000819050919050565b6000819050919050565b61334b61334682613326565b613330565b82525050565b600061335d828561333a565b60208201915061336d828461333a565b602082019150819050939250505056fea264697066735822122023c44255684664092ba9b130a90e293afb77b051773b991b8eb050a544b1ccc764736f6c63430008110033",
  "immutableReferences": {},
  "source": "// SPDX-License-Identifier: MIT\npragma solidity ^0.8.17;\n\n\ncontract FlightSuretyData {\n\n    /********************************************************************************************/\n    /*                                       DATA VARIABLES                                     */\n    /********************************************************************************************/\n\n    address private contractOwner;                                      // Account used to deploy contract\n    bool private operational = true;                                    // Blocks all state changes throughout the contract if false\n    uint256 public constant MIN_FUNDING_FEE = 0.1 ether;\n\n    // Airline\n    struct Airline {\n        string name;\n        uint256 funds;  \n        bool isRegistered;\n        bool isFunded; // Did they submit their stake?\n    }\n    // Since mappings don't have a length, count airlines\n    uint256 registeredAirlineCount = 0;\n    mapping(address => Airline) private airlines;\n\n    // To check that only App contract can call in!\n    mapping(address => uint256) authorizedCallers;                      \n\n    // Threshold below which all we need is a single airline to add a new airline                         \n    uint256 constant AIRLINE_THRESHOLD = 4;                                            \n    // Record which airlines that voted\n    // the key is the address we are voting to add and the value is an array of airline addresses who voted to add this airline\n    mapping(address => address[]) airlineVotes;           \n\n    struct Flight {\n        string flightName;\n        address airline;\n        uint8 statusCode;\n        uint256 timestamp;\n        bytes32[] insuranceContracts;\n    }\n\n    struct Insurance {\n        address payable passengerAddress;\n        uint            insuranceAmount;\n        bool            isPaid;\n    }\n\n    // Mapping from flight key to the Flight\n    mapping (bytes32 => Flight) private flights;\n    // From insurance key to an array of Insurance objects (per user and amount)\n    mapping (bytes32 => Insurance) private insurances;\n\n    struct Passenger {\n        address passengerAddr;\n        uint256 creditAmount;\n        bool exists;\n    }\n    mapping(address => Passenger) private passengers;\n\n    /********************************************************************************************/\n    /*                                       EVENT DEFINITIONS                                  */\n    /********************************************************************************************/\n    event AirlineFunded(address airline, uint256 amount, bool isRegistered, bool isFunded);\n    event FundsReceived(address receiver, uint256 amount, address sender);\n    event TestEvent(uint256 x);\n    event AirlineRegistered(address airlineAddress, string name, uint256 funds,  bool isRegistered, bool isFunded);\n    event AchievedMultiPartyConsensus(address newAirlineAddress, uint256 votesCount, uint airlinesCount);\n    event NotYetAchievedMultiPartyConsensus(address newAirlineAddress, uint256 votesCount, uint airlinesCount);\n\n\n    /**\n    * @dev Constructor\n    *      The deploying account becomes contractOwner\n    *      and we register the first airline...\n    *address airlineAddress, string memory airlineName)\n    */\n    constructor (address airlineAddress)\n    {\n        contractOwner = msg.sender;\n        // airline is the first authorized caller\n        authorizedCallers[contractOwner] = 1;\n        authorizedCallers[airlineAddress] = 1;\n        registeredAirlineCount = 1;\n        // name, funds, isRegistered, isFunded\n        airlines[airlineAddress] = Airline(\"EasyJet\", 0, true, false);\n        emit AirlineRegistered(airlineAddress, \"EasyJet\", 0, true, false);\n\n    }\n\n    /********************************************************************************************/\n    /*                                       FUNCTION MODIFIERS                                 */\n    /********************************************************************************************/\n\n    // Modifiers help avoid duplication of code. They are typically used to validate something\n    // before a function is allowed to be executed.\n\n    /**\n    * @dev Modifier that requires the \"operational\" boolean variable to be \"true\"\n    *      This is used on all state changing functions to pause the contract in \n    *      the event there is an issue that needs to be fixed\n    */\n    modifier requireIsOperational() \n    {\n        require(operational, \"Contract is currently not operational\");\n        _;  // All modifiers require an \"_\" which indicates where the function body will be added\n    }\n\n    /**\n    * @dev Modifier that requires the \"ContractOwner\" account to be the function caller\n    */\n    modifier requireContractOwner()\n    {\n        require(msg.sender == contractOwner, \"Caller is not contract owner\");\n        _;\n    }\n\n    /**\n    * @dev Modifier checking that only the App contract can call in! --> For every externally callable function!\n    */\n    modifier isCallerAuthorized()\n    {\n        require(authorizedCallers[msg.sender] == 1, \"Caller is not authorized!\");\n        _;\n    }\n\n    /** \n    * @dev Modifier that implements multi-party consensus to execute a specific function\n    */\n    modifier requireMultiPartyConsensus(address caller, address newAirlineAddress)\n    {\n        // You have to be an authorized airline to even have a vote\n        // you have to also be a registered and funded airline\n        require(authorizedCallers[caller] == 1, \"[multipartycon] Caller is not authorized!\");\n        require(airlines[caller].isRegistered, \"[multipartycon] Airline is not registered!\");\n        require(airlines[caller].isFunded, \"[multipartycon] Airline is not funded!\");\n\n        \n        if (registeredAirlineCount < AIRLINE_THRESHOLD){\n            // If less than 4 airlines registered all we need is 1 vote from any authorized airline\n            // no multi-party consensus required\n            emit AchievedMultiPartyConsensus(newAirlineAddress, 1, registeredAirlineCount);\n            _;\n        }else{\n            // Check if this Airline already made its vote to avoid them voting twice\n            bool isDuplicate = false;\n            address[] memory currentVotes = airlineVotes[newAirlineAddress];\n            for(uint c=0; c< currentVotes.length; c++) {\n                if (currentVotes[c] == caller) {\n                    isDuplicate = true;\n                    break;\n                    }\n            }\n            require(!isDuplicate, \"Airline has already voted.\");\n\n            // If not then add the vote to the array of votes for this newairline\n            airlineVotes[newAirlineAddress].push(caller);\n\n\n            // Check if it was a sufficient number of votes to achieve consensus\n            uint256 numberOfVotes = airlineVotes[newAirlineAddress].length;\n            uint256 unvotedCount = registeredAirlineCount - numberOfVotes;\n            if(numberOfVotes >= unvotedCount){\n                emit AchievedMultiPartyConsensus(newAirlineAddress, numberOfVotes, registeredAirlineCount);\n                _;\n            }else{\n                emit NotYetAchievedMultiPartyConsensus(newAirlineAddress, numberOfVotes, registeredAirlineCount);\n            }\n        }\n\n    }\n\n    modifier checkPassengerBuyAmount() {\n        require(msg.value >= 1 gwei && msg.value <= 1 ether, \"INSURANCE IS CAPPED AT 1 ETHER\");\n        _;\n    }\n\n    /********************************************************************************************/\n    /*                                       UTILITY FUNCTIONS                                  */\n    /********************************************************************************************/\n    function kill() public requireContractOwner() {\n        if (msg.sender == contractOwner) {\n            selfdestruct(payable(msg.sender));\n        }\n    }\n\n    function authorizeCaller(address _caller) public isCallerAuthorized {\n        // only other authorized callers (airlines) can add other authorized callers\n        authorizedCallers[_caller] = 1;\n    }\n\n    function isAuthorized(address _caller) public view returns(uint256) {\n        return authorizedCallers[_caller];\n    }\n\n    function deAuthorizeCaller(address _caller) public isCallerAuthorized {\n        authorizedCallers[_caller] = 0;\n    }\n    /**\n    * @dev Get operating status of contract\n    *\n    * @return A bool that is the current operating status\n    */      \n    function isOperational() \n                            public \n                            view \n                            returns(bool) \n    {\n        return operational;\n    }\n\n\n    /**\n    * @dev Sets contract operations on/off\n    *\n    * When operational mode is disabled, all write transactions except for this one will fail\n    */    \n    function setOperatingStatus\n                            (\n                                bool mode\n                            ) \n                            external\n                            requireContractOwner \n    {\n        operational = mode;\n    }\n\n    /********************************************************************************************/\n    /*                                     SMART CONTRACT FUNCTIONS                             */\n    /********************************************************************************************/\n\n   /**\n    * @dev Add an airline to the registration queue\n    *      Can only be called from FlightSuretyApp contract\n    *\n    */   \n    function registerAirline\n                            (\n                                address airlineAddress,\n                                string calldata name  \n                            )\n                            external\n                            requireIsOperational\n                            requireMultiPartyConsensus(msg.sender, airlineAddress)\n    {\n        require(!airlines[airlineAddress].isRegistered, \"Airline is already registered!\");\n\n        // Data structure for Airlines?\n        airlines[airlineAddress] = Airline(name, 0, true, false);\n        authorizedCallers[airlineAddress] = 1;\n        registeredAirlineCount++;\n    }\n\n\n   /**\n    * @dev Buy insurance for a flight\n    *\n    */   \n    function buy(address _passengerAddress, address airline,\n                 string calldata flight,\n                 uint256 timestamp) external payable \n    checkPassengerBuyAmount() isCallerAuthorized() requireIsOperational() {        \n        \n\n        bytes32 _flightKey = getFlightKey(airline, flight, timestamp);\n        bytes32 _insuranceKey = getInsuranceKey(_passengerAddress, _flightKey);\n        \n        require(insurances[_insuranceKey].passengerAddress != address(0), \"Passenger already has insurance!\");\n        payable(address(this)).transfer(msg.value);\n        \n        insurances[_insuranceKey] = Insurance({\n                passengerAddress: payable(_passengerAddress),\n                insuranceAmount: msg.value,\n                isPaid: false\n                });\n\n        flights[_flightKey].insuranceContracts.push(_insuranceKey);\n    }\n\n    /**\n     *  @dev Credits payouts to insurees\n    */\n    function creditInsurees\n                                (\n                                    address airline,\n                                    string calldata flight,\n                                    uint256 timestamp\n                                )\n                                external\n    {\n        bytes32 flightKey = getFlightKey(airline, flight, timestamp);\n\n        for (uint256 i = 0; i < flights[flightKey].insuranceContracts.length; i++) {\n            bytes32 insuranceContractKey = flights[flightKey].insuranceContracts[i];\n\n            address passengerAddress = insurances[insuranceContractKey].passengerAddress;\n            uint256 insuranceAmount = insurances[insuranceContractKey].insuranceAmount;\n            uint256 payAmount = insuranceAmount * 15/10;\n            insurances[insuranceContractKey].isPaid = true;\n\n            if(passengers[passengerAddress].exists){\n\n                uint256 updatedCreditAmount = passengers[passengerAddress].creditAmount + payAmount;\n                passengers[passengerAddress].creditAmount = updatedCreditAmount;\n            \n            } else {\n\n                passengers[passengerAddress] = Passenger({\n                                                passengerAddr: passengerAddress,\n                                                creditAmount: payAmount,\n                                                exists: true\n                                        });\n\n            }\n\n        }\n    }\n    \n    \n\n    /**\n     *  @dev Transfers eligible payout funds to insuree\n     *\n    */\n    function pay\n                            (\n                                address payable passengerAddr\n                            )\n                            external\n                            payable\n                            requireIsOperational\n    {\n        uint256 payment = passengers[passengerAddr].creditAmount;\n        passengerAddr.transfer(payment);\n    }\n\n   /**\n    * @dev Initial funding for the insurance. Unless there are too many delayed flights\n    *      resulting in insurance payouts, the contract should be self-sustaining\n    *\n    */   \n    function fund(address airlineAddress)\n        external\n        payable\n        requireIsOperational\n    {\n        require(msg.value >= MIN_FUNDING_FEE, \"[fund] Inadaquate funds sent\");\n        require(airlines[airlineAddress].isRegistered, \"[fund] Airline is not registered!\");\n\n        // Transfer to the contract those funds\n        //payable(contractOwner).transfer(msg.value);\n        payable(address(this)).transfer(msg.value);\n\n        // Add to the Airline's funds\n        uint256 currentFunds = airlines[airlineAddress].funds;\n        airlines[airlineAddress].funds = msg.value + currentFunds;\n        airlines[airlineAddress].isFunded = true;\n        airlines[airlineAddress].isRegistered = true;\n\n        emit AirlineFunded(airlineAddress,  airlines[airlineAddress].funds, airlines[airlineAddress].isRegistered, airlines[airlineAddress].isFunded);\n\n    }\n\n    function getInsuranceKey(address _passengerAddress, bytes32 _flightKey) pure internal returns(bytes32) {\n        bytes32 _addressToBytes32 = bytes32(uint256(uint160(_passengerAddress)) << 96);\n        return keccak256(abi.encodePacked(_addressToBytes32, _flightKey));\n        //return keccak256(abi.encodePacked(_passengerAddress, _flightKey));\n    }\n\n    function getFlightKey\n                        (\n                            address airline,\n                            string memory flight,\n                            uint256 timestamp\n                        )\n                        pure\n                        internal\n                        returns(bytes32) \n    {\n        return keccak256(abi.encodePacked(airline, flight, timestamp));\n    }\n\n    /**\n    * @dev Checking if registered airline is registered\n    */    \n    function isAirline (address addressAirline) external view requireIsOperational returns(bool) {\n        require(addressAirline != address(0), \"0x0 address not allowed!\");\n        if(airlines[addressAirline].isRegistered){\n            return true;\n        } else{\n            return false;\n        }\n    } \n\n    /**\n    * Register a flight\n    */\n    function registerFlight( \n                                address airline,\n                                string calldata flightName,\n                                uint256 timestamp\n                            )\n    external {\n        bytes32 flightKey = getFlightKey(airline, flightName, timestamp);\n        flights[flightKey].flightName = flightName;   \n        flights[flightKey].airline = airline;\n        flights[flightKey].statusCode = 0;\n        flights[flightKey].timestamp = timestamp;\n    } \n\n    /**\n    * Update a flight status\n    */\n    function updateFlightStatus( \n                                address airline,\n                                string calldata flightName,\n                                uint256 timestamp,\n                                uint8 statusCode\n                            )\n    external {\n        bytes32 flightKey = getFlightKey(airline, flightName, timestamp);\n        require(flights[flightKey].airline == msg.sender, \"Must own flight to change its status\");\n        flights[flightKey].statusCode = statusCode;\n    } \n\n    /**\n    * @dev Fallback function for funding smart contract.\n    *\n    */\n    // fallback() \n    //                         external \n    //                         payable \n    // {\n    //     emit FundsAdded(address(this), msg.value);\n    // }\n\n    receive() external payable {\n        emit FundsReceived(address(this), msg.value, msg.sender);\n    }\n\n}\n\n",
  "sourcePath": "/Users/leehodgkinson/IdeaProjects/MyFlightSurety/contracts/FlightSuretyData.sol",
  "compiler": {
    "name": "solc",
    "version": "0.8.17+commit.8df45f5f.Emscripten.clang"
  },
  "schemaVersion": "3.4.9",
  "updatedAt": "2022-10-21T05:46:27.472Z",
  "devdoc": {
    "kind": "dev",
    "methods": {
      "buy(address,address,string,uint256)": {
        "details": "Buy insurance for a flight"
      },
      "constructor": {
        "details": "Constructor      The deploying account becomes contractOwner      and we register the first airline... address airlineAddress, string memory airlineName)"
      },
      "creditInsurees(address,string,uint256)": {
        "details": "Credits payouts to insurees"
      },
      "fund(address)": {
        "details": "Initial funding for the insurance. Unless there are too many delayed flights      resulting in insurance payouts, the contract should be self-sustaining"
      },
      "isAirline(address)": {
        "details": "Checking if registered airline is registered"
      },
      "isOperational()": {
        "details": "Get operating status of contract",
        "returns": {
          "_0": "A bool that is the current operating status"
        }
      },
      "pay(address)": {
        "details": "Transfers eligible payout funds to insuree"
      },
      "registerAirline(address,string)": {
        "details": "Add an airline to the registration queue      Can only be called from FlightSuretyApp contract"
      },
      "setOperatingStatus(bool)": {
        "details": "Sets contract operations on/off When operational mode is disabled, all write transactions except for this one will fail"
      }
    },
    "version": 1
  },
  "userdoc": {
    "kind": "user",
    "methods": {
      "registerFlight(address,string,uint256)": {
        "notice": "Register a flight"
      },
      "updateFlightStatus(address,string,uint256,uint8)": {
        "notice": "Update a flight status"
      }
    },
    "version": 1
  }
}