{
  "contractName": "FlightSuretyApp",
  "abi": [
    {
      "inputs": [
        {
          "internalType": "address payable",
          "name": "_dataAddress",
          "type": "address"
        }
      ],
      "stateMutability": "nonpayable",
      "type": "constructor"
    },
    {
      "anonymous": false,
      "inputs": [
        {
          "indexed": false,
          "internalType": "address",
          "name": "airline",
          "type": "address"
        },
        {
          "indexed": false,
          "internalType": "string",
          "name": "flight",
          "type": "string"
        },
        {
          "indexed": false,
          "internalType": "uint256",
          "name": "timestamp",
          "type": "uint256"
        },
        {
          "indexed": false,
          "internalType": "uint8",
          "name": "status",
          "type": "uint8"
        }
      ],
      "name": "FlightStatusInfo",
      "type": "event"
    },
    {
      "anonymous": false,
      "inputs": [
        {
          "indexed": false,
          "internalType": "address",
          "name": "airline",
          "type": "address"
        },
        {
          "indexed": false,
          "internalType": "string",
          "name": "flight",
          "type": "string"
        },
        {
          "indexed": false,
          "internalType": "uint256",
          "name": "timestamp",
          "type": "uint256"
        },
        {
          "indexed": false,
          "internalType": "uint8",
          "name": "status",
          "type": "uint8"
        }
      ],
      "name": "OracleReport",
      "type": "event"
    },
    {
      "anonymous": false,
      "inputs": [
        {
          "indexed": false,
          "internalType": "uint8",
          "name": "index",
          "type": "uint8"
        },
        {
          "indexed": false,
          "internalType": "address",
          "name": "airline",
          "type": "address"
        },
        {
          "indexed": false,
          "internalType": "string",
          "name": "flight",
          "type": "string"
        },
        {
          "indexed": false,
          "internalType": "uint256",
          "name": "timestamp",
          "type": "uint256"
        }
      ],
      "name": "OracleRequest",
      "type": "event"
    },
    {
      "anonymous": false,
      "inputs": [
        {
          "indexed": false,
          "internalType": "address",
          "name": "passenger",
          "type": "address"
        },
        {
          "indexed": false,
          "internalType": "address",
          "name": "contractAddress",
          "type": "address"
        }
      ],
      "name": "PayoutPassengerApp",
      "type": "event"
    },
    {
      "inputs": [],
      "name": "REGISTRATION_FEE",
      "outputs": [
        {
          "internalType": "uint256",
          "name": "",
          "type": "uint256"
        }
      ],
      "stateMutability": "view",
      "type": "function"
    },
    {
      "inputs": [],
      "name": "isOperational",
      "outputs": [
        {
          "internalType": "bool",
          "name": "",
          "type": "bool"
        }
      ],
      "stateMutability": "view",
      "type": "function"
    },
    {
      "inputs": [
        {
          "internalType": "address",
          "name": "airline",
          "type": "address"
        },
        {
          "internalType": "string",
          "name": "flight",
          "type": "string"
        },
        {
          "internalType": "uint256",
          "name": "timestamp",
          "type": "uint256"
        }
      ],
      "name": "registerFlight",
      "outputs": [],
      "stateMutability": "nonpayable",
      "type": "function"
    },
    {
      "inputs": [
        {
          "internalType": "address",
          "name": "airline",
          "type": "address"
        },
        {
          "internalType": "string",
          "name": "flight",
          "type": "string"
        },
        {
          "internalType": "uint256",
          "name": "timestamp",
          "type": "uint256"
        }
      ],
      "name": "fetchFlightStatus",
      "outputs": [],
      "stateMutability": "nonpayable",
      "type": "function"
    },
    {
      "inputs": [],
      "name": "registerOracle",
      "outputs": [],
      "stateMutability": "payable",
      "type": "function"
    },
    {
      "inputs": [],
      "name": "getMyIndexes",
      "outputs": [
        {
          "internalType": "uint8[3]",
          "name": "",
          "type": "uint8[3]"
        }
      ],
      "stateMutability": "view",
      "type": "function"
    },
    {
      "inputs": [
        {
          "internalType": "uint8",
          "name": "index",
          "type": "uint8"
        },
        {
          "internalType": "address",
          "name": "airline",
          "type": "address"
        },
        {
          "internalType": "string",
          "name": "flight",
          "type": "string"
        },
        {
          "internalType": "uint256",
          "name": "timestamp",
          "type": "uint256"
        },
        {
          "internalType": "uint8",
          "name": "statusCode",
          "type": "uint8"
        }
      ],
      "name": "submitOracleResponse",
      "outputs": [],
      "stateMutability": "nonpayable",
      "type": "function"
    },
    {
      "inputs": [
        {
          "internalType": "address",
          "name": "newAirline",
          "type": "address"
        },
        {
          "internalType": "string",
          "name": "name",
          "type": "string"
        }
      ],
      "name": "registerAirline",
      "outputs": [],
      "stateMutability": "nonpayable",
      "type": "function"
    },
    {
      "inputs": [
        {
          "internalType": "address",
          "name": "owner",
          "type": "address"
        }
      ],
      "name": "fund",
      "outputs": [],
      "stateMutability": "payable",
      "type": "function"
    },
    {
      "inputs": [
        {
          "internalType": "address",
          "name": "_passengerAddress",
          "type": "address"
        },
        {
          "internalType": "address",
          "name": "airline",
          "type": "address"
        },
        {
          "internalType": "string",
          "name": "flight",
          "type": "string"
        },
        {
          "internalType": "uint256",
          "name": "timestamp",
          "type": "uint256"
        }
      ],
      "name": "buy",
      "outputs": [],
      "stateMutability": "payable",
      "type": "function"
    },
    {
      "inputs": [
        {
          "internalType": "uint256",
          "name": "amount",
          "type": "uint256"
        }
      ],
      "name": "pay",
      "outputs": [],
      "stateMutability": "nonpayable",
      "type": "function"
    }
  ],
  "bytecode": "0x60806040526000600360146101000a81548160ff021916908360ff1602179055503480156200002d57600080fd5b50604051620020b7380380620020b7833981810160405281019062000053919062000186565b336000806101000a81548173ffffffffffffffffffffffffffffffffffffffff021916908373ffffffffffffffffffffffffffffffffffffffff16021790555080600360006101000a81548173ffffffffffffffffffffffffffffffffffffffff021916908373ffffffffffffffffffffffffffffffffffffffff16021790555080600160006101000a81548173ffffffffffffffffffffffffffffffffffffffff021916908373ffffffffffffffffffffffffffffffffffffffff16021790555050620001b8565b600080fd5b600073ffffffffffffffffffffffffffffffffffffffff82169050919050565b60006200014e8262000121565b9050919050565b620001608162000141565b81146200016c57600080fd5b50565b600081519050620001808162000155565b92915050565b6000602082840312156200019f576200019e6200011c565b5b6000620001af848285016200016f565b91505092915050565b611eef80620001c86000396000f3fe60806040526004361061009c5760003560e01c806364b4f7511161006457806364b4f75114610137578063c10f270014610162578063c290d6911461018b578063cd905dff146101b4578063ee38a749146101df578063f83f11c0146102085761009c565b806323024408146100a1578063339d2590146100bd57806335183170146100c75780633cc0be9c146100e35780635f1cc0e61461010c575b600080fd5b6100bb60048036038101906100b6919061122f565b610231565b005b6100c56102c2565b005b6100e160048036038101906100dc91906112f7565b6103af565b005b3480156100ef57600080fd5b5061010a6004803603810190610105919061137f565b61044c565b005b34801561011857600080fd5b506101216104e5565b60405161012e91906114ab565b60405180910390f35b34801561014357600080fd5b5061014c610625565b60405161015991906114d5565b60405180910390f35b34801561016e57600080fd5b506101896004803603810190610184919061151c565b610631565b005b34801561019757600080fd5b506101b260048036038101906101ad91906115b6565b610a0b565b005b3480156101c057600080fd5b506101c9610ad6565b6040516101d691906115fe565b60405180910390f35b3480156101eb57600080fd5b5061020660048036038101906102019190611619565b610b6e565b005b34801561021457600080fd5b5061022f600480360381019061022a919061137f565b610c04565b005b600360009054906101000a900473ffffffffffffffffffffffffffffffffffffffff1673ffffffffffffffffffffffffffffffffffffffff16632302440834836040518363ffffffff1660e01b815260040161028d9190611688565b6000604051808303818588803b1580156102a657600080fd5b505af11580156102ba573d6000803e3d6000fd5b505050505050565b670de0b6b3a764000034101561030d576040517f08c379a000000000000000000000000000000000000000000000000000000000815260040161030490611700565b60405180910390fd5b600061031833610d03565b9050604051806040016040528060011515815260200182815250600460003373ffffffffffffffffffffffffffffffffffffffff1673ffffffffffffffffffffffffffffffffffffffff16815260200190815260200160002060008201518160000160006101000a81548160ff0219169083151502179055506020820151816001019060036103a89291906110ee565b5090505050565b600360009054906101000a900473ffffffffffffffffffffffffffffffffffffffff1673ffffffffffffffffffffffffffffffffffffffff1663351831703487878787876040518763ffffffff1660e01b815260040161041395949392919061176d565b6000604051808303818588803b15801561042c57600080fd5b505af1158015610440573d6000803e3d6000fd5b50505050505050505050565b600360009054906101000a900473ffffffffffffffffffffffffffffffffffffffff1673ffffffffffffffffffffffffffffffffffffffff16633cc0be9c858585856040518563ffffffff1660e01b81526004016104ad94939291906117bb565b600060405180830381600087803b1580156104c757600080fd5b505af11580156104db573d6000803e3d6000fd5b5050505050505050565b6104ed611188565b600460003373ffffffffffffffffffffffffffffffffffffffff1673ffffffffffffffffffffffffffffffffffffffff16815260200190815260200160002060000160009054906101000a900460ff1661057c576040517f08c379a000000000000000000000000000000000000000000000000000000000815260040161057390611847565b60405180910390fd5b600460003373ffffffffffffffffffffffffffffffffffffffff1673ffffffffffffffffffffffffffffffffffffffff16815260200190815260200160002060010160038060200260405190810160405280929190826003801561061b576020028201916000905b82829054906101000a900460ff1660ff16815260200190600101906020826000010492830192600103820291508084116105e45790505b5050505050905090565b670de0b6b3a764000081565b8560ff16600460003373ffffffffffffffffffffffffffffffffffffffff1673ffffffffffffffffffffffffffffffffffffffff16815260200190815260200160002060010160006003811061068a57610689611867565b5b602091828204019190069054906101000a900460ff1660ff16148061071e57508560ff16600460003373ffffffffffffffffffffffffffffffffffffffff1673ffffffffffffffffffffffffffffffffffffffff16815260200190815260200160002060010160016003811061070357610702611867565b5b602091828204019190069054906101000a900460ff1660ff16145b8061079857508560ff16600460003373ffffffffffffffffffffffffffffffffffffffff1673ffffffffffffffffffffffffffffffffffffffff16815260200190815260200160002060010160026003811061077d5761077c611867565b5b602091828204019190069054906101000a900460ff1660ff16145b6107d7576040517f08c379a00000000000000000000000000000000000000000000000000000000081526004016107ce90611908565b60405180910390fd5b600086868686866040516020016107f29594939291906119f7565b6040516020818303038152906040528051906020012090506005600082815260200190815260200160002060000160149054906101000a900460ff1661086d576040517f08c379a000000000000000000000000000000000000000000000000000000000815260040161086490611ab5565b60405180910390fd5b6005600082815260200190815260200160002060010160008360ff1660ff168152602001908152602001600020339080600181540180825580915050600190039060005260206000200160009091909190916101000a81548173ffffffffffffffffffffffffffffffffffffffff021916908373ffffffffffffffffffffffffffffffffffffffff1602179055507f43c853095c2752648493c88b4baac4d580d2594ffb00c6f1d4242d844514f7838686868686604051610932959493929190611ae4565b60405180910390a160036005600083815260200190815260200160002060010160008460ff1660ff1681526020019081526020016000208054905010610a02577fe23f5229de535c091e3b7bec2665f5d698192d3b31393066e8987b7a05076b6c86868686866040516109a9959493929190611ae4565b60405180910390a1610a018686868080601f016020809104026020016040519081016040528093929190818152602001838380828437600081840152601f19601f820116905080830192505050505050508585610ee9565b5b50505050505050565b7fc4d79bd468d1361aa2392615a8145e4c3cd5b91fe134f755e2d1690cf78aa8c33330604051610a3c929190611b32565b60405180910390a1600360009054906101000a900473ffffffffffffffffffffffffffffffffffffffff1673ffffffffffffffffffffffffffffffffffffffff1663c407687633836040518363ffffffff1660e01b8152600401610aa1929190611b7c565b600060405180830381600087803b158015610abb57600080fd5b505af1158015610acf573d6000803e3d6000fd5b5050505050565b6000600360009054906101000a900473ffffffffffffffffffffffffffffffffffffffff1673ffffffffffffffffffffffffffffffffffffffff1663cd905dff6040518163ffffffff1660e01b8152600401602060405180830381865afa158015610b45573d6000803e3d6000fd5b505050506040513d601f19601f82011682018060405250810190610b699190611bd1565b905090565b600360009054906101000a900473ffffffffffffffffffffffffffffffffffffffff1673ffffffffffffffffffffffffffffffffffffffff1663ee38a7498484846040518463ffffffff1660e01b8152600401610bcd93929190611bfe565b600060405180830381600087803b158015610be757600080fd5b505af1158015610bfb573d6000803e3d6000fd5b50505050505050565b6000610c0f33611022565b905060008186868686604051602001610c2c9594939291906119f7565b6040516020818303038152906040528051906020012090506000600560008381526020019081526020016000209050338160000160006101000a81548173ffffffffffffffffffffffffffffffffffffffff021916908373ffffffffffffffffffffffffffffffffffffffff16021790555060018160000160146101000a81548160ff0219169083151502179055507f3ed01f2c3fc24c6b329d931e35b03e390d23497d22b3f90e15b600343e93df118388888888604051610cf2959493929190611c30565b60405180910390a150505050505050565b610d0b611188565b610d13611188565b610d1c83611022565b81600060038110610d3057610d2f611867565b5b602002019060ff16908160ff168152505080600060038110610d5557610d54611867565b5b602002015181600160038110610d6e57610d6d611867565b5b602002019060ff16908160ff16815250505b80600060038110610d9457610d93611867565b5b602002015160ff1681600160038110610db057610daf611867565b5b602002015160ff1603610df057610dc683611022565b81600160038110610dda57610dd9611867565b5b602002019060ff16908160ff1681525050610d80565b80600160038110610e0457610e03611867565b5b602002015181600260038110610e1d57610e1c611867565b5b602002019060ff16908160ff16815250505b80600060038110610e4357610e42611867565b5b602002015160ff1681600260038110610e5f57610e5e611867565b5b602002015160ff161480610ea8575080600160038110610e8257610e81611867565b5b602002015160ff1681600260038110610e9e57610e9d611867565b5b602002015160ff16145b15610ee057610eb683611022565b81600260038110610eca57610ec9611867565b5b602002019060ff16908160ff1681525050610e2f565b80915050919050565b600360009054906101000a900473ffffffffffffffffffffffffffffffffffffffff1673ffffffffffffffffffffffffffffffffffffffff16634337bdd4858585856040518563ffffffff1660e01b8152600401610f4a9493929190611cec565b600060405180830381600087803b158015610f6457600080fd5b505af1158015610f78573d6000803e3d6000fd5b50505050600a60ff168160ff161461101c57600360009054906101000a900473ffffffffffffffffffffffffffffffffffffffff1673ffffffffffffffffffffffffffffffffffffffff1663c8820a708585856040518463ffffffff1660e01b8152600401610fe993929190611d38565b600060405180830381600087803b15801561100357600080fd5b505af1158015611017573d6000803e3d6000fd5b505050505b50505050565b600080600a905060008160ff166003601481819054906101000a900460ff168092919061104e90611da5565b91906101000a81548160ff021916908360ff16021790555060ff16436110749190611dce565b4085604051602001611087929190611e2d565b6040516020818303038152906040528051906020012060001c6110aa9190611e88565b905060fa600360149054906101000a900460ff1660ff1611156110e4576000600360146101000a81548160ff021916908360ff1602179055505b8092505050919050565b826003601f016020900481019282156111775791602002820160005b8382111561114857835183826101000a81548160ff021916908360ff160217905550926020019260010160208160000104928301926001030261110a565b80156111755782816101000a81549060ff0219169055600101602081600001049283019260010302611148565b505b50905061118491906111aa565b5090565b6040518060600160405280600390602082028036833780820191505090505090565b5b808211156111c35760008160009055506001016111ab565b5090565b600080fd5b600080fd5b600073ffffffffffffffffffffffffffffffffffffffff82169050919050565b60006111fc826111d1565b9050919050565b61120c816111f1565b811461121757600080fd5b50565b60008135905061122981611203565b92915050565b600060208284031215611245576112446111c7565b5b60006112538482850161121a565b91505092915050565b600080fd5b600080fd5b600080fd5b60008083601f8401126112815761128061125c565b5b8235905067ffffffffffffffff81111561129e5761129d611261565b5b6020830191508360018202830111156112ba576112b9611266565b5b9250929050565b6000819050919050565b6112d4816112c1565b81146112df57600080fd5b50565b6000813590506112f1816112cb565b92915050565b600080600080600060808688031215611313576113126111c7565b5b60006113218882890161121a565b95505060206113328882890161121a565b945050604086013567ffffffffffffffff811115611353576113526111cc565b5b61135f8882890161126b565b93509350506060611372888289016112e2565b9150509295509295909350565b60008060008060608587031215611399576113986111c7565b5b60006113a78782880161121a565b945050602085013567ffffffffffffffff8111156113c8576113c76111cc565b5b6113d48782880161126b565b935093505060406113e7878288016112e2565b91505092959194509250565b600060039050919050565b600081905092915050565b6000819050919050565b600060ff82169050919050565b61142981611413565b82525050565b600061143b8383611420565b60208301905092915050565b6000602082019050919050565b61145d816113f3565b61146781846113fe565b925061147282611409565b8060005b838110156114a357815161148a878261142f565b965061149583611447565b925050600181019050611476565b505050505050565b60006060820190506114c06000830184611454565b92915050565b6114cf816112c1565b82525050565b60006020820190506114ea60008301846114c6565b92915050565b6114f981611413565b811461150457600080fd5b50565b600081359050611516816114f0565b92915050565b60008060008060008060a08789031215611539576115386111c7565b5b600061154789828a01611507565b965050602061155889828a0161121a565b955050604087013567ffffffffffffffff811115611579576115786111cc565b5b61158589828a0161126b565b9450945050606061159889828a016112e2565b92505060806115a989828a01611507565b9150509295509295509295565b6000602082840312156115cc576115cb6111c7565b5b60006115da848285016112e2565b91505092915050565b60008115159050919050565b6115f8816115e3565b82525050565b600060208201905061161360008301846115ef565b92915050565b600080600060408486031215611632576116316111c7565b5b60006116408682870161121a565b935050602084013567ffffffffffffffff811115611661576116606111cc565b5b61166d8682870161126b565b92509250509250925092565b611682816111f1565b82525050565b600060208201905061169d6000830184611679565b92915050565b600082825260208201905092915050565b7f526567697374726174696f6e2066656520697320726571756972656400000000600082015250565b60006116ea601c836116a3565b91506116f5826116b4565b602082019050919050565b60006020820190508181036000830152611719816116dd565b9050919050565b82818337600083830152505050565b6000601f19601f8301169050919050565b600061174c83856116a3565b9350611759838584611720565b6117628361172f565b840190509392505050565b60006080820190506117826000830188611679565b61178f6020830187611679565b81810360408301526117a2818587611740565b90506117b160608301846114c6565b9695505050505050565b60006060820190506117d06000830187611679565b81810360208301526117e3818587611740565b90506117f260408301846114c6565b95945050505050565b7f4e6f74207265676973746572656420617320616e206f7261636c650000000000600082015250565b6000611831601b836116a3565b915061183c826117fb565b602082019050919050565b6000602082019050818103600083015261186081611824565b9050919050565b7f4e487b7100000000000000000000000000000000000000000000000000000000600052603260045260246000fd5b7f496e64657820646f6573206e6f74206d61746368206f7261636c65207265717560008201527f6573740000000000000000000000000000000000000000000000000000000000602082015250565b60006118f26023836116a3565b91506118fd82611896565b604082019050919050565b60006020820190508181036000830152611921816118e5565b9050919050565b60008160f81b9050919050565b600061194082611928565b9050919050565b61195861195382611413565b611935565b82525050565b60008160601b9050919050565b60006119768261195e565b9050919050565b60006119888261196b565b9050919050565b6119a061199b826111f1565b61197d565b82525050565b600081905092915050565b60006119bd83856119a6565b93506119ca838584611720565b82840190509392505050565b6000819050919050565b6119f16119ec826112c1565b6119d6565b82525050565b6000611a038288611947565b600182019150611a13828761198f565b601482019150611a248285876119b1565b9150611a3082846119e0565b6020820191508190509695505050505050565b7f466c69676874206f722074696d657374616d7020646f206e6f74206d6174636860008201527f206f7261636c6520726571756573740000000000000000000000000000000000602082015250565b6000611a9f602f836116a3565b9150611aaa82611a43565b604082019050919050565b60006020820190508181036000830152611ace81611a92565b9050919050565b611ade81611413565b82525050565b6000608082019050611af96000830188611679565b8181036020830152611b0c818688611740565b9050611b1b60408301856114c6565b611b286060830184611ad5565b9695505050505050565b6000604082019050611b476000830185611679565b611b546020830184611679565b9392505050565b6000611b66826111d1565b9050919050565b611b7681611b5b565b82525050565b6000604082019050611b916000830185611b6d565b611b9e60208301846114c6565b9392505050565b611bae816115e3565b8114611bb957600080fd5b50565b600081519050611bcb81611ba5565b92915050565b600060208284031215611be757611be66111c7565b5b6000611bf584828501611bbc565b91505092915050565b6000604082019050611c136000830186611679565b8181036020830152611c26818486611740565b9050949350505050565b6000608082019050611c456000830188611ad5565b611c526020830187611679565b8181036040830152611c65818587611740565b9050611c7460608301846114c6565b9695505050505050565b600081519050919050565b60005b83811015611ca7578082015181840152602081019050611c8c565b60008484015250505050565b6000611cbe82611c7e565b611cc881856116a3565b9350611cd8818560208601611c89565b611ce18161172f565b840191505092915050565b6000608082019050611d016000830187611679565b8181036020830152611d138186611cb3565b9050611d2260408301856114c6565b611d2f6060830184611ad5565b95945050505050565b6000606082019050611d4d6000830186611679565b8181036020830152611d5f8185611cb3565b9050611d6e60408301846114c6565b949350505050565b7f4e487b7100000000000000000000000000000000000000000000000000000000600052601160045260246000fd5b6000611db082611413565b915060ff8203611dc357611dc2611d76565b5b600182019050919050565b6000611dd9826112c1565b9150611de4836112c1565b9250828203905081811115611dfc57611dfb611d76565b5b92915050565b6000819050919050565b6000819050919050565b611e27611e2282611e02565b611e0c565b82525050565b6000611e398285611e16565b602082019150611e49828461198f565b6014820191508190509392505050565b7f4e487b7100000000000000000000000000000000000000000000000000000000600052601260045260246000fd5b6000611e93826112c1565b9150611e9e836112c1565b925082611eae57611ead611e59565b5b82820690509291505056fea2646970667358221220c412ebd6f363f94dece237118291581b6ba24d44b8983529c38f08f664cb9d4864736f6c63430008110033",
  "immutableReferences": {},
  "source": "// SPDX-License-Identifier: MIT\npragma solidity ^0.8.17;\n\n// SafeMath built-in in later Sol\nimport \"./FlightSuretyData.sol\";\n\n\n/************************************************** */\n/* FlightSurety Smart Contract                      */\n/************************************************** */\ncontract FlightSuretyApp {\n\n    /********************************************************************************************/\n    /*                                       DATA VARIABLES                                     */\n    /********************************************************************************************/\n\n    // Flight status codees\n    uint8 private constant STATUS_CODE_UNKNOWN = 0;\n    uint8 private constant STATUS_CODE_ON_TIME = 10;\n    uint8 private constant STATUS_CODE_LATE_AIRLINE = 20;\n    uint8 private constant STATUS_CODE_LATE_WEATHER = 30;\n    uint8 private constant STATUS_CODE_LATE_TECHNICAL = 40;\n    uint8 private constant STATUS_CODE_LATE_OTHER = 50;\n\n    address private contractOwner;          // Account used to deploy contract\n    address private dataAddress;\n\n    struct Flight {\n        bool isRegistered;\n        uint8 statusCode;\n        uint256 updatedTimestamp;        \n        address airline;\n    }\n    mapping(bytes32 => Flight) private flights;\n\n    FlightSuretyData flightSuretyData;\n\n \n    /********************************************************************************************/\n    /*                                       FUNCTION MODIFIERS                                 */\n    /********************************************************************************************/\n\n    // Modifiers help avoid duplication of code. They are typically used to validate something\n    // before a function is allowed to be executed.\n\n    /**\n    * @dev Modifier that requires the \"operational\" boolean variable to be \"true\"\n    *      This is used on all state changing functions to pause the contract in \n    *      the event there is an issue that needs to be fixed\n    */\n    modifier requireIsOperational() \n    {\n         // Modify to call data contract's status\n        require(true, \"Contract is currently not operational\");  \n        _;  // All modifiers require an \"_\" which indicates where the function body will be added\n    }\n\n    /**\n    * @dev Modifier that requires the \"ContractOwner\" account to be the function caller\n    */\n    modifier requireContractOwner()\n    {\n        require(msg.sender == contractOwner, \"Caller is not contract owner\");\n        _;\n    }\n\n    /********************************************************************************************/\n    /*                                       CONSTRUCTOR                                        */\n    /********************************************************************************************/\n\n    /**\n    * @dev Contract constructor\n    *\n    */\n    constructor\n                                (\n                                  address payable _dataAddress\n                                )\n    {\n        contractOwner = msg.sender;\n        flightSuretyData = FlightSuretyData(_dataAddress);\n        dataAddress = _dataAddress;\n    }\n\n    /********************************************************************************************/\n    /*                                       UTILITY FUNCTIONS                                  */\n    /********************************************************************************************/\n\n    function isOperational() external view returns(bool) {\n            return flightSuretyData.isOperational();\n    }\n\n\n    /********************************************************************************************/\n    /*                                     SMART CONTRACT FUNCTIONS                             */\n    /********************************************************************************************/\n\n   /**\n    * @dev Register a future flight for insuring.\n    *\n    */  \n    function registerFlight (\n                                address airline,\n                                string calldata flight,\n                                uint256 timestamp\n                            )\n    external {\n        flightSuretyData.registerFlight(airline, flight, timestamp);\n    }\n\n    // Generate a request for oracles to fetch flight information\n    function fetchFlightStatus\n                        (\n                            address airline,\n                            string calldata flight,\n                            uint256 timestamp                            \n                        )\n                        external\n    {\n        uint8 index = getRandomIndex(msg.sender);\n\n        // Generate a unique key for storing the request\n        bytes32 key = keccak256(abi.encodePacked(index, airline, flight, timestamp));\n        ResponseInfo storage newResponseInfo = oracleResponses[key];\n        newResponseInfo.requester = msg.sender;\n        newResponseInfo.isOpen = true;\n\n        emit OracleRequest(index, airline, flight, timestamp);\n    } \n\n\n    // region ORACLE MANAGEMENT\n\n    // Incremented to add pseudo-randomness at various points\n    uint8 private nonce = 0;    \n\n    // Fee to be paid when registering oracle\n    uint256 public constant REGISTRATION_FEE = 1 ether;\n\n    // Number of oracles that must respond for valid status\n    uint256 private constant MIN_RESPONSES = 3;\n\n\n    struct Oracle {\n        bool isRegistered;\n        uint8[3] indexes;        \n    }\n\n    // Track all registered oracles\n    mapping(address => Oracle) private oracles;\n\n    // Model for responses from oracles\n    struct ResponseInfo {\n        address requester;                              // Account that requested status\n        bool isOpen;                                    // If open, oracle responses are accepted\n        mapping(uint8 => address[]) responses;          // Mapping key is the status code reported\n                                                        // This lets us group responses and identify\n                                                        // the response that majority of the oracles\n    }\n\n    // Track all oracle responses\n    // Key = hash(index, flight, timestamp)\n    mapping(bytes32 => ResponseInfo) private oracleResponses;\n\n    // Event fired each time an oracle submits a response\n    event FlightStatusInfo(address airline, string flight, uint256 timestamp, uint8 status);\n\n    event PayoutPassengerApp(address passenger, address contractAddress);\n\n    event OracleReport(address airline, string flight, uint256 timestamp, uint8 status);\n\n    // Event fired when flight status request is submitted\n    // Oracles track this and if they have a matching index\n    // they fetch data and submit a response\n    event OracleRequest(uint8 index, address airline, string flight, uint256 timestamp);\n\n\n    // Register an oracle with the contract\n    function registerOracle\n                            (\n                            )\n                            external\n                            payable\n    {\n        // Require registration fee\n        require(msg.value >= REGISTRATION_FEE, \"Registration fee is required\");\n\n        uint8[3] memory indexes = generateIndexes(msg.sender);\n\n        oracles[msg.sender] = Oracle({\n                                        isRegistered: true,\n                                        indexes: indexes\n                                    });\n    }\n\n    function getMyIndexes\n                            (\n                            )\n                            view\n                            external\n                            returns(uint8[3] memory)\n    {\n        require(oracles[msg.sender].isRegistered, \"Not registered as an oracle\");\n\n        return oracles[msg.sender].indexes;\n    }\n\n\n\n\n    // Called by oracle when a response is available to an outstanding request\n    // For the response to be accepted, there must be a pending request that is open\n    // and matches one of the three Indexes randomly assigned to the oracle at the\n    // time of registration (i.e. uninvited oracles are not welcome)\n    function submitOracleResponse\n                        (\n                            uint8 index,\n                            address airline,\n                            string calldata flight,\n                            uint256 timestamp,\n                            uint8 statusCode\n                        )\n                        external\n    {\n        require((oracles[msg.sender].indexes[0] == index) || (oracles[msg.sender].indexes[1] == index) || (oracles[msg.sender].indexes[2] == index), \"Index does not match oracle request\");\n\n\n        bytes32 key = keccak256(abi.encodePacked(index, airline, flight, timestamp)); \n        require(oracleResponses[key].isOpen, \"Flight or timestamp do not match oracle request\");\n\n        oracleResponses[key].responses[statusCode].push(msg.sender);\n\n        // Information isn't considered verified until at least MIN_RESPONSES\n        // oracles respond with the *** same *** information\n        emit OracleReport(airline, flight, timestamp, statusCode);\n        if (oracleResponses[key].responses[statusCode].length >= MIN_RESPONSES) {\n\n            emit FlightStatusInfo(airline, flight, timestamp, statusCode);\n\n            // Handle flight status as appropriate\n            processFlightStatus(airline, flight, timestamp, statusCode);\n        }\n    }\n\n\n    function getFlightKey\n                        (\n                            address airline,\n                            string calldata flight,\n                            uint256 timestamp\n                        )\n                        pure\n                        internal\n                        returns(bytes32) \n    {\n        return keccak256(abi.encodePacked(airline, flight, timestamp));\n    }\n\n    // Returns array of three non-duplicating integers from 0-9\n    function generateIndexes\n                            (                       \n                                address account         \n                            )\n                            internal\n                            returns(uint8[3] memory)\n    {\n        uint8[3] memory indexes;\n        indexes[0] = getRandomIndex(account);\n        \n        indexes[1] = indexes[0];\n        while(indexes[1] == indexes[0]) {\n            indexes[1] = getRandomIndex(account);\n        }\n\n        indexes[2] = indexes[1];\n        while((indexes[2] == indexes[0]) || (indexes[2] == indexes[1])) {\n            indexes[2] = getRandomIndex(account);\n        }\n\n        return indexes;\n    }\n\n    // Returns array of three non-duplicating integers from 0-9\n    function getRandomIndex\n                            (\n                                address account\n                            )\n                            internal\n                            returns (uint8)\n    {\n        uint8 maxValue = 10;\n\n        // Pseudo random number...the incrementing nonce adds variation\n        uint8 random = uint8(uint256(keccak256(abi.encodePacked(blockhash(block.number - nonce++), account))) % maxValue);\n\n        if (nonce > 250) {\n            nonce = 0;  // Can only fetch blockhashes for last 256 blocks so we adapt\n        }\n\n        return random;\n    }\n\n// endregion\n\n/********************************************************************************************/\n/*                                DATA CONTRACT ENCAPSULATIONS                              */\n/********************************************************************************************/\n\n\n  function registerAirline(address newAirline, string calldata name) external{\n      return flightSuretyData.registerAirline(newAirline, name);\n  }\n\n  function fund(address owner) public payable {\n      flightSuretyData.fund{value: msg.value}(owner);\n  }\n\n  function buy(address _passengerAddress, address airline,\n               string calldata flight,\n               uint256 timestamp) public payable {\n      flightSuretyData.buy{value: msg.value}({_passengerAddress: _passengerAddress, \n        airline: airline, flight: flight, timestamp: timestamp});\n  }\n\n    function processFlightStatus(\n                                    address airline,\n                                    string memory flight,\n                                    uint256 timestamp,\n                                    uint8 statusCode\n                                )\n    internal {\n        flightSuretyData.updateFlightStatus(airline, flight, timestamp, statusCode);\n        if(statusCode != STATUS_CODE_ON_TIME){\n             flightSuretyData.creditInsurees(airline, flight, timestamp);\n        }\n    }\n\n  function pay(uint256 amount) external {\n        emit PayoutPassengerApp(msg.sender, address(this));\n        flightSuretyData.pay(payable(msg.sender), amount);\n  }\n\n\n}   \n\n\n\n\n\n\n/********************************************************************************************/\n/*                                    DATA CONTRACT INTERFACE                               */\n/********************************************************************************************/\n\n// contract FlightSuretyDataProxy {\n\n//     // function getAirlineName(address airline) external view returns(string memory){}\n//     // function getAirlineAccount(address airline) external view returns(address){}\n//     // function getRegistrationStatus(address airline) external view returns(bool){}\n//     // function getAuthorizationStatus(address airline) external view returns(bool){}\n//     // function getOperationalVote(address airline) external view returns(bool){}\n//     function isOperational() external view returns(bool){}\n//     function registerAirline(address newAirline, string calldata name) external{}\n//     // function getAuthorizedAirlineCount() external view returns(uint256){}\n//     function fund(address owner) public payable {}\n//     function buy(address passengerAddress, address airline, string calldata flight, uint256 timestamp) public payable {}\n// }",
  "sourcePath": "/Users/leehodgkinson/IdeaProjects/MyFlightSurety/contracts/FlightSuretyApp.sol",
  "compiler": {
    "name": "solc",
    "version": "0.8.17+commit.8df45f5f.Emscripten.clang"
  },
  "schemaVersion": "3.4.10",
  "updatedAt": "2022-10-23T05:30:45.014Z",
  "devdoc": {
    "kind": "dev",
    "methods": {
      "constructor": {
        "details": "Contract constructor"
      },
      "registerFlight(address,string,uint256)": {
        "details": "Register a future flight for insuring."
      }
    },
    "version": 1
  },
  "userdoc": {
    "kind": "user",
    "methods": {},
    "version": 1
  }
}